:04C000006F2000228B
:10C00400000000000000000090000020800A0020D2
:10C01400A9BDF9F594000020000000000000000014
:10C02400960000209800002000000000000000009E
:10C034009A000020000000009C0000200000000086
:10C044009E00002022030020A6030020A40000205C
:10C05400A6000020A8000020AA000020AC000020B8
:10C06400AE000020B0000020C60000205A010020CD
:10C07400FC0A0020B8000020BA000020BC00002008
:10C08400BE000020F20100208A020020C40000202B
:10C0940001A001A001A001A001A001A001A001A094
:10C0A40001A001A001A001A001A001A001A001A084
:10C0B40001A001A001A001A001A001A001A001A074
:10C0C40001A001A001A037370040834747009946EB
:10C0D4004111BD8B638CD70231476384E706114756
:10C0E400639EE702A3030100174600000346C676D9
:10C0F40037370040834771006315F6022C0013851F
:10C10400817E977001E0E780A0CB09A883475700A0
:10C1140093F7F70F2304F100834781004101730073
:10C12400203083477100834687000C08AE97238C28
:10C13400D7FE83477100850793F7F70FA303F10038
:10C1440055BF280097F001E0E780401D1375F50FF7
:10C15400A303A1000346710055B737370040834756
:10C16400474099464111BD8B638ED70231476386A0
:10C17400E70611476390E704A30301001746000094
:10C184000346A66D37370040834771006317F602F4
:10C194002C00173500001305252B977001E0E7806C
:10C1A40020C209A88347574093F7F70F2304F100EF
:10C1B4008347810041017300203083477100834627
:10C1C40087400C08AE97238CD7FE83477100850700
:10C1D40093F7F70FA303F10045BF280097F001E0A0
:10C1E400E78080251375F50FA303A10003467100B2
:10C1F40045B7374700408347478099464111BD8B77
:10C20400638ED70231476386E70611476390E704DC
:10C21400A303010017460000034616643747004095
:10C22400834771006317F6022C00173500001305CD
:10C23400E522977001E0E780A0B809A883475780FA
:10C2440093F7F70F2304F100834781004101730042
:10C25400203083477100834687800C08AE97238C77
:10C26400D7FE83477100850793F7F70FA303F10007
:10C2740045BF280097F001E0E780C02D1375F50F46
:10C28400A303A1000346710045B737470040834725
:10C2940047C099464111BD8B638ED70231476386EF
:10C2A400E70611476390E704A30301001756000053
:10C2B4000346669B37470040834771006317F602C5
:10C2C4002C00173500001305A51A977001E0E780CC
:10C2D40020AF09A8834757C093F7F70F2304F10051
:10C2E40083478100410173002030834771008346F6
:10C2F40087C00C08AE97238CD7FE8347710085074F
:10C3040093F7F70FA303F10045BF280097F001E06E
:10C31400E78000361375F50FA303A10003467100EF
:10C3240045B7411126C4B714004022C603D4C4093A
:10C33400420441809317140163DB0700A1450145C2
:10C3440097C001E0E78040399167239EF408931772
:10C35400340163DF07029757000083C7F7A993E707
:10C36400170017570000A309F7A8B717004003A741
:10C37400470A8566131637016351060203A7C70AE5
:10C38400558F23A6E70AB71700400567239EE708E1
:10C394003244A24441017300203003A7870A558F19
:10C3A40023A4E70ACDB7B717004003D7E70903D79B
:10C3B400E709975600009386269F131637016351A9
:10C3C4000604175700000347A7A5050717560000E2
:10C3D4002308E6A498421367074017560000232554
:10C3E400E69C0567239FE70803A7470C056693159A
:10C3F400370163D7050403A7C70C518F23A6E70CA5
:10C404009C42056713070780D98F17570000232D17
:10C41400F798B717004003A7470CB7068000131618
:10C4240087006355060203A7C70C558F23A6E70CA4
:10C43400B717004013070020239FE708730020303C
:10C4440003A7870C518F23A4E70C5DBF03A7870CB8
:10C45400558F23A4E70CE9BF411122C417540000EF
:10C46400130484941C4006C61397470163560708B7
:10C47400B717004083A7470C139787006345070647
:10C484009747000083C747C0B9EF854717470000A7
:10C49400230CF7BE976001E0E78060431C401397CC
:10C4A4003701634107028D45094597C001E0E780E4
:10C4B400A02291451755000003455591973002E09D
:10C4C400E78080CE054597B001E0E780607585453B
:10C4D400054597B001E0E780A06D9307C012175798
:10C4E40000002316F78E1C407D771307F77FF98F22
:10C4F40017570000232AF78A9747000083C7C7B855
:10C50400C9CB9747000083C747898DCB8347140560
:10C51400858B8DC71C4013973701634107028D45F6
:10C52400094597C001E0E780201B9145175500009D
:10C534000345D589973002E0E78000C71840937718
:10C544000740A1CB9747000083C7178589466388B6
:10C55400D700ED1793F7F70F854663E5F6029317B7
:10C56400370163C107028D45094597C001E0E780A3
:10C57400A01691451755000003455585973002E0F4
:10C58400E78080C21C4093F7F7BF17570000232DA4
:10C59400F780B24022444101828041118146014624
:10C5A4008145114506C6EF00C077B7270040114703
:10C5B4002383E780B7F700E003A707D16D9B23A887
:10C5C400E7D003A707D15D9B23A8E7D073005010E1
:10C5D40001000100B2404101828041118146814540
:10C5E4000146114506C6352FB7270040114723835E
:10C5F400E780B717004003C7E70283C5E70483D782
:10C60400870391661377F70F93E5350063E5D70049
:10C61400719B13671700B71700401306700523803A
:10C62400C704930680FA2380D70401000100238203
:10C6340007022380C7042380D70401000100238755
:10C64400E7022387B7042380C7042380D7040100AB
:10C65400010003C7B70413670702A385E704238017
:10C66400070437F700E0832507D193E54500232825
:10C67400B7D0832507D1DD992328B7D07300501094
:10C68400010001002380C7042380D70401000100B6
:10C6940003C7B7041377F70DA385E70423800704C2
:10C6A400B240410182800111B7F5070022CC8146D6
:10C6B400E1052A840A86194506CE26CA02C0231239
:10C6C40001008525B717004003C7E70283C5E704C7
:10C6D40083D7870391661377F70F93E5350063E5F6
:10C6E400D700719B13671700B71700401306700536
:10C6F4002380C704930680FA2380D7040100010035
:10C70400238207022380C7042380D7040100010089
:10C714002387E7022387B70423800704B7F500E0E3
:10C7240003A705D11367470023A8E5D003D5070263
:10C734006577110713750560418D598D4205418157
:10C7440001002380C7042380D7040100010003C72C
:10C75400F70037F40700B7F400E013670704A38772
:10C76400E70003C7B704610413670702A385E7045E
:10C774002390A70283A704D1DD9B23A8F4D07300E0
:10C7840050100100010013056004352E814630006D
:10C79400A285194502C4231601006123224782475A
:10C7A400E31AF7FCB7170040130770052380E7046A
:10C7B400130780FA2380E7040100010003C7B704CC
:10C7C4001377F70DA385E70423800704F24062443E
:10C7D400D2440561828001114EC681460146AA8970
:10C7E4008145114506CE22CC26CA4AC81D2BB71650
:10C7F400004083C7E60203C7E60483D686031166B6
:10C8040093F7F70F1367370063E5C600F19B93E7CF
:10C8140017003714004013097005230024059304FE
:10C8240080FA23009404010001002302040223007F
:10C83400240523009404010001002307F4022307C4
:10C84400E40423000404130550025920B7F700E060
:10C8540003A707D11367470023A8E7D023002405C3
:10C8640023009404010001000347F4001367070444
:10C87400A307E4002300240523009404010001001D
:10C884002567B3E9E9002310340303A707D15D9BAF
:10C8940023A8E7D07300501001000100814601462F
:10C8A40081451145BD29230024052300940401007A
:10C8B40001008347640493E717002303F40423006F
:10C8C4000404F2406244D2444249B2490561828080
:10C8D400B7170040930670052380D704130780FA26
:10C8E4002380E7040100010003C6B7041376F60DA4
:10C8F400A385C70423800704137605024DC203C62B
:10C90400A700118A1DE22380D7042380E7040100D5
:10C91400010003C7A700136747002385E7009307B7
:10C92400004B01000100FD17EDFFB717004093060F
:10C9340070052380D704130780FA2380E7040100DD
:10C9440001007D892394A70001000100010001007A
:10C95400238007042380D7042380E7040100010017
:10C96400010001003727004093061005A303D78078
:10C9740023800704B7170040130770052380E704DA
:10C98400130780FA2380E7040100010003C7B704FA
:10C9940013670708A385E7042380070482801376BE
:10C9A400050441C603C6A700418A1DE22380D704BB
:10C9B4002380E7040100010003C7A70013670701F0
:10C9C4002385E7009307007D01000100FD17EDFFBB
:10C9D400B7170040930670052380D704130780FA25
:10C9E4002380E704010001001376F50113660604B1
:10C9F4002394C70001000100010001002380070403
:10CA04002380D704130660042380E7046318C50059
:10CA14000100010037270040894689BF0100010059
:10CA2400372700409306200591B72380D70423803D
:10CA3400E7040100010003D787001367070C239460
:10CA4400E7000DBF4111814601468145114506C6E7
:10CA5400C92CB7170040130770052380E704130798
:10CA640080FA2380E7040100010003C76704136709
:10CA740017002383E70423800704B2404101828026
:10CA84008146014681451145692CB717004093063C
:10CA940070052380D704130780FA2380E70401007C
:10CAA40001007D562396C7022380D7042380E70420
:10CAB4000100010003C76704136717002383E70419
:10CAC4002380070401A0BD473305F50201007D154D
:10CAD40075FD8280411122C426C206C6AA8401447F
:10CAE40063179400B24022449244410182800504B9
:10CAF4001305803E4204C13F4180DDB7B7170040B3
:10CB0400130700032388E702854717470000232300
:10CB1400F73273002030397122DC4ED656D23714E6
:10CB24000040E57AB7F9070026DA52D45AD05ECE2F
:10CB340006DE4AD862CC2A8B916B93040404130A50
:10CB44007005910AE1098347E4020347E40483562C
:10CB5400840393F7F70F1367370063E57601F19BBE
:10CB640093E7170023804401130980FA23802401EA
:10CB740001000100230204022380440123802401D4
:10CB8400010001002307F4022307E40423800400C6
:10CB940037F700E0832707D193E747002328F7D02E
:10CBA4008357040293F70760B3E76701B3E75701BC
:10CBB400C207C183010023804401238024010100B2
:10CBC40001008346F400130CB40493E60604A3079F
:10CBD400D4008346B40493E60602A305D4042310C8
:10CBE400F402832707D1DD9B2328F7D0730050106C
:10CBF4000100010013056004F9353000CE8581463B
:10CC0400194502C423160100292A1146974500003C
:10CC14009385C522280019231DD593077005238009
:10CC2400F400238024010100010083470C0093F7E2
:10CC3400F70D2300FC0023800400F2506254D25408
:10CC44004259B259225A925A025BF24B624C216108
:10CC54008280411106C6B52DEFF01F80977001E068
:10CC6400E780C048CDBF2303048015472303E48035
:10CC740001002302A480828083076480E3CE07FE40
:10CC840023030480828083076480E3CE07FE034588
:10CC94004480828083076480E3CE07FE2302A4805D
:10CCA4008280411126C44AC24EC006C61377F50BD2
:10CCB400AD47AA892E8995446306F700194565375F
:10CCC400653F8D444E854537FD59FD146398340105
:10CCD400B240A2441249824941018280135509019C
:10CCE4001375F50F453F2209CDB7011126CC06CEA9
:10CCF400B704080051371545BD37713769372AC65F
:10CD0400A53F32459377150089EB1365150013751C
:10CD1400F50FF240E24405618280FD14E9FC01450F
:10CD2400CDBF397126DC4ADA4ED852D656D45AD2FF
:10CD34005ED006DE62CE66CCB7E700E07D5783AAFC
:10CD4400070022C603AA470023A0E71823A2E71876
:10CD5400B7170040130770052380E704130780FA10
:10CD64002380E70483C74704930B75FFB684E20767
:10CD740093FBFB0F8546AA892E8B3289372400400A
:10CD8400E187015763FA76016308D50089461307E2
:10CD940000026313D5000157D98F93F7F70FB71C1F
:10CDA40000402382FC0411472303E4801305F00FA1
:10CDB4005D3D094CD135636D7C11B7050700DA95EB
:10CDC40037870700795563F2E504B3879500636EEE
:10CDD400F702370B0800A94733EB65016399F9069D
:10CDE40089E48144513D26850DA0DA850945553DE8
:10CDF40005090345F9FFFD14050B693D81C49377CB
:10CE0400FB0FFDF7DD3569FD7D55B71700401307AE
:10CE140070052380E704130780FA2380E70403C71F
:10CE24004704418B2382E704F250B7E700E023A0D4
:10CE3400571123A24711E25432445259C259325A6B
:10CE4400A25A125B825B724CE24C21618280A5473C
:10CE54006395F90685691309F00FB3069900B37455
:10CE64002B01B6941349F9FFB3749900856B337998
:10CE74006901416B9387F9FFB3F7270199E363FCD9
:10CE8400340193D94900C147E3E637FF99BF0569E7
:10CE9400C1697D19D9B71305800D6388690113052C
:10CEA40000026384790113051008CA85DD3B353D12
:10CEB40021DD4E99B3843441D9B7DA852D45D53374
:10CEC400CA94E30099F205097D3BA30FA9FED5BFDF
:10CED4009387F9FF93F7F70F6361FC0C83C71C0476
:10CEE40013073008631FF70437070800636BEB046C
:10CEF400B3079B00B706100063F5D704334BEB0070
:10CF040089476393F9068980D549E38C04ECDA8573
:10CF14000945413B11090327C9FF91472320E480B8
:10CF240003076480E34E07FE23033481FD17EDFB02
:10CF3400FD14110B81C49377FB0FE9FF7D3371F569
:10CF4400E1B5B717004003C75704B70708001377C4
:10CF5400070219E3B78707007955E378FBEA33073B
:10CF64009B00E3FFE7F855B58547E382F9F2DA85DC
:10CF74002D45053B9389F4FFE38504E6293393F7B4
:10CF8400390091EB832604800327090093074900A5
:10CF9400E39AE6E43E89CE84F1BFB5476396F9008F
:10CFA4001305900BC93135BDB1471305B00AE38BA6
:10CFB400F9FE99476391F904B7050800B365BB000E
:10CFC4002D45C53181448D4BA14975396396740152
:10CFD400832704802320F9008504E39834FF832702
:10CFE400048013172B01635507002312F900D5BBE6
:10CFF4002322F900FDB39D476399F9028145130586
:10D00400B0044531BD442320090023220900FD5901
:10D014009D3993F77400CA9703C70700FD14398D2F
:10D024002380A700E39634FF6DBBA1476392F90404
:10D034006D398144630D0B008D479304C00363086D
:10D04400FB009304000563048B01930440041375EF
:10D05400C507E30895D819453931393905452131D2
:10D0640026850D3909453D314931E31C05D669BB97
:10D0740091476399F90013056006F536F53E1305EB
:10D0840090090DB7E38F09D4F154A9BB19CD91CD03
:10D0940009CE81473387F500834607003307F5003F
:10D0A40085072300D700E317F6FE828019C991C9CA
:10D0B40009CA910583A7C5FF11057D16232EF5FE28
:10D0C400C5BF828001C919C62A960505A30FB5FEFE
:10D0D400E31DA6FE828081473307F500030707009E
:10D0E40019E33E8582808507C5BF01112E8626CAB5
:10D0F400AA84131506019305F004418122CC06CEBF
:10D1040032C6EF0010762A8401C53246A685BD3F9B
:10D114002285F2406244D24405618280854715C16C
:10D124008DC105C28147B306F5003387F50083C678
:10D134000600034707006398E6008507E315F6FE3B
:10D1440085473E8582808147EDBF9307F6FFBE95F4
:10D154002A966313C5008280FD1583C71500050553
:10D16400A30FF5FEFDB7AA87014581CF09CE3E96F0
:10D17400850703C7F7FF6317B700E39BC7FE0545A1
:10D18400828082800145828079719757000093875D
:10D19400275322D4804306D626D24AD04ECE52CC30
:10D1A40056CA5AC85EC662C45DCC37C9C901814B30
:10D1B400175A0000130A4A55975400009384845068
:10D1C4001309F937975A0000938A4A4AB709C0A845
:10D1D400370B40578357240095E35C44639D0B0051
:10D1E40017570000232EF74C032CC4002285EF00B0
:10D1F4007074628499A823A6FB00FDB783270A00F4
:10D204008297838664011C4463DB06063307F5407A
:10D214006367E9089757000023A207468355240053
:10D2240003450400972002E0E78000F85C4058447E
:10D23400A9CF1444B6978386640163C5060063E3EB
:10D244003701DA971CC4A28B3A8449F4975700003B
:10D254009387C7419C4B09476378F706F91717571B
:10D264000000232DF740B250225492540259F2493F
:10D27400624AD24A424BB24B224C45618280E377E8
:10D28400F5F83387F9402A9761B763970B009757EE
:10D29400000023A7E74289BF23A6EB00B1B7D8500B
:10D2A40009CF63DF06003385A74083A70A016376AD
:10D2B400F5009757000023A3A73CA28B404471B705
:10D2C400E3F3A7FECE97C5B79757000023A8073A04
:10D2D40059BF411122C4175400001304243C1C40BC
:10D2E40006C626C24AC091C782979757000023A753
:10D2F400073A5C4091C382971C406390071C975780
:10D30400000083C77754858B95C797570000A38D7A
:10D3140007521757000003475753954763FCE7002C
:10D32400352B9757000083C75752F5178A07A297E2
:10D334009C438297175900001309C9548347C900B5
:10D34400918B99C3EF0050451C4491C38297975425
:10D3540000009384A4369840175600000346163103
:10D364009757000083C7873093961700BA9683D6E1
:10D374000600D5CA9757000083C7472F63EFC70A33
:10D38400975700002384072E1C4063980712975771
:10D39400000083C7B74B91CF9757000083C7F74A64
:10D3A40089EB97570000A383074A973002E0E78090
:10D3B400C05697570000938727359C43638F070E09
:10D3C400B707C0A817570000232AF72A753B9757B9
:10D3D40000009387272FDC53EDC317570000130772
:10D3E400E728184B9757000083C7172F6367F70C7C
:10D3F4001757000003477745954763E0E70C8347D9
:10D40400C900918BDDEB90409756000083C6162629
:10D4140063CBD70A2244B240924402494101172304
:10D4240002E0670043C5850793F7F70F975600009E
:10D43400238EF622E3E6C7F235BF86073E9783556F
:10D4440007002310070097570000239707269757D4
:10D454000000938767249C4317550000034505216A
:10D4640013172500BA979C4382979757000083D7D8
:10D47400A724175700000347671F93C7F7FF7D8D45
:10D484009317170098403E97835707005D8D23102C
:10D49400A7009757000083C7671D91C785071757D3
:10D4A40000002305F71C175700000347271C975754
:10D4B400000083C7B71BE375F7ECB24022449244E3
:10D4C40002494101828013971700329703570700DE
:10D4D4006DF7850735BFAD6737C70040BD07232605
:10D4E400F7200F1000009757000093872718C84FA4
:10D4F40083278726BD66BD0693C7F7FF99836A0510
:10D504002326D7205D8D82804111B7170040985F94
:10D514003AC6945F3247E39CE6FE3245410182807D
:10D524008280011122CC1754000013046433184084
:10D534002AC62EC432C206CE3C4B93F7F7F73CCB37
:10D54400973002E0E780203A18409756000093860F
:10D55400662E3C4B93E707083CCB9C423245A245E0
:10D5640023A00700034715000348250022074208AB
:10D5740042970348050042970348350062084297E2
:10D5840098D703475500034865002207420842978D
:10D594000348450042970348750062084297D8D76C
:10D5A400034795000348A500220742084297034811
:10D5B400850042970348B5006208429798DB034709
:10D5C400D5000348E5002207420842970348C500F6
:10D5D4000345F500429762052A97D8DB03C7150077
:10D5E40003C52500220742052A9703C505002A978B
:10D5F40003C5350062052A9798CF03C7550003C5B4
:10D604006500220742052A9703C545002A9703C5EA
:10D61400750062052A97D8CF03C7950003C5A500F6
:10D62400220742052A9703C585002A9703C5B5003A
:10D6340062052A9798D303C7D50003C5E5002207DE
:10D6440042052A9703C5C50083C5F5002A97E2055C
:10D654002E97D8D3D843759BD8C3D84313671700E4
:10D66400D8C398431367170098C3124698425C4383
:10D67400858BD1E71C4F01452300F6009C429C4F4B
:10D68400A183A300F6009C429C4FC1832301F600B2
:10D694009C429C4FE183A301F6009C42D84F230295
:10D6A400E600D84F2183A302E600D84F4183230329
:10D6B400E600D84F6183A303E60098532304E600F1
:10D6C40098532183A304E600985341832305E6007D
:10D6D40098536183A305E600D8532306E600D85384
:10D6E4002183A306E600D85341832307E600DC53D5
:10D6F400E183A307F600F2406244056182800100E1
:10D70400B5B717570000130727131443411122C458
:10D714009C5E4AC006C6998326C2858B3A841759F3
:10D72400000013092911D1CB9C5E97540000938407
:10D73400641193F7F7F99CDE175700000347E710CD
:10D7440093070008631BF700832709009C4393F7A2
:10D75400070417570000230AF70E83C7040093F742
:10D7640007049DC397570000938707FA9C43829749
:10D774009757000023A0A70E83C7040093F7F70B65
:10D78400175700002300F70C83C7440093F70704DE
:10D794008DE7854717570000A308F70A975700003D
:10D7A4009387070C9C43096798C7130700FC975697
:10D7B4000000238BE608D844F8D31C40985F1183FB
:10D7C400058B09CB985F3D9B98DF05479756000072
:10D7D400238CE606985F1D83058B11CB985F137726
:10D7E400F7F798DF854717570000230FF7048327BF
:10D7F4000900D8430583058B19C7D843759BD8C343
:10D80400D843799BD8C3B24022449244024941018F
:10D814008280397106DE16DC1ADA1ED82AD62ED496
:10D8240032D236D03ACE3ECC42CA46C872C676C44C
:10D834007AC27EC0F935F250E2525253C253325585
:10D84400A255125682567247E2475248C248324E97
:10D85400A24E124F824F216173002030975700006F
:10D86400938707009443975700009387A7FD03C746
:10D874000700058B11CB97570000238707FC9757A8
:10D884000000A38307FC828003C71700058B65F79C
:10D89400F85271FF83C75700DDB71758000013080B
:10D8A400A8F9032708001C5F9583858BD1E709C677
:10D8B4001C5BBD832300F60085CA83270800985BA0
:10D8C4004607935767016356070093E707C0C207EB
:10D8D400C18303970600C207C18709C7BA970947DE
:10D8E400B3C7E7022390F60085CD834715008DCB9F
:10D8F4009756000083C666F593F6060413879700CF
:10D9040089478DCA3A95034705008546994713769A
:10D91400F7066311D60262076187B947634C0700B3
:10D92400832708009C5FED838D8B17570000A300AD
:10D93400F7F281473E8582808547EDBF411122C4BD
:10D9440006C6175400001304A4F1184049E9AE8731
:10D954007453FDFE3E85B28597570000238507EE7C
:10D96400973002E0E78080D3975700009387C7EC95
:10D974009C43B70680009843558F98C3D857719B32
:10D98400D8D797570000A38107EC97570000A38BC3
:10D9940007EA1C40094798C3B7F700E003A707D17B
:10D9A4006D9B23A8E7D003A707D15D9B23A8E7D0ED
:10D9B400730050101440175700001307A7E883475B
:10D9C4002700858B89EB83473700858BD9C7975709
:10D9D4000000238B07E6B2402244410182808D4738
:10D9E4006310F50297570000938707E59C43B70639
:10D9F40080009843558F98C3D857719BD8D75DBF83
:10DA04008547E319F5FAB567BD075CC70F10000039
:10DA14001C400967094698C7130700F89756000089
:10DA24002384E6E217570000130707E114439842E2
:10DA340031830D8B6319C7001307E043F8D33D67A7
:10DA44003D07D8C785BF984231830D8B01E7130783
:10DA54006019EDB71307E01BD5B7FC52ADF3A5BFB2
:10DA64005D7152DC175A0000130A0ADD03270A000D
:10DA740086C6A2C4A6C2CAC04EDE1C439759000083
:10DA84009389C9E217590000130989DD93F7F7E771
:10DA940093E707081CC383A609003707CEFF7D1749
:10DAA4009C46130680022A84F98F9CC683270900AA
:10DAB400130700082800B8CBAE8493051008EFF0D4
:10DAC4006FE0973002E0E78000E2973002E0E78001
:10DAD40000EF83270A009376F41F370FFCFF23A47B
:10DAE4000700984B4E88CA881367F70398CBF84F02
:10DAF400130510F8D285137707E0558FF8CF9843B4
:10DB0400F576FD16758F98C39843B7063300B702B0
:10DB140004001377F7E798C398439303401F7D1FCE
:10DB24001377F7E71367071098C303A70900930F48
:10DB3400800285491C47D58F1CC78327090013071A
:10DB4400900D3400B8CB1149014713533700269385
:10DB54008347030013767700B3D7C740858BDDCFA7
:10DB64009C41832E0800239C07042390070603AEE0
:10DB7400CE02137EDEFF23A6CE0383AE0700137E00
:10DB8400F70793FE0EF833EECE0123A0C70103AED0
:10DB94004702336E5E0023A2C70383AE0800014E22
:10DBA40023A27E0603DA070663074E0303AE0703C8
:10DBB400038A0600135EFE00620E135E8E416358F4
:10DBC400CA0103AE0703135EFE002380C60103DE11
:10DBD4000706137EFE0F03AA4E0663060A0003DA45
:10DBE4008705E37F49FB03AE4702337EEE0123A2A0
:10DBF400C70383870600635CF400034E0300339677
:10DC0400C9001346F6FF3376C6012300C3003E86DF
:10DC140063D3A7002A861315860161850507137748
:10DC2400F70F8506E313F7F3B640264496440649F6
:10DC3400F259625A6161828097560000938646C207
:10DC44009C42D847131617016355060298471316CA
:10DC54001701635006027D57B8D717570000130702
:10DC6400E7A0584F050717560000232FE6A01167B9
:10DC740098C798470D83058B1DC3175700000347AA
:10DC840087BC1367170017560000230EE6BA130764
:10DC940000F8175600002309E6BA214798C79847A9
:10DCA400058B09CF175700000347D7B9136717002F
:10DCB40017560000A308E6B8054798C79847098394
:10DCC400058B09E798470583058B31CF984717568D
:10DCD4000000130626B7175500001305E5B50983A0
:10DCE400058B630307101841184331830D8B75EBC3
:10DCF400AC4B184E93F5050203471700CDCD79EFD1
:10DD040013077006D8CF034706001367170017568A
:10DD140000002309E6B2114798C718415C57F19BEC
:10DD240093E717005CD79C4298479316370163D654
:10DD340006029756000083C626C0C18A1757000002
:10DD4400130747B8C5CE034747071367070297561B
:10DD540000002383E6BE056798C7984793162701FA
:10DD640063D1060217570000034707AE62076187B5
:10DD7400635707000547975600002387E6AC0967F9
:10DD840098C798479316070163D606029756000072
:10DD940083C696BA858A175700001307A7B2ADCE7B
:10DDA400034757071367270097560000A386E6B872
:10DDB400216798C7828029D785456315B700130763
:10DDC400B00689B789456315B7001307F0061DBF70
:10DDD4008D456315B700130730072DB71307500798
:10DDE40015B71307600739BF0347360013671700D9
:10DDF40017560000A309E6A4094739BF834647071D
:10DE04000946BD8A6388C600034747078D463D8B94
:10DE1400E313D7F4114725BF83465707918AC9DA1C
:10DE2400034757071367870041B7397106DE16DCCD
:10DE34001ADA1ED82AD62ED432D236D03ACE3ECCD6
:10DE440042CA46C872C676C47AC27EC0F533F2505E
:10DE5400E2525253C2533255A25512568256724759
:10DE6400E2475248C248324EA24E124F824F2161BD
:10DE740073002030175700001307C79E8346B7016D
:10DE84009757000083C7D7A04C4BB697FD8B33D769
:10DE9400F50097560000A387F69C97560000A389C7
:10DEA400F69E058B15EF175700000347B79EB3F78F
:10DEB400E702814601471305000233D6E500058ACF
:10DEC4001378F70F19CA6397D70097570000A38BED
:10DED40007998280850693F6F60F0507E31FA7FCD2
:10DEE400828097570000938727829C43011122CC9C
:10DEF4004EC606CE26CA4AC852C456C282979757FF
:10DF0400000093872798804781496305A406BE844F
:10DF1400974700009387077B038767013E89635512
:10DF24000706018D135455009757000083C72795A2
:10DF34009379F501636DF402370AC0A8B70A405714
:10DF4400153F9C449756000083C66693139756006A
:10DF54003E9783076901158C63C507006363470116
:10DF640056979757000023A3E792E37BD4FC16044B
:10DF7400B3693401F24062444E85D2444249B24905
:10DF8400224A924A05618280E37D85F8B707C0A8DA
:10DF940033848740229579B7974700009387C776E3
:10DFA4009C43411122C406C626C28297975700009B
:10DFB4009387478D80476309A406BE849747000072
:10DFC400938747708387670163D80704018D1354CF
:10DFD40055009757000083C7878A6367F404593D47
:10DFE40098449757000083C78789939657003697BC
:10DFF4001D8C9756000023ABE688E372F4FE22449E
:10E00400B2409244175500000345D585814541012E
:10E01400173302E0670023B6E37A85FAB707C0A88E
:10E0240033848740229565B7B2402244924441012B
:10E03400828097570000938767879843B7570200F9
:10E044009387079F83260709139656006358060093
:10E05400832607091396660063440600FD17FDF343
:10E06400828071C5AA870145E9C58D07C207C183AE
:10E07400F19BC207C18313074003636FF70217576D
:10E0840000001307A783084317570000130787826C
:10E0940014436398A602174700001307A762185B8E
:10E0A400014541CB4111C20706C60545DD8D0297E6
:10E0B400B240014541018280174700001307C77F22
:10E0C400D9B70357650035E303574500636FF70479
:10E0D400B306F7402146637CD602032805009386E5
:10E0E40087001D8FAA9661171746000003566658CD
:10E0F4002392E60023A006012393060014C12312F1
:10E10400F500130786FF974600002394E656231371
:10E11400B5009745000083D5C555B387F54017472B
:10E1240000002318F7542105828008419DB701455A
:10E13400828082800DC1974700009387277803A3CC
:10E144000700974700009387E77683A80700814676
:10E154009A8763E31701828003A80700636DF50AB9
:10E16400636BA80A13878700E367E5FE03D667009D
:10E17400216705076317E60003C7718D0507A38BA5
:10E18400E18C974500009385654E03D6470003D77D
:10E194006500239307003297420741831745000027
:10E1A4002319E54C638A6702174500001305C570FF
:10E1B40008416303F50203D5660019ED83D74600D1
:10E1C40023A0060121073E9621062392C600974705
:10E1D40000002390E74AB6879843E30E17F7974663
:10E1E40000009386666D9442E307D7F68356670072
:10E1F400BDF283D64700035647001843A106B296E2
:10E204002392D70098C383D76500A107174700005E
:0CE214002311F7468280BE86C28725BF1A
:10E220009751FF1F938181A217A1FF1F130181DD69
:10E2300017E5FFFF130545DD9725FF1F938585DC57
:10E240001746FF1F1306C6FD63FAC50083220500AB
:10E2500023A0550011059105E3EAC5FE174502000C
:10E26000130585529745FF1F938585FB1386018310
:10E2700063FAC5008322050023A05500110591050E
:10E28000E3EAC5FE138501839785FF1F93854575D6
:10E290006377B500232005001105E36DB5FEFD424F
:10E2A000739002BC8D4273904280B722000093822B
:10E2B000828873A002309722FF1F9382A2D493E238
:10E2C000320073905230971201009382E27F739074
:10E2D0001234730020303D432A876373C30293775F
:10E2E000F700BDEFADE5937606FF3D8ABA960CC305
:10E2F0004CC30CC74CC74107E36BD7FE11E28280C9
:10E30000B306C3408A069702000096966780A6006F
:10E310002307B700A306B7002306B700A305B7007D
:10E320002305B700A304B7002304B700A303B70075
:10E330002303B700A302B7002302B700A301B7006D
:10E340002301B700A300B7002300B700828093F534
:10E35000F50F93968500D58D93960501D58D61B700
:10E36000939627009702000096968682E78086FAA9
:10E370009680C1171D8F3E96E374C3F8A5B7336727
:10E38000B500FD530D8B79E7B7877F7F9387F7F74C
:10E3900010419441B372F6003363F600BE92B3E2CB
:10E3A00062006397720C6318D6065041D441B37271
:10E3B000F6003363F600BE92B3E262006398720A1D
:10E3C000631BD60410459445B372F6003363F60020
:10E3D000BE92B3E262006391720A631ED602504598
:10E3E000D445B372F6003363F600BE92B3E2620026
:10E3F000639A72086311D60210499449B372F60009
:10E400003363F600BE92B3E2620063937208510573
:10E41000D105E30FD6F61317060193970601631C87
:10E42000F7001357060193D706013305F74093759C
:10E43000F50F91E982804183C1833305F7409375DD
:10E44000F50F91E182801377F70F93F7F70F3305FC
:10E45000F74082800346050083C605000505850553
:10E460006313D60065FA3305D64082801105910505
:10E47000E312D6FE014582802105A105E31CD6FCEE
:10E48000014582803105B105E316D6FC0145828045
:10E490004105C105E310D6FC01458280130101D17D
:10E4A0002E86AA85E8192326112E2324812E2322C5
:10E4B000912E2320212FEFD080021305D10FEFB032
:10E4C000313993150501C1811305D10FEFD0A00D8E
:10E4D00097F50100938505401305D10FEFC09051CA
:10E4E0000DC9054597F501009385453FEFC01032F2
:10E4F0001775FF1F0345458CEF50D07D8320C12E3B
:10E500000324812E8324412E0329012E1301012F80
:10E51000828097F501009385A53D1305D10FEFC0CB
:10E52000704D19CD97F501009385053D0545EFC068
:10E53000F02D1775FF1F03452588EF50707C7DBFB8
:10E5400097F501009385453C1305D10FEFC0904A24
:10E550000DC1371700408327C70AA16697F5010050
:10E560009385053BD58F2326F70A2545EFC0102A52
:10E5700071B797F501009385653A1305D10FEFC088
:10E58000704711CD371700408327870AA16697F59A
:10E59000010093852539D58F2324F70AF9B797F51C
:10E5A00001009385A5381305D10FEFC0B04411CDFC
:10E5B000371700408327C70A97F501009385C537B1
:10E5C00093E707402326F70A4DB797F50100938597
:10E5D000A5371305D10FEFC0F04111CD371700401B
:10E5E0008327870A97F501009385C53693E707408F
:10E5F0002324F70A9DBF97F501009385A5361305DF
:10E60000D10FEFC0303F11CD371700408327870C63
:10E61000896697F501009385A535D58F2324F70CDE
:10E62000A9B797F50100938565351305D10FEFC0A4
:10E63000703C11CD371700408327C70C896697F5CA
:10E64000010093856534D58F2326F70C39BF97F5E4
:10E650000100938525341305D10FEFC0B03911CDDA
:10E66000371700408327870C97F501009385053302
:10E6700093E707402324F70CCDBD97F50100938560
:10E6800065321305D10FEFC0F03611C59767FF1F34
:10E6900023A40774A5B597F501009385653113058B
:10E6A000D10FEFC0303501C5EF60206081BD97F517
:10E6B00001009385A5301305D10FEFC0B03301C51C
:10E6C000EF60005F25BD97F501009385E52F1305E9
:10E6D000D10FEFC0303201C5EF60C05C05B597F5D2
:10E6E00001009385252F1305D10FEFC0B03001C570
:10E6F000EF90F01D21B597F501009385252E1305A8
:10E70000D10FEFC0302F09C50545EF90902FFDB315
:10E7100097F501009385052D1305D10FEFC0902DBE
:10E7200019C10145DDB797F501009385252C130527
:10E73000D10FEFC0302C0DC10564130504808D4549
:10E74000EF00C17D371700408327870C1304048036
:10E750005D8C2324870C5DB397F501009385852993
:10E760001305D10FEFC010290DC1056413050480F6
:10E770008D45EF00A17A371700408327C70C13049B
:10E7800004805D8C2326870C95BB97F5010093854B
:10E79000E5261305D10FEFC0F02515C58D451305EE
:10E7A0000008EF00A177371700408327870C97F503
:10E7B00001009385A52493E707082324F70C25453A
:10E7C000EFC0101B25BB97F501009385A52313050A
:10E7D000D10FEFC030221DC18D4513050008EF0099
:10E7E000E173371700408327C70C97F50100938525
:10E7F000652193E707082326F70CD1B797F50100A9
:10E800009385C5201305D10FEFC0D01E09CD7166C9
:10E8100097D600009386A6E8130606208545014595
:10E82000EF803000E1B997F501009385A51E13052F
:10E83000D10FEFC0301C11C9716697D600009386C6
:10E8400006E6130606208145D9BF97F5010093859A
:10E85000251D1305D10FEFC0F01919CDEFD0D03819
:10E86000EFA0017C2A86AE86254597F501009385A9
:10E87000A51BEFC0F00F59B197F501009385851BDB
:10E880001305D10FEFC0101739C513064006814597
:10E890006808913413064006814508012D3C930613
:10E8A00051171306911397F50100938525196808F0
:10E8B000EFB081746808EFB0A179AA8510016808EB
:10E8C000EFF0306C100197F501009385A5172545F1
:10E8D000EFC0100A25B197F50100938525171305A0
:10E8E000D10FEFC0301129C11756FF1F1306F67C58
:10E8F00097150200938545D72545EFC070079755BA
:10E90000FF1F9385257C1755FF1F1305157B175691
:10E91000FF1F1306B67BEFF0605B1565814513059D
:10E9200075C4EFF0301ED9BE97F5010093854512EE
:10E930001305D10FEFC0100C35C597F70100938771
:10E94000E7F79843DC43930540063AC93ECB97F777
:10E950000100938727F79843DC4308013AC53EC777
:10E9600097F70100938747F59C433ED58547A30958
:10E97000F10A97F70100938767F59843DC433ACD96
:10E980003ECFB7171609938757913EC18D6793877E
:10E99000A7402312F108EFF0C06811658145130507
:10E9A000057541B797F501009385C50A1305D10F89
:10E9B000EFC050043DCD938701829043D4439387A9
:10E9C00081829843DC4332CE36D03AC13EC332C452
:10E9D00036C63AC83ECA014417F901001309C907EF
:10E9E000A1443C00A29703C60700CA85254505043B
:10E9F000EFC00078E31794FE014417F901001309F2
:10EA0000A905A1441C08A29703C60700CA8525458D
:10EA10000504EFC0E075E31794FE4247D247224653
:10EA2000B24697F50100938565032545EFC0407414
:10EA3000F1B40346D10FA547130606FD1376F60F72
:10EA4000E3EEC7AA9767FF1F2380C73897F5010039
:10EA500093850502B5BD411106C6EF70B05CB240AA
:10EA6000AA8617F70100130727BF1756FF1F1306C3
:10EA7000661297F50100938565BF114541016FC08E
:10EA8000206F317122DD4AD906DF26DB4ED752D501
:10EA900056D35AD103470500930710042A892E84C0
:10EAA0006318F73E03471500930740056312F73ECE
:10EAB000034725009307E005631CF73C2E86AA85D3
:10EAC0002545EFC0C05F1306D003A2854A85EFC07D
:10EAD000A078AA84635A05003546A2854A85EFC00E
:10EAE000A077AA84634505089389D4FF9307100390
:10EAF00063CF37074E86930539006808EFB0215978
:10EB00001C11BE9917FA0100130A0AD1238E09F6C7
:10EB1000D28A8149514B83254A006808EFC0806D35
:10EB20000DC18E09D69983D709004D47636FF70051
:10EB300017F70100130747AD8A07BA979C43BA97A6
:10EB400082878509210AE39869FD97F5010093857D
:10EB5000E5CB254529AA9305F4FF858D138514007F
:10EB6000C20581460146C1814A95EF20B007FA509F
:10EB70006A54DA544A59BA592A5A9A5A0A5B29618C
:10EB800082809305F4FF858D13851400C205C18131
:10EB90004A95EFF0BF90E1BF1306F4FF058E138591
:10EBA00014004206418297F501009385A5734A95AA
:10EBB000EFC000781764FF1F1304041F39C597F5D1
:10EBC00001009385E5AB8808EFB061478808EFB096
:10EBD00021481316050141828C081755FF1F1305A4
:10EBE0006585EF80300197F501009385E5AA114511
:10EBF000EFC0C0411C40414593E717001767FF1F56
:10EC00002324F71AEFD080019DB797F50100938573
:10EC100065A91145EFC0803F7D55EFD000031C4032
:10EC2000F99B1767FF1F2321F71891B72D3581B77F
:10EC30001306F4FF058E138514004206418297F5F2
:10EC400001009385256A4A95EFC0806E9767FF1F84
:10EC5000938787159C4319CD93E717001767FF1F0C
:10EC60002324F71497F50100938585A41145EFC07F
:10EC7000E039F5BDF99B1767FF1F2327F71297F5BA
:10EC800001009385A5A3DDB7EF70A07C9767FF1FF8
:10EC900093878711A847EFA0A138AE862A8697F5FB
:10ECA0000100938565A21145EFC0804CC9B5EF50B6
:10ECB000302A75BD17F601001306466397F501006B
:10ECC000938545A11145EFC0A04A55B5EF70B03905
:10ECD00097F501009385C5A051F997F5010093853B
:10ECE00025A169B70D45EF90E027AA84EFA0413335
:10ECF0002A86AE86254597F501009385A5A0EFC02D
:10ED0000204797F70100938767978843A685175494
:10ED1000FF1F13046408EF90910D2322A426EF70C7
:10ED2000D03A03254426EFA0A12FAE862A8697F578
:10ED300001009385E59D85BF81450D45EF50105F2E
:10ED4000EF70902D2A8697F501009385259F9DBF32
:10ED500081452D45EF50905D814513055004EF50DE
:10ED6000F05C97F501009385659E3145EF50105C8E
:10ED7000EF70F02A2AC4EF70502BA2462A8717564C
:10ED8000FF1F130626E197F501009385659C114549
:10ED9000EFC0003EE9BB1757FF1F0357E725975603
:10EDA000FF1F938676091756FF1F1306A6DE97F5F9
:10EDB00001009385259CE1BF85471757FF1F230559
:10EDC000F724EF70903097F501009385E59B79BDAE
:10EDD0001757FF1F03474723854797F50100938582
:10EDE000259BE315F7E8C5B79767FF1F9387C7FB18
:10EDF000E843EFA0E122AE862A8697F501009385CD
:10EE0000A59955B5B717004083A7470A97F50100A4
:10EE10009385C59913973701E34A07E497F50100F5
:10EE20009385C59AA1B5138514004A95EFA00148B2
:10EE3000AE892A899764FF1F938404F7EFD0C05AE4
:10EE4000A8D4EFD0605A2A84CE854A85EFA0012845
:10EE5000A285EF90115F9757FF1F9387E7F323A4D5
:10EE6000A7282A84EFA0C11B2EC6AC542AC4228531
:10EE7000EF904141EFA0C11A2247B2472A86AE86E1
:10EE8000114597F501009385A596EFC0602EC5B199
:10EE90002286CA851745FF1F1305C559EF80805587
:10EEA000F9B1411122C421649305048099460146B9
:10EEB000254506C69720FF1FE780E0E693050480FE
:10EEC0002244B24099461386018329454101172304
:10EED000FF1F670043E599E10145828075DD01115F
:10EEE00052C403DA418326CA93548A008504A204DB
:10EEF000C204C18056C2B38A4441C20A22CC4AC865
:10EF00002E862E842A8997F501009385A5D2254562
:10EF100093DA0A014EC606CE93890183EFC04025DD
:10EF200063ED8A0883D5418393F7F50FB1CF8D67E1
:10EF300083D5418393870780A2864A86BE9529455B
:10EF40009720FF1FE78020DE1375F50F29ED83D78B
:10EF500049001566A297239AF18203D7418383D78C
:10EF600021836309F70063F3E700B297998F139643
:10EF700007014182254597F50100938525CDEFC016
:10EF8000201F1375F40F0DA08D67938707809306DC
:10EF900000100146BE9525459720FF1FE780A0D8A9
:10EFA0001375F50F49D50145F2406244D2444249F8
:10EFB000B249224A924A05618280B3079440D297AF
:10EFC000C207C183A18303C74900850793F7F70FE1
:10EFD0009396870011EB9386170093740AF0A206AC
:10EFE000C204C206C180C18283D7218363F6F400C4
:10EFF00033879600E3C9E7FA0D6A130A0A800146CF
:10F00000B385440125459720FF1FE780C0D11375C4
:10F01000F50F51F983D54183A2864A86D29505B76B
:10F02000411122C41384018322858145194606C6F5
:10F030009720FF1FE78040099307B0FA2300F400F0
:10F040008D352244B24097F50100938525B72545BB
:10F0500041016FB0B07BA1654111994613860183D0
:10F06000938505802D4506C69720FF1FE780A0CB1E
:10F0700003C701839307B00A6303F7005537B24013
:10F0800083D6418303D6218397F501009385C5B3C9
:10F09000254541016FC0C00D130101BD23229142DE
:10F0A000232611422324814223202143232E314150
:10F0B000232C414183D7818E814481CB83D4A18E7F
:10F0C00063E5F40223A4018E81448320C14203241A
:10F0D0008142268503290142832441428329C1417B
:10F0E000032A8141130101438280B384974093072F
:10F0F0008002B3D4F40293F4F40F81E42394018EDC
:10F10000E9B7054697F50100938505B62545EFC09B
:10F110002006014481441389C18EA149254A83D721
:10F12000A18E1757FF1F0347B7DD8DC49387870252
:10F130002395F18EA147631EF704A2850808EF40CE
:10F14000E06903D7A18E83D7818EE360F7F823A40B
:10F15000018EA5BF1408CA9733858600631E370148
:10F16000BE85EF4050072317A1008357E100854477
:10F170003E944204418065B763164701BE85EFF0B7
:10F180006030D5B7AA851306E1003E85EF9050693F
:10F19000E9BFA54722860C086316F7001545EFE086
:10F1A000504845B70145EF60A07D61BF011106CE13
:10F1B00022CC26CA4AC84EC652C499E901442285C7
:10F1C000F2406244D2444249B249224A05618280F7
:10F1D000AA896DD583D7418303D621832E84956474
:10F1E000638AC7006374F60015673A961D8E931400
:10F1F0000601C180268697F501009385259925454E
:10F20000EFB01077938714F06356F4009307F00F74
:10F2100063EA970097F501009385C5982545EFB0FF
:10F22000307569BF83D44183B3878400156A63470F
:10F23000FA00A2854E854531AD3151B715693309C4
:10F240009940420913590901CA854E85693109E57A
:10F2500083D74183E39447F7ED75A695A295C20540
:10F26000239A0182C18133852901F1B783D6818E2A
:10F2700081EA97F501009385659925456FB010598E
:10F2800003D6A18E4111918E97F5010093850599C2
:10F29000254506C6EFB0D06D1387818E83550700D4
:10F2A00083D7A18E1385C18E9D8DC2053E95C181E8
:10F2B000F53DB24023A4018E41018280411183D7E4
:10F2C000818E22C426C206C6AE971307001EAA84EA
:10F2D0002E84635AF700593F97F501009385C59036
:10F2E0002545EFB0B05283D7818E1385C18E22861B
:10F2F000A6853E95EF90B17E03D6818E229642067A
:10F300002244B240924441822394C18E97F5010079
:10F310009385058F254541016FB09065011126CA7F
:10F3200006CE22CC4AC84EC652C456C2814451C1F0
:10F33000C9C183D7218303D44183638C870663F4D7
:10F3400087081D8C42044180AE892A89228697F560
:10F350000100938525800145EFB09061A28463F39D
:10F360008900CE84C2040D6A83D7218303D74183E9
:10F37000C180938A0183130A0A8063F9E704A68691
:10F380004A86B38547012D459720FF1FE780A09946
:10F3900083D72A00A6972399F182213683D6418309
:10F3A00003D6218397E501009385057C2545EFB0C1
:10F3B000305CF240624426854249D244B249224A36
:10F3C000924A0561828015673A94A5BF15671D8F23
:10F3D000B385470163D5E400A6864A866DB7956973
:10F3E000B389F9406D743E94C20993D909012694FA
:10F3F000CE864A8642042D459720FF1FE780A092C3
:10F400004180A28633063901D2852D452399018298
:10F410009720FF1FE780209183D72A003E942399ED
:10F420008182A5BF130680078145138581EF1723CD
:10F43000FF1F670063C9397126DA4AD84ED652D405
:10F4400056D25AD006DE22DC62CE66CC2A89EFA0E4
:10F4500031409374F50F8149254BE54A17FA0100B5
:10F46000130ACA8191ECF25062544E85D25442592B
:10F47000B259225A925A025B724CE24C216182804C
:10F4800003470900930707FD93F7F70F637CFB0021
:10F490009307F7F993F7F70F63E2FA06930797FAE2
:10F4A00093F7F70F139487016184FD1423008900FB
:10F4B0002685EF80914F2A86AE8603250A00832594
:10F4C0004A0093F4F40F0509EF00F11B2AC42285CA
:10F4D0002EC6EF80914D2246B246EF70B17D2A8C48
:10F4E0004E85AE8CEF8091532A86AE866285E68586
:10F4F000EF702111EF80B145AA89ADB79306F7FBF4
:10F5000093F6F60F8147E3EFDAF8930797FC49BFCC
:10F51000411122C406C6830795022A8499C71305A0
:10F520009502EF9011592385A1F28307D41291CB54
:10F530001305D412EF909157EF905139938781EFD3
:10F54000C8D3B24022444101828041114AC013090C
:10F55000150022C497E501009385C5792A844A8560
:10F5600026C206C6EFB01051854419E997E501009F
:10F57000938585784A85EFB0F04F63010510894483
:10F580008307D4036386070E13059402EF9071522C
:10F590008947638AF4108D476380F41E8547639919
:10F5A000F40C1305D403EF90D150A386A1F283C7C6
:10F5B000818399EB794681451385F1F4238C9182FF
:10F5C000A38C0182EFE03FD10307D4089307000327
:10F5D0006301F7021305D408EF90B14D03C791837F
:10F5E00093071700A38CF182938781EFBA97A38BBF
:10F5F000A7040307D40D930700036301F702130563
:10F60000D40DEF90114B03C7918393071700A38C80
:10F61000F182938781EFBA97A38BA7040307D412D3
:10F62000930700036301F7021305D412EF907148AA
:10F6300003C7918393071700A38CF182938781EF0F
:10F64000BA97A38BA7040307D4179307000363019A
:10F65000F7021305D417EF90D14503C791839307A1
:10F660001700A38CF182938781EFBA97A38BA7042D
:10F67000B2402244924402494101828097E5010050
:10F680009385C5674A85EFB0F03EE31A05EE97E52E
:10F6900001009385E5664A85EFB0D03D8144E301E2
:10F6A00005EE8D44F1BD1305D403EF9091402387FF
:10F6B000A1F283C7718381EF854779468145138520
:10F6C00011F3A38BF182238B0182EFE0DFC00307EC
:10F6D000D408930700036301F7021305D408EF90E1
:10F6E000513D03C7618393071700238BF1829387F2
:10F6F00081EFBA97A38CA7020307D40D93070003E9
:10F700006301F7021305D40DEF90B13A03C761838B
:10F7100093071700238BF182938781EFBA97A38C0D
:10F72000A7020307D412930700036301F70213052E
:10F73000D412EF90113803C7618393071700238B0E
:10F74000F182938781EFBA97A38CA7020307D4179E
:10F7500093070003E30EF7F01305D417EF9071350C
:10F7600003C7618393071700238BF182938781EF8F
:10F77000BA97A38CA702EDBD1305D403EF907133A4
:10F78000A387A1F2F5B5411122C406C683079507E8
:10F790002A8499C713059507EF90B131A385A1F28B
:10F7A0008307D40899C71305D408EF9091302386B6
:10F7B000A1F28307540B91CB1305540BEF90112F3B
:10F7C000EF90D110938781EF88D7B2402244410156
:10F7D0008280011126CA8146B284014652C456C2B3
:10F7E00006CE22CC4AC84EC62A8AAE8AEF70B12F06
:10F7F00041CD9307E0046386F400930730056395D9
:10F80000F40897E901009389E94C03A6090083A64F
:10F8100049005285D685EF70F14937949800EF8002
:10F820001113130404682A8933758502EF80111FB0
:10F8300003A6090083A64900EF70A14F97E70100D6
:10F840009387C7499043D443EF70A14E2A8A33551A
:10F850008902AE8AEF80911C2A86AE865285D685B3
:10F86000EF60315A13073005AE876395E400B707A0
:10F870000080AD8FF2406244D2444249B249224AEC
:10F88000924ABE850561828001458147E5B7011135
:10F8900026CA8146B284014652C456C206CE22CC44
:10F8A0004AC84EC62A8AAE8AEF70F12341CD93072B
:10F8B00050046386F400930770056395F40897E994
:10F8C00001009389294103A6090083A649005285B6
:10F8D000D685EF70313E37949800EF8051071304BE
:10F8E00004682A8933758502EF80511303A6090045
:10F8F00083A64900EF70E14397E701009387073E35
:10F900009043D443EF70E1422A8A33558902AE8A8C
:10F91000EF80D1102A86AE865285D685EF60714E73
:10F9200013077005AE876395E400B7070080AD8FBD
:10F93000F2406244D2444249B249224A924ABE85C8
:10F940000561828001458147E5B7135785009357CC
:10F95000050113D885009376F50F01111377F70F82
:10F9600093F7F70F618593F5F50F1378F80F99C2A8
:10F9700011C3B9E3230CD100A30CE100230DF10066
:10F98000A30DA10003459101834781010347A10114
:10F990002205A30E01014207C98F230EB1000345C2
:10F9A000B101D98F0347D1018345C1016205220707
:10F9B0005D8DD98D0561828032951375F50F131316
:10F9C0008501135383415D4663576608614633637F
:10F9D000C30285071376D70F114593F7F70F630519
:10F9E000A6002545631AA6007946637FF60205073F
:10F9F0001377F70F85470DA809466312C7041386CE
:10FA0000067D93084006B36816036385080013F566
:10FA1000360011C5130500193366A60219EE7546A6
:10FA20006374F60085470D47230CD100A30CE10059
:10FA3000230DF100A30D6100B1B77146D5B77D4626
:10FA4000E374F6FEB147E314F7FA850693F6F60F72
:10FA500085470547D1BFE35903FC6105FD17131323
:10FA6000850193F7F70F13538341DDFF7D1713775C
:10FA7000F70F1146F947E309C7FA1946E306C7FA33
:10FA80002546E303C7FA2D46E300C7FA8947631604
:10FA9000F7021386067D93074006B367F60291C707
:10FAA00093F83600F547E38108F893070019B36728
:10FAB000F60293B71700F10785BFFD4735F7FD162E
:10FAC00093F6F60F31478DB78347150003470500BE
:10FAD0000111A2075D8F83472500834635008345CA
:10FAE0004500C207D98F0347550022CC1744FF1F9A
:10FAF0001304842A03067424E206220733E5F60081
:10FB0000D98D06CE9935135885001356050193D724
:10FB1000850013F7F50F93F7F70F935685011376CA
:10FB2000F60F9375F80F1375F50FEF80E01C834700
:10FB30001400054793F7B70F6397E7006244F2405C
:10FB400005616F80E02AF24062440561828049715C
:10FB500081451306C012481023248116232611164E
:10FB60002322911623202117232E3115138481EF90
:10FB7000EFE06FF68307640097E501009385851E2B
:10FB8000B9C383073403054797E501009385051939
:10FB9000638BE702094797E501009385E5186384C5
:10FBA000E702114797E5010093850519638DE7008A
:10FBB000154797E501009385E5186386E70097E50B
:10FBC00001009385A5184810EFA061474810EFA0E9
:10FBD000214883073400441083C8D1EF03C8C1EF24
:10FBE00003C7A1EF83C691EF03C681EF97E501003C
:10FBF000938505182695EFA021404810EFA04145B8
:10FC000018485C48030604033AC03EC203081403C4
:10FC10005C441844541097E50100938565173695A8
:10FC2000EFA0813D4810EFA0A1425C103E958307F4
:10FC3000640017E601001306660D89E717E6010068
:10FC40001306460D97F50100938545DBEFA0C13AF9
:10FC50004810EFA0E13F544C104C5C1097E50100B8
:10FC6000938505143E95EFA021394810EFA0413E41
:10FC7000030634035C103E9597E501009385051358
:10FC8000EFA081374810EFA0A13C03072403AA840A
:10FC900048503ACE138481EFEF90813872475C1060
:10FCA000AE862A8697E50100938545113385970036
:10FCB000EFA081344810EFA0A1395C1003C6C1F257
:10FCC00097E50100938505113E95EFA0E1324810BC
:10FCD000EFA001385C1097E501009385A5103E95D3
:10FCE000EFA0E135138961F1A28497F901009389AE
:10FCF000E9F403C6740519CA481032CEEFA04135A5
:10FD000072465C10CE853E95EFA0012F8504E3126C
:10FD100099FE4810EFA0C1335C1097E50100938570
:10FD2000E50C3E95EFA0A13197F40100938404F116
:10FD30000346940319CA481032CEEFA061317246CF
:10FD40005C10A6853E95EFA0212B0504E31289FEE9
:10FD50004C102545EFB0802B8320C116032481165B
:10FD600083244116032901168329C11575618280F8
:10FD7000411122C406C626C2830755012A84B9C789
:10FD8000A946938707FDB387D70203476501130789
:10FD900007FDBA97A38DF1EE03077501834785012F
:10FDA000130707FD3307D702938707FD3E97238E7E
:10FDB000E1EE830795010347A501938707FDB3870C
:10FDC000D702130707FDBA97A38EF1EE83079402BB
:10FDD00081CB130710046399E7148547238FF1EE55
:10FDE0008307D403938481EF99C71305D403EF905D
:10FDF000E14B88C4CCC40306140509CA8844CC442A
:10FE00002384C1F2EFF0FF9C88C4CCC4830754065E
:10FE100099C713055406EF90614988C8CCC80306FA
:10FE2000940709CA8848CC48A384C1F2EFF03FA6E2
:10FE300088C8CCC88307D40899CF1305D408EF909D
:10FE4000E14697E701009387E7EB9043D443EF70D7
:10FE5000616688CCCCCC8307140A99C71305140AB1
:10FE6000EF902145239CA1F08307540BB9C7A94605
:10FE7000938707FDB387D7020347640B130707FD7A
:10FE8000BA97238DF1EE0307740B8347840B130796
:10FE900007FD3307D702938707FD3E97A38CE1EE5A
:10FEA0008307940B0347A40B938707FDB387D702FF
:10FEB000130707FDBA97238CF1EE8385340085671D
:10FEC00003C6C1EF938707E11307C0033307E602B8
:10FED00083C6D1EF1754FF1F130404EDB387F50257
:10FEE000BA97B69723A2F1F2184093778700A5E35B
:10FEF000038564008547631CF50483873403A1CB25
:10FF000083C7A183850793F7F70F238DF18203C57C
:10FF1000A1EF11ED8844CC4401468146EF70A13C2D
:10FF20000DED238F01EEA1A8238F01EE55BDFDD16C
:10FF300075D2EDD29146E3FFF6FC13678700138577
:10FF400081EF9757FF1F23A1E7E6EFF0FFB7238D5F
:10FF5000018283876400DDFFE9B78848CC48014609
:10FF60008146EF70413855DD83C7A1EFDDDB130615
:10FF70008007938581EF138501E8EF90413603C533
:10FF800001B39D4705053365F50213068007938588
:10FF900081EF2388A1B2930780073305F502938789
:10FFA00081B33E95EF90A133EFF07FBA5C58130612
:10FFB00080078145138581EF1757FF1F2324F7E240
:10FFC000EFE06FB1B2402244238C0182A38B018207
:10FFD0009244410182800171232C811E232A911EAB
:10FFE0001306101E2A84AE8468008145232E111E3C
:10FFF0002328211FEFE02FAE8145814701470146AD
:020000021000EC
:100000005148CD485D436340960899C12306F100ED
:100010001306A002A6852285EFB000248347C10005
:1000200051473386A440B387E70293051500780053
:100030007D16A29585073305F700EF90412A130638
:10004000A002A685228503491400EFB0E02089476D
:1000500063C3A7080345C100D1473305F5027C00FF
:1000600005053E95EFF02FBD631CA904194697E5E1
:100070000100938525C71305D100EFB0602B25C57E
:100080006800FD3135A8B306C40003C50600930619
:1000900065FD93F6D60F91EA850793F7F70F636135
:1000A000F302854501470506B9BFB3860703130E62
:1000B000011FF296BA96A38EA6E00507E3D5E8FEE7
:1000C0008320C11F0324811F8324411F0329011F93
:1000D0001301012082803307F400034707008507DE
:1000E0003349E900B5B7194697E501009385C5BFC7
:1000F0001305D100EFB0C02321E5194697E50100B3
:100100009385C5BE1305D100EFB0802219ED1946C5
:1001100097E501009385C5BD1305D100EFB04021DF
:1001200045D16800EFF06FC261BF13063006A285AB
:100130001385C1ACEF90B1756800EFF0CFE449B71B
:100140006800EFF0EFBCADBF757122C526C34AC190
:10015000CEDED2DCD6DADAD806C7AA892E89814467
:1001600001448147130A4002854A354B1397040125
:100170004183636C2701BA402A449A440A49F659DC
:10018000665AD65A465B4961828033879900034795
:10019000070063004703639C5701631D67019C18B8
:1001A000A297A2856800238E07F83535814785041C
:1001B00075BF01449C18A29705041374F40F238E95
:1001C000E7F893373406E5B7411106C6138501B346
:1001D00083470500130780078145B387E7021306AD
:1001E0008007A1073E95EFE00F8FB2408145114592
:1001F00041016FB0B01B138501B38347050013079E
:100200008007B387E702A1073E958280138501E846
:1002100082801385C1AC82809757FF1F9387C7B830
:10022000985B89476305F70023AE0182828093873C
:10023000C1839C43850723AEF1821747FF1F0357F5
:1002400027DA63E3E72083C701B313078007338707
:10025000E702938701B3BA970387E7006306071E97
:10026000317122DD52D556D306DF26DB4AD94ED76F
:100270005AD15ECF62CD66CB6AC96EC703C7C1F8DB
:1002800003AA070183AA4701884FCC4F138401F7C3
:1002900031EF984708C84CC823A8E1F603D7C70038
:1002A000DC5B5286239AE1F623A4F1F88547238686
:1002B000F1F82A87AE87D68697E501009385059FDA
:1002C00025452324440123265401EFA0706AFA50E7
:1002D0006A54DA544A59BA592A5A9A5A0A5BFA4B5A
:1002E0006A4CDA4C4A4DBA4D2961828017E9010007
:1002F00013094999032609008326490097E4010060
:100300009384C49897E901009389C998EF70811A82
:100310009040D440EF60F1212A8BAE8B0326090078
:100320008326490008484C48EF70C1189040D440DB
:10033000EF6031202A8CAE8C2A86AE865A85DE8507
:10034000EF70C16203A6090083A64900EF70811611
:10035000EFF0B00C2A8DAE8D5A85DE85EFF0D0021D
:100360002A8BAE8B6285E685EFF010021044544470
:100370002A8CAE8C5285D685EF70415F032609002A
:1003800083264900EF7001139040D440EF60711A4A
:1003900003A6090083A64900EF70C111EFF0F00732
:1003A0002A84AE846286E6865A85DE85EF708110E7
:1003B0002286A686EF7001102286A686EF70810F36
:1003C0002A84AE846A86EE866A85EE85EF70810E99
:1003D0002A86AE862285A685EF60A122EFF0105D09
:1003E000EFF0F00C2AC42EC625456C08EFA0104291
:1003F0002246B2463285B685EF60A12097E701001C
:100400009387C7899043D443EF70C10A97E70100EF
:10041000938747899043D443EF70C1092A841745D5
:10042000FF1F034565A1AE84EF7031582A86AE8662
:100430002285A685EF60D171E35BA0E80545EFB0AA
:10044000E07D23AE018261B58280914763E3C70AF4
:1004500017E701001307479A0A063A961C42411112
:1004600022C406C6BA972A84828797F5010093852D
:10047000E5231145EFA09039A2851145EFA0103971
:100480002244B240971502009385856D11454101C4
:100490006FA0D037B9CA9747FF1F83C7A7B781C7D7
:1004A0009042EF50805B2244B240014697550000D5
:1004B000938525613D4541016F30305E9DC62244E4
:1004C000C8C2B24003C5A6002394B600368695453F
:1004D00041016F9040082244B24041016FF04061F9
:1004E0002244B24041016F30F01BB240224441012E
:1004F00082808280411106C683C74184214763966A
:10050000E7021747FF1FA30DF79E9737FF1FA38032
:10051000076AEF60803BEF604040EF90B01DEF90C6
:10052000A064B24041016F90505925476397E7009E
:100530001747FF1FA306F79CE9BF9747FF1FA3813B
:10054000079CC1BF05456F70D04B5571581093067D
:10055000310213062102930511029307510213057C
:10056000610286C7EF7020739757FF1F9387C78379
:100570009C43BD9B1757FF1F2328F782EFF0BFC78F
:10058000030305039305E004835661020347110248
:10059000834721020348310283484102034E51023E
:1005A000170602001306C6986316B30017D601009B
:1005B0001306460E830E150313035004032F850004
:1005C000832FC50097D501009385C50C63866E0007
:1005D000970502009385C5950323050183234501F3
:1005E0007AC41ACC1ECE7EC672C02EC832C297E51F
:1005F0000100938565161736FF1F1306A6592810AC
:10060000EF90911FEF9060292810EF90712493874D
:100610000184904393150501938601F92810C18147
:100620002D35BE4069618280411106C623A0B18488
:1006300001C61C4223A8F1F89737FF1F83C73776FE
:1006400085EF0545EFB0707C97E501009385C5897E
:100650002545EFA0B01B9747FF1F9387E7749C4386
:1006600093E707011747FF1F2320F774EF9020221D
:10067000B24041016F40302A05470545639CE700C1
:10068000EFB0B0780545EFB0605997E5010093856C
:10069000E5867DBFEFB070770545EFB0205897E550
:1006A0000100938525876DB7411122C42A848307F1
:1006B000D40306C626C22E8589C71307F0036398A4
:1006C000E7021737FF1F1307F7739736FF1F93864D
:1006D00056701736FF1F1306B66C97E50100938519
:1006E000A58E2244B240924441016F90F110973799
:1006F000FF1FA387076A9737FF1FA38C076C9737E5
:10070000FF1FA3810770034704008547AE8463FA87
:10071000E7009305D4031735FF1F13057568EF90A5
:1007200011128307940791CF03470400894763FAA6
:10073000E700930594071735FF1F13059569EF90A0
:1007400011108307540B91CF034704008D4763FAC0
:10075000E7009305540B1735FF1F1305B56AEF909B
:10076000110E0146974500009385C5541305C0122C
:10077000EF30B032EF6060151737FF1F130797682F
:100780009736FF1F9386F6641736FF1F13065661D0
:1007900097E50100938585852685A1B7411126C27D
:1007A00006C622C4034705008947AE8463F7E70203
:1007B0009305D5032A84130620031735FF1F13055D
:1007C0002557EF90D10C13059407EF80912E9737A2
:1007D000FF1F2391A75CEF60C009EF60800D973683
:1007E000FF1F83D6265B1736FF1F1306665497E557
:1007F0000100938565ED2685EF90110085479735BB
:10080000FF1F938525391735FF1F1305255117370E
:10081000FF1FA309F746EF9091029735FF1F9385BD
:1008200035581735FF1F13050546EF9051019735D1
:10083000FF1F9385155A1735FF1F1305E547EF90E6
:1008400011009735FF1F9385F55B1735FF1F1305C3
:10085000C549EF90C17E97D501009385E5DF173537
:10086000FF1F13050550EF90817DEF60800001466A
:10087000974500009385A5437945EF301022224427
:10088000B240924401469785000093856595130513
:10089000600941016F307020411122C426C24AC054
:1008A00006C68307D503AE8417E90100130909A51D
:1008B0001744FF1F1304444F89C71307F0036391C4
:1008C000E7041735FF1F03451557EF70110E032678
:1008D000090083264900EF60C145EF80217F68C48D
:1008E000EF800174AE862A8697E50100938585A185
:1008F0002244B24002492685924441016F90C16F63
:100900001305D503EF80F11A9737FF1FA385A75270
:100910001375F50FEF70710903260900832649004E
:10092000EF602141EF80817A68C4EF50107A68440B
:10093000EF80016FAE862A8697E501009385859E3C
:1009400045BFAA870387D7032E8509C79306F003FF
:100950006315D7029737FF1F83C7574417E6010077
:100960001306869789E717F601001306A6C597E5D3
:1009700001009385E5976F90216841111385D70396
:1009800006C622C42E84EF80D1129737FF1FA3879B
:10099000A740EF5090739737FF1F83C7374097E505
:1009A00001009385E59389E797E501009385C59359
:1009B00022852244B24041016F906168411126C2F4
:1009C00006C6AA8422C48387D4032E8589C7130749
:1009D000F0036396E7049737FF1F83C7573C05472B
:1009E0006385E70289CB09476386E702B240224468
:1009F00092444101828097E50100938565A22244DB
:100A0000B240924441016F90816397E50100938564
:100A1000A5A3F5B797E501009385C5A5CDB7938448
:100A2000D4032E84268597E501009385A5A7EF9032
:100A300041681DC189471737FF1FA302F73697E5A5
:100A40000100938565AA2285EF90615F2244B24040
:100A5000924441016F5070672685EF8091051375B0
:100A6000F50F9737FF1FA38CA732854797E5010045
:100A7000938585A5E309F5FC97E50100938505A31A
:100A800079D18947E30DF5FA1737FF1FA309F7302E
:100A900097E50100938585A77DB741112E8597E5E0
:100AA0000100938525AA06C6EF9061590146974536
:100AB00000009385C51F7945EF30207EB240014686
:100AC000977500009385C5711305600941016F306A
:100AD000C07C411122C426C206C68307D503AE845A
:100AE0001734FF1F1304442B89C71307F003639BBC
:100AF000E7028306742417E601001306E6C063D6F6
:100B0000060017D601001306E6B8268597E5010012
:100B10009385C5BFEF90414E2244B24092444101BB
:100B20006FA0302B1305D503EF80A1789737FF1FF7
:100B3000A387A74AEFA0F0290306742497E50100D4
:100B4000938585BE2545EFA0A06283477424614745
:100B5000B10793F7F70F6377F700A1471737FF1F28
:100B6000A30FF746EF5070568306742417E6010072
:100B7000130686B963D6060017D60100130686B1A0
:100B80002244B2402685924497E50100938545BAF8
:100B900041016F906146797122D49307D1012E846F
:100BA00078089306B1011306A1019305910113057D
:100BB000E10106D626D24AD0EF70E00D8348D1017C
:100BC0000348C1018347B1010347A1018346910155
:100BD0000356E10197D501009385C55A2285EF9010
:100BE000A1412285EF90C1469744FF1F9384C41B07
:100BF000CC5803A8C4030566130606E133F3C50207
:100C00009306C0032295B378C802B377D80233F7AE
:100C1000D5023EC09C58B3D8D8023358C802B35648
:100C2000D30233D6C50297D501009385E557EF90DF
:100C3000A13C2285EF90C1413309A400EF90F073ED
:100C400017D601001306C65309C517D601001306AF
:100C5000E65297D50100938525594A85EF90C13911
:100C60002285EF90E13EB717004003A6470C973668
:100C7000FF1F83C6664197D501009385E5575D82C6
:100C8000058A2295EF9041372285EF90613C904094
:100C90009746FF1F83D6861197D501009385455748
:100CA0002D82058A2295EF9021352285EF90413AD9
:100CB00003966402229597D501009385A556EF907F
:100CC000A133B25022549254025945618280AA87BE
:100CD0000387D7032E8509C79306F0036311D70254
:100CE0009737FF1F83C7C70B97D50100938545240E
:100CF00089E797D501009385A5266F90413441116E
:100D00001385D70322C406C62E84EF80815A13753B
:100D1000F50F9737FF1F2385A7081737FF1F0347D6
:100D2000B70789476316F7000DE91145EFA0106F6B
:100D30009737FF1F83C7C70697D501009385C52343
:100D400089E797D50100938565262285EF90212FAD
:100D50002244B24041016F5050371145EFA0F06E70
:100D6000C1BFAA870387D7032E8509C79306F0035F
:100D7000631ED7029737FF1F83C767020547638D3E
:100D8000E70089C70947638EE700828097D5010095
:100D9000938585286F90A12A97D501009385052C0E
:100DA000D5BF97D5010093852531EDB74111138546
:100DB000D70322C406C62E84EF80A14F1375F50F0A
:100DC0009737FF1F238DA7FC854797D50100938593
:100DD000E5286306F50297D501009385E52305C153
:100DE000894797D501009385252D630AF5001737AC
:100DF000FF1F2306F7FA97D501009385A5312285B9
:100E0000EF90E1232244B24041016F50102CAA8799
:100E10000387D7032E8509C79306F003631CD70009
:100E20001736FF1F0346460197D5010093854545B8
:100E30006F90811C41111385D70306C622C42E84EE
:100E4000EF80A1479737FF1F2388A7FEEF50F027B9
:100E500022852244B2401736FF1F0346E6FD97D590
:100E60000100938525444101E1B7411122C41305D6
:100E700050042E84814506C6EF30504BEF50F01AD7
:100E80002A8622852244B24097D5010093850544E5
:100E900041016F906116411122C41305D5032E84C0
:100EA00097D501009385C53806C6EFA0A03C11CDAB
:100EB0000145EF50102C97D50100938525382285E8
:100EC0002244B24041016F9081170545EF50702ACE
:100ED00097D5010093854538DDB7411122C42A8496
:100EE0008307D40306C626C22E8589C71307F003DD
:100EF000639CE7029737FF1F938777FD1737FF1F24
:100F00001307D7F99736FF1F83D6A60E1736FF1F94
:100F10001306B6F597D50100938505652244B240C6
:100F2000924441016F90410DAE841735FF1F1305A8
:100F3000D5F39305D403EF9081101735FF1F1305E8
:100F4000D5F2EF90E11093150501C1811735FF1F10
:100F50001305B5F1EFA0E0688307940789CB13056B
:100F60009407EF8001359737FF1F2394A708830765
:100F7000540B85CB9305540B1735FF1F130515F242
:100F8000EF90E10B1735FF1F130555F1EF90410C62
:100F900093150501C1811735FF1F130535F0EFA02B
:100FA00040648307140F85CB9305140F1735FF1F7B
:100FB0001305F5F1EF90A1081735FF1F130535F163
:100FC000EF90010993150501C1811735FF1F130526
:100FD00015F0EFA00061EF50500F9737FF1F938778
:100FE00017EF1737FF1F130777EB9736FF1F83D6CF
:100FF00046001736FF1F130656E797D50100938565
:10100000E557268521BFAA870387D7032E8509C701
:101010009306F003631CD7001736FF1F035646FCE8
:1010200097D501009385C5676F80117D41111385A8
:10103000D70306C622C42E84EF80A127131605010C
:101040009737FF1F239EA7F8418297D5010093850C
:1010500065662285EF80517A9737FF1F83C7D7D304
:1010600009476388E700ED1793F7F70F0547636AB1
:10107000F7009737FF1F83D7A7F689EB0945EFA045
:10108000D03C2244B24041016F503004EFA0302ADE
:1010900075D51737FF1F0357A7F493079005E3EFA4
:1010A000E7FC0945EFA09037E9BFAA870387D7037C
:1010B0002E8509C79306F0036313D7069737FF1FE2
:1010C00083C7A7F405476389E70289CF0947638E81
:1010D000E7020D476380E70497D5010093854555E6
:1010E0006F80F17517D601001306464B97D50100A6
:1010F0009385454C6F80517017D601001306464CFE
:1011000097D501009385C54CF5B717D60100130696
:10111000A64EFDB717D601001306464FD5B74111AD
:101120001385D70322C426C206C62E84EF80611819
:101130001375F50F9737FF1F2389A7EC85446302CA
:1011400095041DC18947630AF5048D47630CF504B6
:1011500097D501009385C5512285EF80516E973751
:10116000FF1F238497EA01A897D501009385C54CFA
:101170002285EF80D16C2244B240924441016F50ED
:10118000C07417D601001306A64397D501009385B6
:10119000E54B2285EF805166F9BF17D60100130693
:1011A000A645E5B717D6010013064646F9BF1971E3
:1011B000A2DCA6DA2A84AE841306500681452800F4
:1011C00086DEEFD04F918307D40389C71307F0035E
:1011D0006396E7069737FF1F83C717E3A9C79738BA
:1011E000FF1F9388B8DC1738FF1F1308F8DA97370A
:1011F000FF1F938747E61737FF1F1307A7E29736AE
:10120000FF1F83D686DF1736FF1F1306D6D597D567
:101210000100938565152685EF80115EF6506654B2
:10122000D654096182806654F6502685D65497D5E7
:1012300001009385251809616F8071601305D4033F
:10124000EF802107630205189747FF1F9387C7B5F3
:101250009C5B99C3EF90A0350545EF90102485471E
:101260001737FF1FA302F7DA8307940795C7130602
:10127000200381451735FF1F1305F5CE9700FF1F8B
:10128000E78080E413062003930594071735FF1FBA
:10129000130575CDEF80B15F8307540B89CB130520
:1012A000540BEF8001019737FF1F2398A7D48307C2
:1012B000140FA9C31306200381451735FF1F13051B
:1012C00065D69700FF1FE78020E0130620038145C5
:1012D0001735FF1F130595CD9700FF1FE780C0DE70
:1012E000130620039305140F1735FF1F130585D32D
:1012F000EF80F1598307D41295C713062003814567
:101300001735FF1F130525D59700FF1FE780C0DBAA
:10131000130620039305D4121735FF1F1305A5D319
:10132000EF80F1568307941685C7514681451735DE
:10133000FF1F130575C69700FF1FE780E0D85146D1
:10134000930594161735FF1F130515C5EF8031540B
:101350009736FF1F938626D01736FF1F130686CCBD
:1013600097C501009385856D2800EF80F14828001E
:10137000EF80114EAA851736FF1F130636C32800CB
:10138000EFD020409738FF1F938858C21738FF1FAF
:10139000130898C09737FF1F9387E7CB1737FF1FB6
:1013A000130747C89736FF1F83D626C51736FF1F7A
:1013B000130676BB97D50100938505012685EF803E
:1013C000B143EF50805099BD97D5010093854504F6
:1013D00026859737FF1FA38907C2EF805146EF90FC
:1013E000001FC5B7130101B9232A5145B28A2E86C1
:1013F000AA85E8002326114623248146232291460C
:1014000023202147232E314523286145232C4145A4
:10141000368B2326714523248145232291452320A1
:10142000A145232EB143EFA0800B1305D104EF801B
:10143000314293150501C1811305D10497D40100F0
:1014400093840437EFA020160144268993091003E2
:10145000C8409305D104EF90F0590DC90E044A9489
:101460008317040013970701230801224183930681
:10147000000363F4E6006F10D02B17D701001307A9
:10148000E7988A07BA979C43BA9782870504A10414
:10149000E31034FDFD57F9B702D202D402D602D8C8
:1014A00002DA9737FF1F83C7B7A52547639AE70C72
:1014B00021464C101725FF1F1305056FEF90B070E4
:1014C000081C230A0102001CEF8091389738FF1F87
:1014D0009388D8BF1738FF1F1308C8BE9737FF1F60
:1014E00083D767BF1737FF1F130717BA9726FF1F4A
:1014F0009386466A501097D501009385654A2295D8
:10150000EF80912F081CEF80B1341C1C1736FF1F91
:10151000130616893E9597D501009385E54DEF801A
:10152000B12D081CEF80D1321C1C3E959737FF1F50
:10153000938787868386772417D601001306C61CF7
:1015400063D6060017C601001306C61497D501001E
:101550009385054BEF80512A1734FF1F0344D48332
:101560009307F4FF93F7F70F15476369F71417D73D
:1015700001001307E7958A07BA979C43BA978287B9
:1015800021476395E7044C1019461735FF1F1305D3
:10159000D5B2EF905063081C23080102001CEF80B5
:1015A000312B9737FF1F83D7E7A41737FF1F130788
:1015B00077989726FF1F9386E65D501097D5010018
:1015C0009385C5402295EF8031232DBF081CEF8005
:1015D00031281C1C1737FF1F035707A29736FF1F20
:1015E000938696851726FF1F1306C65A97D50100C6
:1015F0009385853F3E95EF80312029B7081CEF8009
:1016000031251C1C3E95854797D5010093850540E3
:101610006306F40097D501009385C53FC164EF8050
:1016200011221724FF1F13042477172AFF1F130A00
:101630004A77FD149309C00397DB0100938B0B3E9F
:101640000359A424630E9900081CEF807120B3761F
:1016500039031C1CDE853E9533563903EF80D119C2
:101660000904E31F8AFC081CEF80911E1726FF1F48
:101670000346B67297D501009385053B1C1C3E9529
:10168000BDA81736FF1F0356A6959736FF1F83D6B2
:10169000E695081C32CE36CCEF80911B72461C1C9E
:1016A0003E95E24621C297D501009385E538A1CA4F
:1016B00097D5010093850539EF801114081CEF8040
:1016C00031191C1C9726FF1F83D6C6511726FF1FF2
:1016D0000356665197D50100938545403E95EF80AE
:1016E000B11115A681EA97D501009385A536EF8043
:1016F0001115E9B7368697D501009385A536EF8099
:10170000B10F6DBF081CEF80B1141736FF1F0356D1
:10171000E68D97D501009385A5358DB7081CEF8020
:1017200031131736FF1F0356668C97D5010093853A
:101730006535A9B7081CEF80B1111C1C3E95C16727
:101740001734FF1F0354E48CFD176303F4021307DF
:10175000C003B356E402E147114697D501009385D3
:10176000A5333377E402B3F6F602EF80F108B9B798
:10177000114697D501009385653451B7EF40802914
:101780001734FF1F13044462EF6010176840EF70B6
:1017900031092A86AE86081C97D5010093858535C8
:1017A000EF8091059737FF1F83C7C760638A071CC7
:1017B000EFE07FA4AA84081CEF8091091C1C3E95D1
:1017C0008387640017D601001306061789E717C63A
:1017D00001001306265497D501009385A532EF80AA
:1017E000B101081CEF80D1062A89C850EF7051035F
:1017F0001C1C2A86AE863385270197D50100938568
:10180000E530EF80617F038634038947631DF6125C
:10181000081CEF80F1031C1C094697D50100938535
:10182000A52F3E95EF80417D081CEF8071021C1CA6
:10183000B384A700EFA0A02F17F60100130686922D
:1018400009E517F601001306E69097D50100938588
:1018500025332685EF80417A081CEF80617FAA84BA
:10186000EF40907B1C1C2A8697D501009385C531DB
:1018700033859700EF804178081CEF80617D1C1C48
:10188000B384A700EFA0C02E17D601001306460BA5
:1018900009E517D601001306660B97D5010093855D
:1018A000652F2685EF804175081CEF80617A1C1C2E
:1018B000B384A700EF90C02517D601001306068C4D
:1018C00009E517D601001306A68B97D5010093856D
:1018D000252D2685EF804172081CEF8061771C1C46
:1018E000B384A700EF90402C17D601001306068999
:1018F00009E517D601001306A68897D50100938540
:10190000E52A2685EF80416F081CEF806174305016
:101910001C1C3E9597D501009385052AEF80C16D6B
:10192000081CEF80E172AA842854EF70616F1C1CC0
:101930002A86AE863385970097D501009385852842
:10194000EF80816BC9A0081C32CCEF8061706246C9
:101950001C1C3E9591476318F600114697D501006F
:101960009385451DC1B5954797D501009385051F02
:10197000E31AF6EA154697D501009385E51C5DB597
:10198000081CEF80E16C1C1C97D501009385851E17
:101990003E95EF80C16A49BD17D701001307472361
:1019A00097D601009386862317C601001306C6CA80
:1019B00097D5010093854523081CD5AC8307910872
:1019C00089C71307F003639BE7089727FF1F83C7A7
:1019D000375325476396E7049727FF1F9387176FB1
:1019E0001727FF1F1307076E9726FF1F83D6A66EC4
:1019F0001726FF1F1306566997D50100938585208A
:101A0000081CEF80615F081CEF808164931505015D
:101A1000DA865686C181081CEFE03FA36F005007AD
:101A200021476390E7029726FF1F83D6A65C1726FF
:101A3000FF1F1306365097D501009385251F081CFC
:101A400079B99726FF1F83D6265B1726FF1F13063B
:101A5000B63E97D501009385A51ED5B78307510CD7
:101A60006380071A83071110638C07181305910808
:101A7000EF7031041375F50F2382A184A14763121F
:101A8000F506130620039305510C1725FF1F1305B8
:101A9000754AEF80C15F1725FF1F1305B549EF8019
:101AA000215B93150501C1811725FF1F130595487B
:101AB000EF90303313051110EF70A17F93160501DD
:101AC0009727FF1F2398A752C1821726FF1F1306CF
