:040000006F2000125B
:100004000000000000000000900000208209002091
:10001400A9BDF9F5940000200000000000000000D4
:10002400960000209800002000000000000000005E
:100034009A000020000000009C0000200000000046
:100044009E0000201A0300209E030020A40000202C
:10005400A6000020A8000020AA000020AC00002078
:10006400AE000020B0000020C60000205A0100208D
:10007400FE090020B8000020BA000020BC000020C7
:10008400BE000020EE01002082020020C4000020F7
:1000940001A001A001A001A001A001A001A001A054
:1000A40001A001A001A001A001A001A001A001A044
:1000B40001A001A001A001A001A001A001A001A034
:1000C40001A001A001A037370040834747009946AB
:1000D4004111BD8B638CD70231476384E706114716
:1000E400639EE702A3030100174600000346C639D6
:1000F40037370040834771006315F6022C001385DF
:10010400C17C97A000E0E78020EE09A88347570050
:1001140093F7F70F2304F100834781004101730033
:10012400203083477100834687000C08AE97238CE8
:10013400D7FE83477100850793F7F70FA303F100F8
:1001440055BF2800971001E0E780409F1375F50F15
:10015400A303A1000346710055B737370040834716
:10016400474099464111BD8B638CD7023147638464
:10017400E7061147639EE702A30301001746000048
:100184000346A63037370040834771006315F602F3
:100194002C001385017E97A000E0E780E0E409A825
:1001A4008347574093F7F70F2304F10083478100F7
:1001B40041017300203083477100834687400C0857
:1001C400AE97238CD7FE83477100850793F7F70F0B
:1001D400A303F10055BF2800971001E0E780C0A7F2
:1001E4001375F50FA303A1000346710055B73747F4
:1001F40000408347478099464111BD8B638CD702E9
:1002040031476384E7061147639EE702A3030100B5
:1002140017460000034656273747004083477100BE
:100224006315F6022C001385417F97A000E0E78058
:10023400A0DB09A88347578093F7F70F2304F10045
:100244008347810041017300203083477100834656
:1002540087800C08AE97238CD7FE834771008507EF
:1002640093F7F70FA303F10055BF2800971001E09F
:10027400E78040B01375F50FA303A1000346710096
:1002840055B737470040834747C099464111BD8B56
:10029400638ED70231476386E70611476390E7040C
:1002A400A3030100174600000346E67E37470040DB
:1002B400834771006317F6022C00173500001305FD
:1002C400650997A000E0E78020D209A8834757C0BA
:1002D40093F7F70F2304F100834781004101730072
:1002E400203083477100834687C00C08AE97238C67
:1002F400D7FE83477100850793F7F70FA303F10037
:1003040045BF2800971001E0E78080B81375F50F0A
:10031400A303A1000346710045B7411126C4B714D5
:10032400004022C603D4C409420441809317140137
:1003340063DB0700A145014597F000E0E78020D387
:100344009167239EF4089317340163DF07029757DC
:10035400000083C7F78993E7170017570000A30924
:10036400F788B717004003A7470A856613163701B5
:100374006351060203A7C70A558F23A6E70AB717D6
:1003840000400567239EE7083244A24441017300FC
:10039400203003A7870A558F23A4E70ACDB7B717E0
:1003A400004003D7E70903D7E7099316370163D45D
:1003B4000604175700000347A78505079756000052
:1003C4002388E684174700000357C77D1367074057
:1003D400974600002398E67C0567239FE70803A758
:1003E400470C8566131637016359060003A7C70C2B
:1003F400558F23A6E70C7300203003A7870C558F75
:1004040023A4E70CCDBF411122C406C697370000D0
:1004140083C72777174400001304C47895CB834718
:10042400D404858B95C78357040013974701634110
:1004340007028D45094597F000E0E78040C39145E8
:100444001745000003452578974001E0E780400701
:100454009747000083D7077513F7074005CF139715
:100464004701634107028D45094597F000E0E780A5
:1004740000C09145174500000345E574974001E02D
:10048400E78000048357040093F7F7BF1747000081
:10049400231AF770B24022444101828041118146FF
:1004A40001468145114506C6EF00A077B7270040F5
:1004B40011472383E780B7F700E003A707D16D9BBB
:1004C40023A8E7D003A707D15D9B23A8E7D0730037
:1004D400501001000100B240410182804111814667
:1004E40081450146114506C62D2FB7270040114707
:1004F4002383E780B717004003C7E70283C5E704F7
:1005040083D7870391661377F70F93E5350063E587
:10051400D700719B13671700B717004013067005C7
:100524002380C704930680FA2380D70401000100C6
:10053400238207022380C7042380D704010001001B
:100544002387E7022387B7042380C7042380D704C3
:100554000100010003C7B70413670702A385E7047A
:100564002380070437F700E0832507D193E545008E
:100574002328B7D0832507D1DD992328B7D073006A
:100584005010010001002380C7042380D704010018
:10059400010003C7B7041377F70DA385E70423808D
:1005A4000704B240410182800111B7F5070022CC53
:1005B4008146E1052A840A86194506CE26CA02C068
:1005C40023120100B92DB717004003C7E70283C502
:1005D400E70483D7870391661377F70F93E5350014
:1005E40063E5D700719B13671700B7170040130624
:1005F40070052380C704930680FA2380D704010082
:100604000100238207022380C7042380D70401004A
:1006140001002387E7022387B70423800704B7F583
:1006240000E003A705D11367470023A8E5D003D54D
:1006340007026577110713750560418D598D4205D1
:10064400418101002380C7042380D70401000100F5
:1006540003C7F70037F40700B7F400E01367070493
:10066400A387E70003C7B704610413670702A385E0
:10067400E7042390A70283A704D1DD9B23A8F4D029
:10068400730050100100010013056004352E8146EB
:100694003000A285194502C42316010059232247BC
:1006A4008247E31AF7FCB71700401307700523804D
:1006B400E704130780FA2380E7040100010003C75D
:1006C400B7041377F70DA385E70423800704F240EA
:1006D4006244D2440561828001114EC681460146BE
:1006E400AA898145114506CE22CC26CA4AC8152BB3
:1006F400B716004083C7E60203C7E60483D6860321
:10070400116693F7F70F1367370063E5C600F19B93
:1007140093E71700371400401309700523002405DC
:10072400930480FA230094040100010023020402CC
:100734002300240523009404010001002307F4028C
:100744002307E40423000404130550025920B7F7D7
:1007540000E003A707D11367470023A8E7D02300CD
:10076400240523009404010001000347F4001367E7
:100774000704A307E40023002405230094040100D4
:1007840001002567B3E9E9002310340303A707D167
:100794005D9B23A8E7D0730050100100010081463F
:1007A400014681451145B5292300240523009404FD
:1007B400010001008347640493E717002303F40452
:1007C40023000404F2406244D2444249B249056120
:1007D4008280B7170040930670052380D70413075F
:1007E40080FA2380E7040100010003C6B7041376EE
:1007F400F60DA385C70423800704137605024DC2B2
:1008040003C6A700118A1DE22380D7042380E704CE
:100814000100010003C7A700136747002385E70011
:100824009307004B01000100FD17EDFFB7170040CF
:10083400930670052380D704130780FA2380E70406
:10084400010001007D892394A7000100010001003B
:100854000100238007042380D7042380E7040100D8
:100864000100010001003727004093061005A3038F
:10087400D78023800704B71700401307700523802F
:10088400E704130780FA2380E7040100010003C78B
:10089400B70413670708A385E7042380070482804D
:1008A4001376050441C603C6A700418A1DE22380CE
:1008B400D7042380E7040100010003C7A7001367DE
:1008C40007012385E7009307007D01000100FD1760
:1008D400EDFFB7170040930670052380D704130774
:1008E40080FA2380E704010001001376F501136602
:1008F40006042394C70001000100010001002380C5
:1009040007042380D704130660042380E7046318D4
:10091400C5000100010037270040894689BF010056
:100924000100372700409306200591B72380D704A0
:100934002380E7040100010003D787001367070C35
:100944002394E7000DBF41118146014681451145BD
:1009540006C6C12CB7170040130770052380E704AF
:10096400130780FA2380E7040100010003C767042A
:10097400136717002383E70423800704B24041016F
:1009840082808146014681451145612CB71700409C
:10099400930670052380D704130780FA2380E704A5
:1009A400010001007D562396C7022380D7042380CB
:1009B400E7040100010003C76704136717002383DA
:1009C400E7042380070401A0BD473305F5020100B5
:1009D4007D1575FD8280411122C426C206C6AA84F3
:1009E400014463179400B24022449244410182803E
:1009F40005041305803E4204C13F4180DDB7B717AB
:100A04000040130700032388E702854717470000C7
:100A14002328F72073002030397122DC4ED656D2B9
:100A240037140040E57AB7F9070026DA52D45AD0D1
:100A34005ECE06DE4AD862CC2A8B916B9304040402
:100A4400130A7005910AE1098347E4020347E404A9
:100A54008356840393F7F70F1367370063E5760132
:100A6400F19B93E7170023804401130980FA238044
:100A74002401010001002302040223804401238095
:100A84002401010001002307F4022307E404238066
:100A9400040037F700E0832707D193E747002328B2
:100AA400F7D08357040293F70760B3E76701B3E70E
:100AB4005701C207C183010023804401238024011C
:100AC400010001008346F400130CB40493E6060409
:100AD400A307D4008346B40493E60602A305D40412
:100AE4002310F402832707D1DD9B2328F7D073005A
:100AF40050100100010013056004F9353000CE8563
:100B04008146194502C423160100212A114697453E
:100B1400000093856511280011231DD593077005E6
:100B24002380F400238024010100010083470C008A
:100B340093F7F70D2300FC0023800400F250625465
:100B4400D2544259B259225A925A025BF24B624C25
:100B540021618280411106C6AD2D753097A000E059
:100B6400E7800067D5BF2303048015472303E4808F
:100B740001002302A480828083076480E3CE07FE01
:100B840023030480828083076480E3CE07FE034549
:100B94004480828083076480E3CE07FE2302A4801E
:100BA4008280411126C44AC24EC006C61377F50B93
:100BB400AD47AA892E8995446306F7001945653720
:100BC400653F8D444E854537FD59FD1463983401C6
:100BD400B240A2441249824941018280135509015D
:100BE4001375F50F453F2209CDB7011126CC06CE6A
:100BF400B704080051371545BD37713769372AC620
:100C0400A53F32459377150089EB136515001375DD
:100C1400F50FF240E24405618280FD14E9FC0145D0
:100C2400CDBF397126DC4ADA4ED852D656D45AD2C0
:100C34005ED006DE62CE66CCB7E700E07D5783AABD
:100C4400070022C603AA470023A0E71823A2E71837
:100C5400B7170040130770052380E704130780FAD1
:100C64002380E70483C74704930B75FFB684E20728
:100C740093FBFB0F8546AA892E8B328937240040CB
:100C8400E187015763FA76016308D50089461307A3
:100C940000026313D5000157D98F93F7F70FB71CE0
:100CA40000402382FC0411472303E4801305F00F62
:100CB4005D3D094CD135636D7C11B7050700DA95AC
:100CC40037870700795563F2E504B3879500636EAF
:100CD400F702370B0800A94733EB65016399F9065E
:100CE40089E48144513D26850DA0DA850945553DA9
:100CF40005090345F9FFFD14050B693D81C493778C
:100D0400FB0FFDF7DD3569FD7D55B717004013076F
:100D140070052380E704130780FA2380E70403C7E0
:100D24004704418B2382E704F250B7E700E023A095
:100D3400571123A24711E25432445259C259325A2C
:100D4400A25A125B825B724CE24C21618280A547FD
:100D54006395F90685691309F00FB3069900B37416
:100D64002B01B6941349F9FFB3749900856B337959
:100D74006901416B9387F9FFB3F7270199E363FC9A
:100D8400340193D94900C147E3E637FF99BF0569A8
:100D9400C1697D19D9B71305800D638869011305ED
:100DA40000026384790113051008CA85DD3B353DD3
:100DB40021DD4E99B3843441D9B7DA852D45D53335
:100DC400CA94E30099F205097D3BA30FA9FED5BFA0
:100DD4009387F9FF93F7F70F6361FC0C83C71C0437
:100DE40013073008631FF70437070800636BEB042D
:100DF400B3079B00B706100063F5D704334BEB0031
:100E040089476393F9068980D549E38C04ECDA8534
:100E14000945413B11090327C9FF91472320E48079
:100E240003076480E34E07FE23033481FD17EDFBC3
:100E3400FD14110B81C49377FB0FE9FF7D3371F52A
:100E4400E1B5B717004003C75704B7070800137785
:100E5400070219E3B78707007955E378FBEA3307FC
:100E64009B00E3FFE7F855B58547E382F9F2DA859D
:100E74002D45053B9389F4FFE38504E6293393F775
:100E8400390091EB83260480032709009307490066
:100E9400E39AE6E43E89CE84F1BFB5476396F90050
:100EA4001305900BC93135BDB1471305B00AE38B67
:100EB400F9FE99476391F904B7050800B365BB00CF
:100EC4002D45C53181448D4BA14975396396740113
:100ED400832704802320F9008504E39834FF8327C3
:100EE400048013172B01635507002312F900D5BBA7
:100EF4002322F900FDB39D476399F9028145130547
:100F0400B0044531BD442320090023220900FD59C2
:100F14009D3993F77400CA9703C70700FD14398DF0
:100F24002380A700E39634FF6DBBA1476392F904C5
:100F34006D398144630D0B008D479304C00363082E
:100F4400FB009304000563048B01930440041375B0
:100F5400C507E30895D81945393139390545213193
:100F640026850D3909453D314931E31C05D669BB58
:100F740091476399F90013056006F536F53E1305AC
:100F840090090DB7E38F09D4F154A9BB19CD91CDC4
:100F940009CE81473387F500834607003307F50000
:100FA40085072300D700E317F6FE828019C991C98B
:100FB40009CA910583A7C5FF11057D16232EF5FEE9
:100FC400C5BF828001C919C62A960505A30FB5FEBF
:100FD400E31DA6FE828081473307F500030707005F
:100FE40019E33E8582808507C5BF01112E8626CA76
:100FF400AA84131506019305F004418122CC06CE80
:1010040032C6EF0010762A8401C53246A685BD3F5C
:101014002285F2406244D24405618280854715C12D
:101024008DC105C28147B306F5003387F50083C639
:101034000600034707006398E6008507E315F6FEFC
:1010440085473E8582808147EDBF9307F6FFBE95B5
:101054002A966313C5008280FD1583C71500050514
:10106400A30FF5FEFDB7AA87014581CF09CE3E96B1
:10107400850703C7F7FF6317B700E39BC7FE054562
:10108400828082800145828079719757000093871E
:10109400E74122D4804306D626D24AD04ECE52CC43
:1010A40056CA5AC85EC662C45DCC37C9C901814BF1
:1010B400175A0000130A0A44975400009384443FCB
:1010C4001309F937975A0000938A0A39B709C0A857
:1010D400370B40578357240095E35C44639D0B0012
:1010E400175700002324F73C032CC4002285EF008B
:1010F4007074628499A823A6FB00FDB783270A00B5
:101104008297838664011C4463DB06063307F5403B
:101114006367E9089757000023A807348355240020
:1011240003450400973001E0E78080395C4058446F
:10113400A9CF1444B6978386640163C5060063E3AC
:101144003701DA971CC4A28B3A8449F497570000FC
:10115400938787309C4B09476378F706F91717572D
:1011640000002323F730B250225492540259F2491A
:10117400624AD24A424BB24B224C45618280E377A9
:10118400F5F83387F9402A9761B763970B009757AF
:10119400000023ADE73089BF23A6EB00B1B7D850D8
:1011A40009CF63DF06003385A74083A70A0163766E
:1011B400F5009757000023A9A72AA28B404471B7D2
:1011C400E3F3A7FECE97C5B79757000023AE0728D1
:1011D40059BF411122C4175400001304E42A1C40CF
:1011E40006C626C24AC091C782979757000023AD0E
:1011F40007285C4091C382971C406390071C975753
:10120400000083C73743858B95C797570000A38396
:1012140007421757000003471742954763FCE7004E
:10122400352B9757000083C71741F5178A07A297F4
:101234009C43829717590000130989438347C900C7
:10124400918B99C3EF0050451C4491C382979754E6
:101254000000938464259840175600000346D61F67
:101264009757000083C7471F93961700BA9683D6F3
:101274000600D5CA9757000083C7071E63EFC70A45
:1012840097570000238A071C1C406398071297573E
:10129400000083C7773A91CF9757000083C7B739C7
:1012A40089EB97570000A3890738975001E0E7803E
:1012B4004098975700009387E7239C43638F070E5A
:1012C400B707C0A8175700002320F71A753B975794
:1012D40000009387E71DDC53EDC317570000130785
:1012E400A717184B9757000083C7D71D6367F70CE0
:1012F4001757000003473734954763E0E70C8347EB
:10130400C900918BDDEB90409756000083C6D6143C
:1013140063CBD70A2244B2409244024941011733B5
:1013240001E06700C306850793F7F70F975600009F
:101334002384F612E3E6C7F235BF86073E9783554A
:1013440007002310070097570000239D07149757A1
:101354000000938727139C43175500000345C50FCE
:1013640013172500BA979C4382979757000083D799
:101374006713175700000347270E93C7F7FF7D8DA8
:101384009317170098403E97835707005D8D2310ED
:10139400A7009757000083C7270C91C785071757E5
:1013A4000000230BF70A175700000347E70A975773
:1013B400000083C7770AE375F7ECB24022449244F5
:1013C400024941018280139717003297035707009F
:1013D4006DF7850735BFAD6737C70040BD072326C6
:1013E400F7200F100000975700009387E706C84FB7
:1013F40083278726BD66BD0693C7F7FF99836A05D1
:101404002326D7205D8D82804111B7170040985F55
:101414003AC6945F3247E39CE6FE3245410182803E
:101424008280011122CC1754000013042422184096
:101434002AC62EC432C206CE3C4B93F7F7F73CCBF8
:10144400974001E0E780A07B184097560000938600
:10145400261D3C4B93E707083CCB9C423245A245F2
:1014640023A007000347150003482500220742086C
:1014740042970348050042970348350062084297A3
:1014840098D703475500034865002207420842974E
:101494000348450042970348750062084297D8D72D
:1014A400034795000348A5002207420842970348D2
:1014B400850042970348B5006208429798DB0347CA
:1014C400D5000348E5002207420842970348C500B7
:1014D4000345F500429762052A97D8DB03C7150038
:1014E40003C52500220742052A9703C505002A974C
:1014F40003C5350062052A9798CF03C7550003C575
:101504006500220742052A9703C545002A9703C5AB
:10151400750062052A97D8CF03C7950003C5A500B7
:10152400220742052A9703C585002A9703C5B500FB
:1015340062052A9798D303C7D50003C5E50022079F
:1015440042052A9703C5C50083C5F5002A97E2051D
:101554002E97D8D3D843759BD8C3D84313671700A5
:10156400D8C398431367170098C3124698425C4344
:10157400858BD1E71C4F01452300F6009C429C4F0C
:10158400A183A300F6009C429C4FC1832301F60073
:101594009C429C4FE183A301F6009C42D84F230256
:1015A400E600D84F2183A302E600D84F41832303EA
:1015B400E600D84F6183A303E60098532304E600B2
:1015C40098532183A304E600985341832305E6003E
:1015D40098536183A305E600D8532306E600D85345
:1015E4002183A306E600D85341832307E600DC5396
:1015F400E183A307F600F2406244056182800100A2
:10160400B5B7175700001307E7011443411122C46B
:101614009C5E4AC006C6998326C2858B3A841759B4
:1016240000001309E9FFD1CB9C5E9754000093841A
:10163400240093F7F7F99CDE175700000347A7FF30
:1016440093070008631BF700832709009C4393F763
:101654000704175700002300F7FE83C7040093F71D
:1016640007049DC3975700009387C7E89C4382975C
:101674009757000023A6A7FC83C7040093F7F70B32
:10168400175700002306F7FA83C7440093F70704AB
:101694008DE7854717570000A30EF7F8975700000A
:1016A4009387C7FA9C43096798C7130700FC9756AA
:1016B40000002381E6F8D844F8D31C40985F1183D6
:1016C400058B09CB985F3D9B98DF05479756000033
:1016D4002382E6F6985F1D83058B11CB985F137701
:1016E400F7F798DF8547175700002305F7F483279A
:1016F4000900D8430583058B19C7D843759BD8C304
:10170400D843799BD8C3B240224492440249410150
:101714008280397106DE16DC1ADA1ED82AD62ED457
:1017240032D236D03ACE3ECC42CA46C872C676C40D
:101734007AC27EC0F935F250E2525253C253325546
:10174400A255125682567247E2475248C248324E58
:10175400A24E124F824F2161730020309757000030
:101764009387C7EE944397570000938767EC03C7AA
:101774000700058B11CB97570000238D07EA975775
:101784000000A38907EA828003C71700058B65F769
:10179400F85271FF83C75700DDB7175800001308CC
:1017A40068E8032708001C5F9583858BD1E709C689
:1017B4001C5BBD832300F60085CA83270800985B61
:1017C4004607935767016356070093E707C0C207AC
:1017D400C18303970600C207C18709C7BA9709479F
:1017E400B3C7E7022390F60085CD834715008DCB60
:1017F4009756000083C626E493F6060413879700E1
:1018040089478DCA3A95034705008546994713765B
:10181400F7066311D60262076187B947634C070074
:10182400832708009C5FED838D8B17570000A30668
:10183400F7E081473E8582808547EDBF411122C490
:1018440006C617540000130464E0184049E9AE8743
:101854007453FDFE3E85B28597570000238B07DC49
:10186400974001E0E780001597570000938787DBD6
:101874009C43B70680009843558F98C3D857719BF3
:10188400D8D797570000A38707DA97570000A3819A
:1018940007DA1C40094798C3B7F700E003A707D14C
:1018A4006D9B23A8E7D003A707D15D9B23A8E7D0AE
:1018B40073005010144017570000130767D783476D
:1018C4002700858B89EB83473700858BD9C79757CA
:1018D4000000238107D6B2402244410182808D4713
:1018E4006310F502975700009387C7D39C43B7064C
:1018F40080009843558F98C3D857719BD8D75DBF44
:101904008547E319F5FAB567BD075CC70F100000FA
:101914001C400967094698C7130700F8975600004A
:10192400238AE6D0175700001307C7CF1443984201
:1019340031830D8B6319C7001307E043F8D33D6768
:101944003D07D8C785BF984231830D8B01E7130744
:101954006019EDB71307E01BD5B7FC52ADF3A5BF73
:101964005D7152DC175A0000130ACACB03270A0020
:1019740086C6A2C4A6C2CAC04EDE1C439759000044
:10198400938989D117590000130949CC93F7F7E7D4
:1019940093E707081CC383A609003707CEFF7D170A
:1019A4009C46130680022A84F98F9CC6832709006B
:1019B400130700082800B8CBAE8493051008EFF095
:1019C4006FE0974001E0E7808023974001E0E780E3
:1019D400803083270A009376F41F370FFCFF23A47B
:1019E4000700984B4E88CA881367F70398CBF84FC3
:1019F400130510F8D285137707E0558FF8CF984375
:101A0400F576FD16758F98C39843B7063300B70271
:101A140004001377F7E798C398439303401F7D1F8F
:101A24001377F7E71367071098C303A70900930F09
:101A3400800285491C47D58F1CC7832709001307DB
:101A4400900D3400B8CB1149014713533700269346
:101A54008347030013767700B3D7C740858BDDCF68
:101A64009C41832E0800239C07042390070603AEA1
:101A7400CE02137EDEFF23A6CE0383AE0700137EC1
:101A8400F70793FE0EF833EECE0123A0C70103AE91
:101A94004702336E5E0023A2C70383AE0800014EE3
:101AA40023A27E0603DA070663074E0303AE070389
:101AB400038A0600135EFE00620E135E8E416358B5
:101AC400CA0103AE0703135EFE002380C60103DED2
:101AD4000706137EFE0F03AA4E0663060A0003DA06
:101AE4008705E37F49FB03AE4702337EEE0123A261
:101AF400C70383870600635CF400034E0300339638
:101B0400C9001346F6FF3376C6012300C3003E86A0
:101B140063D3A7002A861315860161850507137709
:101B2400F70F8506E313F7F3B640264496440649B7
:101B3400F259625A6161828097560000938606B119
:101B44009C42D8471316170163550602984713168B
:101B54001701635006027D57B8D7175700001307C3
:101B6400A78F584F0507175600002325E6901167E5
:101B740098C798470D83058B1DC31757000003476B
:101B840047AB13671700175600002304E6AA130790
:101B940000F817560000230FE6A8214798C7984776
:101BA400058B09CF17570000034797A81367170041
:101BB40017560000A30EE6A6054798C79847098361
:101BC400058B09E798470583058B31CF984717564E
:101BD40000001306E6A5175500001305A5A4098304
:101BE400058B630307101841184331830D8B75EB84
:101BF400AC4B184E93F5050203471700CDCD79EF92
:101C040013077006D8CF034706001367170017564B
:101C14000000230FE6A0114798C718415C57F19BB9
:101C240093E717005CD79C4298479316370163D615
:101C340006029756000083C6A6AEC18A1757000055
:101C44001307C7A6C5CE034747071367070297566E
:101C540000002387E6AC056798C7984793162701C9
:101C640063D10602175700000347C79C62076187C8
:101C740063570700054797560000238DE69A0967C6
:101C840098C798479316070163D606029756000033
:101C940083C616A9858A17570000130727A1ADCE5E
:101CA400034757071367270097560000A38AE6A641
:101CB400216798C7828029D785456315B700130724
:101CC400B00689B789456315B7001307F0061DBF31
:101CD4008D456315B700130730072DB71307500759
:101CE40015B71307600739BF03473600136717009A
:101CF40017560000A30FE692094739BF83464707EA
:101D04000946BD8A6388C600034747078D463D8B55
:101D1400E313D7F4114725BF83465707918AC9DADD
:101D2400034757071367870041B7397106DE16DC8E
:101D34001ADA1ED82AD62ED432D236D03ACE3ECC97
:101D440042CA46C872C676C47AC27EC0F533F2501F
:101D5400E2525253C2533255A2551256825672471A
:101D6400E2475248C248324EA24E124F824F21617E
:101D740073002030175700001307878D8346B7017F
:101D84009757000083C7978F4C4BB697FD8B33D77B
:101D9400F50097560000A38DF68A97560000A38F8E
:101DA400F68C058B15EF175700000347778DB3F7B3
:101DB400E702814601471305000233D6E500058A90
:101DC4001378F70F19CA6397D70097570000A381B8
:101DD40007898280850693F6F60F0507E31FA7FCA3
:101DE4008280974700009387E7709C43011122CCBF
:101DF4004EC606CE26CA4AC852C456C282979757C0
:101E040000009387E786804781496305A406BE8462
:101E1400974700009387C769038767013E89635525
:101E24000706018D135455009757000083C7E783B5
:101E34009379F501636DF402370AC0A8B70A4057D5
:101E4400153F9C449756000083C62682139756007C
:101E54003E9783076901158C63C5070063634701D7
:101E640056979757000023A9E780E37BD4FC160418
:101E7400B3693401F24062444E85D2444249B249C6
:101E8400224A924A05618280E37D85F8B707C0A89B
:101E940033848740229579B79747000093878765F5
:101EA4009C43411122C406C626C28297974700006C
:101EB4009387077C80476309A406BE849747000084
:101EC4009387075F8387670163D80704018D1354E1
:101ED40055009747000083C747796367F404593D69
:101EE40098449747000083C74778939657003697DE
:101EF4001D8C9746000023A1E678E372F4FE224489
:101F0400B240924417450000034595748145410150
:101F1400174301E06700A3F7E37A85FAB707C0A87F
:101F240033848740229565B7B240224492444101EC
:101F3400828097470000938727769843B75702001B
:101F44009387079F83260709139656006358060054
:101F5400832607091396660063440600FD17FDF304
:101F6400828071C5AA870145E9C58D07C207C1836F
:101F7400F19BC207C18313074003636FF70217473E
:101F840000001307677208431747000013074771DF
:101F940014436398A6021747000013076751185BA0
:101FA400014541CB4111C20706C60545DD8D0297A7
:101FB400B240014541018280174700001307876E34
:101FC400D9B70357650035E303574500636FF7043A
:101FD400B306F7402146637CD602032805009386A6
:101FE40087001D8FAA9661171746000003562647DF
:101FF4002392E60023A006012393060014C12312B2
:10200400F500130786FF97460000239AE64423133E
:10201400B5009745000083D58544B387F54017473D
:102024000000231EF7422105828008419DB7014527
:10203400828082800DC1974700009387E76603A3DF
:102044000700974700009387A76583A80700814688
:102054009A8763E31701828003A80700636DF50A7A
:10206400636BA80A13878700E367E5FE03D667005E
:10207400216705076317E60003C7B18B0507A38D26
:10208400E18A974500009385253D03D6470003D791
:1020940065002393070032974207418317450000E8
:1020A400231FE53A638A6702174500001305855F1D
:1020B40008416303F50203D5660019ED83D7460092
:1020C40023A0060121073E9621062392C6009747C6
:1020D40000002396E738B6879843E30E17F7974630
:1020E40000009386265C9442E307D7F68356670084
:1020F400BDF283D64700035647001843A106B296A3
:102104002392D70098C383D76500A107174700001F
:0C2114002317F7348280BE86C28725BFE7
:1021200097110020938181A217610020130181ED96
:102130001305400097E5FF1F9385C5EC17060020A7
:10214000130606FE63FAC5008322050023A055008E
:1021500011059105E3EAC5FE17150200130545BBFD
:10216000970500209385C5FB1386018263FAC5009D
:102170008322050023A0550011059105E3EAC5FE61
:102180001385018297450020938505646377B50028
:10219000232005001105E36DB5FEFD42739002BCDE
:1021A0008D4273904280B72200009382828873A090
:1021B000023097E2FF1F9382E2E493E232007390D1
:1021C000523097F2000093822212739012347300FF
:1021D00020303D432A876373C3029377F700BDEF36
:1021E000ADE5937606FF3D8ABA960CC34CC30CC787
:1021F0004CC74107E36BD7FE11E28280B306C340B0
:102200008A069702000096966780A6002307B7000B
:10221000A306B7002306B700A305B7002305B70040
:10222000A304B7002304B700A303B7002303B70038
:10223000A302B7002302B700A301B7002301B70030
:10224000A300B7002300B700828093F5F50F9396A3
:102250008500D58D93960501D58D61B7939627009E
:102260009702000096968682E78086FA9680C117CC
:102270001D8F3E96E374C3F8A5B73367B500FD53D1
:102280000D8B79E7B7877F7F9387F7F710419441EC
:10229000B372F6003363F600BE92B3E26200639756
:1022A000720C6318D6065041D441B372F600336302
:1022B000F600BE92B3E262006398720A631BD60412
:1022C00010459445B372F6003363F600BE92B3E254
:1022D00062006391720A631ED6025045D445B37200
:1022E000F6003363F600BE92B3E26200639A7208AE
:1022F0006311D60210499449B372F6003363F600B5
:10230000BE92B3E26200639372085105D105E30FF8
:10231000D6F61317060193970601631CF7001357AF
:10232000060193D706013305F7409375F50F91E940
:1023300082804183C1833305F7409375F50F91E1A6
:1023400082801377F70F93F7F70F3305F7408280FA
:102350000346050083C60500050585056313D60001
:1023600065FA3305D640828011059105E312D6FE49
:10237000014582802105A105E31CD6FC0145828030
:102380003105B105E316D6FC014582804105C10542
:10239000E310D6FC01458280411106C6EF70A070A3
:1023A000B240AA8617C7010013078723171600201B
:1023B0001306466497C501009385C5231145410165
:1023C0006FB0F01A130101DB23248124232021257F
:1023D0002326112423229124232E3123232C41232D
:1023E000232A512323286123034705009307100460
:1023F0002A892E846314F766034715009307400566
:10240000631EF764034725009307E0056318F7642C
:102410002E86AA852545EFB0700A1306D003A28543
:102420004A85EFB05023AA84635A05003546A28539
:102430004A85EFB05022AA84634405089389D4FFEB
:102440009307100363CE37074E869305390028089B
:10245000EF80B13C1C1CBE9917CA0100130ACA4583
:10246000238409DED28A81494D4B83254A002808FE
:10247000EFB030180DC18E09D69983D709004947AE
:10248000636FF70017C701001307C7108A07BA97D1
:102490009C43BA9782878509210AE39869FD97C50D
:1024A00001009385A540DDA89305F4FF858D138574
:1024B0001400C20581460146C1814A95EF20D01A19
:1024C0008320C1240324812483244124032901245B
:1024D0008329C123032A8123832A4123032B012338
:1024E0001301012582807D1493871400B304944066
:1024F000C2043E99C1802686CA85E800EFB0103E2E
:102500001305D104EF80912D93150501C1811305A9
:10251000D104EFB0304997C501009385E50E13054E
:10252000D104EFB0100D19CD97C501009385450E6C
:102530000545EFB0806D1725002003457567EF5006
:10254000805FBDBF97C501009385C50D1305D104FC
:10255000EFB0300A19CD97C501009385250D0545CB
:10256000EFB0A06A1725002003459564EF50605F27
:1025700081BF97C501009385650C1305D104EFB0A9
:10258000500719CD371700408327C70AA16697C5A2
:1025900001009385250BD58F2326F70A254529A60B
:1025A00097C501009385C50A1305D104EFB07004E7
:1025B00011CD371700408327870AA16697C5010010
:1025C00093858509D58F2324F70AC9BF97C50100D4
:1025D000938505091305D104EFB0B00111CD37176C
:1025E00000408327C70A97C501009385250893E714
:1025F00007402326F70A5DB797C5010093850508B4
:102600001305D104EFB0E07E11CD371700408327CA
:10261000870A97C501009385250793E70740232480
:10262000F70AADBF97C50100938505071305D104CF
:10263000EFB0207C11CD371700408327870C8966C7
:1026400097C5010093850506D58F2324F70CB9B7EC
:1026500097C501009385C5051305D104EFB06079D6
:1026600011CD371700408327C70C896697C5010035
:102670009385C504D58F2326F70C0DB797C50100A8
:10268000938585041305D104EFB0A07611C5972773
:10269000002023AF07522DB597C501009385850310
:1026A0001305D104EFB0E07401C5EF50900D09BDE2
:1026B00097C501009385C5021305D104EFB060737F
:1026C00001C5EF503051EDBB97C501009385050260
:1026D0001305D104EFB0E07101C5EF509017CDB3F1
:1026E00097C50100938545011305D104EFB06070D3
:1026F00001C5EF80102CE9B397C501009385450013
:102700001305D104EFB0E06E09C50545EF80D03860
:1027100045BB97C50100938525FF1305D104EFB094
:10272000406D19C10145DDB797C50100938545FE90
:102730001305D104EFB0E06B0DC1056413050480EF
:102740008D45EFE04008371700408327870C1304BE
:1027500004805D8C2324870CA5B397C50100938565
:10276000A5FB1305D104EFB0C0680DC105641305C6
:1027700004808D45EFE02005371700408327C70C04
:10278000130404805D8C2326870C1DBB97C50100B4
:10279000938505F91305D104EFB0A06511C5A68591
:1027A0004A85EF50D04F29BB0346D104A5471306F5
:1027B00006FD1376F60FE3E5C7D097270020A38127
:1027C000C74097C50100938525F6EFB0405ACDB9B3
:1027D0001306F4FF058E138514004206418297D537
:1027E00001009385659E4A95EFB060741724002020
:1027F0001304443B31C597C50100938525F4E800D7
:10280000EF80A17CE800EF80617D13160501418215
:10281000EC001385C17CEF70505C97C50100938577
:1028200065F31145EFB0603E83570400414593E7DF
:102830001700172700202317F736EFB0D07349B1E0
:1028400097C501009385C5F11145EFB0003C7D555A
:10285000EFB0507583570400F99B1727002023130E
:10286000F734B9B9153EA9B91306F4FF058E1385DF
:1028700014004206418297D501009385E5944A955C
:10288000EFB0E06A972700209387C73183D707000E
:1028900019CD93E71700172700202315F73097C5A8
:1028A00001009385A5EC1145EFB0203611B9F99BD5
:1028B000172700202318F72E97C501009385C5EB35
:1028C000DDB7EF603061972700209387A72DE8439D
:1028D000EF70C16DAE862A8697C50100938585EAA3
:1028E0001145EFB0C048E9BEEF50204BD1BE17D61E
:1028F00001001306E68D97C50100938565E9114532
:10290000E9B5EF70601E97C50100938525E941FD8B
:1029100097C50100938585E979B70D45EF80206F54
:10292000AA84EF70A1682A86AE86254597C5010066
:10293000938505E9EFB0A04397C70100938787CC43
:102940008843A6851714002013048423EF60B17B0D
:102950002322A426EF70402003254426EF70016552
:10296000AE862A8697C50100938545E695BF8145C9
:102970000D45EF50D017EF7040122A8697C5010021
:10298000938585E7ADBF81452D45EF5050168145B4
:1029900013055004EF50B01597C501009385C5E6A7
:1029A0003145EF50D014EF70A00F2AC6EF70001021
:1029B000B2462A87171600201306C60397C50100E2
:1029C0009385C5E41145EFB0803ADDBC17170020B0
:1029D0000357074197160020938696241716002068
:1029E0001306460197C50100938585E4E1BF85473D
:1029F00017170020230EF73EEF70001697C5010051
:102A0000938545E44DB5171700200347673E85477A
:102A100097C50100938585E3E317F7E8C5B79727C6
:102A2000002093872718A843EF704158AE862A8666
:102A300097C50100938505E265B5B717004083A7E8
:102A4000470A97C50100938525E213973701E34CA8
:102A500007E497C50100938525E3B1B52286CA85B1
:102A60001385C17CEF707037A1BC411122C4216471
:102A70009305048099460146254506C697E0FF1F49
:102A8000E780601A930504802244B2409946138679
:102A900001822945410117E3FF1F6700C31899E12F
:102AA0000145828075DD011152C403DA418226CAD4
:102AB00093548A008504A204C204C18056C2B38A1A
:102AC0004441C20A22CC4AC82E862E842A8997C540
:102AD000010093852502254593DA0A014EC606CEEC
:102AE00093890182EFB0A02863ED8A0883D54182E3
:102AF00093F7F50FB1CF8D6783D541829387078018
:102B0000A2864A86BE95294597E0FF1FE780A0115F
:102B10001375F50F29ED83D749001566A297239207
:102B2000F18203D7418283D721826309F70063F3DF
:102B3000E700B297998F139607014182254597C503
:102B400001009385A5FCEFB080221375F40F0DA052
:102B50008D6793870780930600100146BE95254533
:102B600097E0FF1FE780200C1375F50F49D501454D
:102B7000F2406244D2444249B249224A924A056133
:102B80008280B3079440D297C207C183A18303C751
:102B90004900850793F7F70F9396870011EB93860B
:102BA000170093740AF0A206C204C206C180C18253
:102BB00083D7218263F6F40033879600E3C9E7FAEE
:102BC0000D6A130A0A800146B3854401254597E042
:102BD000FF1FE78040051375F50F51F983D541823A
:102BE000A2864A86D29505B7411122C41384018278
:102BF00022858145194606C697E0FF1FE780C03C45
:102C00009307B0FA2300F4008D352244B24097C5F3
:102C100001009385A5E6254541016FA0107FA165C0
:102C20004111994613860182938505802D4506C67C
:102C300097E0FF1FE78020FF03C701829307B00AD8
:102C40006303F7005537B24083D6418203D6218211
:102C500097C50100938545E3254541016FB02011DB
:102C600083D7C18C0145638C071003D5E18C636663
:102C7000F50023A6018C014582803385A740D1470A
:102C80003355F5021375F50F01E52396018C82800B
:102C9000130101BD232481422326114223229142A4
:102CA00023202143232E3141232C4141232A51410A
:102CB00095471374F50F63F3A7001544228697C553
:102CC0000100938565E62545EFB0600A014981441E
:102CD0009389018D514AA14A9377F90F03D5E18C6D
:102CE000171700200347570063E98704D1473304CF
:102CF000F4022A942397818CA147631CF706A685CA
:102D00000808EF40A01303D7E18C83D7C18C054599
:102D10006364F70023A6018C8320C142032481420F
:102D200083244142032901428329C141032A81416D
:102D3000832A4141130101438280B30749031408E8
:102D4000AA97CE9733859600631E5701BE85EF4044
:102D5000602E2317A1008357E1000509BE94C20429
:102D6000C1809DBFAA851306E1003E85EF90602ECD
:102D7000DDB726860C080145EF50507169B7828097
:102D8000011106CE22CC26CA4AC84EC691E901449A
:102D90002285F2406244D2444249B24905618280B0
:102DA000AA8975D583D7418203D621822E84956462
:102DB000638AC7006374F60015673A961D8E9314F4
:102DC0000601C180268697C50100938525C8254543
:102DD000EFA0F079938714F06356F4009307F00F97
:102DE00063EA970097C501009385C5C72545EFA005
:102DF000107871BF83D4418233878400956763C79D
:102E0000E700A2854E8561398D3159B715693309BF
:102E10009940420913590901CA854E85493125D97E
:102E2000ED75A695A295C20523920182C1813385D5
:102E30002901D1BF83D6C18C81EA97C50100938552
:102E4000E5C825456FA0705C03D6E18C4111918ED9
:102E500097C50100938585C8254506C6EFA030714A
:102E60001387C18C8355070083D7E18C1385018DAF
:102E70009D8DC2053E95C1812137B24023A6018CAC
:102E800041018280411183D7C18C22C426C206C66B
:102E9000AE971307401FAA842E84635AF700593F48
:102EA00097C50100938545C02545EFA0105683D7EF
:102EB000C18C1385018D2286A6853E95EF70E13A7F
:102EC00003D6C18C229642062244B24092444182EB
:102ED0002396C18C97C50100938585BE2545410188
:102EE0006FA0F068011126CA06CE22CC4AC84EC691
:102EF00052C456C2814451C1C9C183D7218203D46F
:102F00004182638C870663F487081D8C42044180EC
:102F1000AE892A89228697C501009385A5AF014510
:102F2000EFA0F064A28463F38900CE84C2040D6A2A
:102F300083D7218203D74182C180938A0182130AF9
:102F40000A8063F9E704A6864A86B38547012D45C2
:102F500097E0FF1FE78020CD83D72A00A697239113
:102F6000F182213683D6418203D6218297C50100A2
:102F7000938585AB2545EFA0905FF240624426859E
:102F80004249D244B249224A924A05618280156779
:102F90003A94A5BF15671D8FB385470163D5E4003B
:102FA000A6864A866DB79569B389F9406D743E94DB
:102FB000C20993D909012694CE864A8642042D453A
:102FC00097E0FF1FE78020C64180A28633063901C3
:102FD000D2852D452391018297E0FF1FE780A0C491
:102FE00083D72A003E9423918182A5BF13068007D0
:102FF0008145138501EF17E3FF1F6700E3FC39717B
:1030000026DA4AD84ED652D456D25AD006DE22DC20
:1030100062CE66CC2A89EF70717C9374F50F81497A
:10302000254BE54A17CA0100130A4AB191ECF25048
:1030300062544E85D2544259B259225A925A025B76
:10304000724CE24C2161828003470900930707FD1F
:1030500093F7F70F637CFB009307F7F993F7F70FEC
:1030600063E2FA06930797FA93F7F70F1394870131
:103070006184FD14230089002685EF6081442A863F
:10308000AE8603250A0083254A0093F4F40F050950
:10309000EFE0C04F2AC422852EC6EF60814222464F
:1030A000B246EF50A1722A8C4E85AE8CEF608148FB
:1030B0002A86AE866285E685EF403106EF60A13A4A
:1030C000AA89ADB79306F7FB93F6F60F8147E3EFB6
:1030D000DAF8930797FC49BF411122C406C683075B
:1030E00095022A8499C713059502EF704115238133
:1030F000A1F28307D41291CB1305D412EF70C11340
:10310000EF609175938701EFC8D3B240224441012B
:10311000828041114AC01309150022C497C50100DD
:10312000938545B02A844A8526C206C6EFA070540E
:10313000854419E997C50100938505AF4A85EFA03D
:1031400050536301051089448307D4036386070E37
:1031500013059402EF70A10E8947638AF4108D471E
:103160006380F41E85476399F40C1305D403EF7054
:10317000010DA382A1F283C7818299EB7946814533
:10318000138571F423849182A3840182EFF06F840C
:103190000307D408930700036301F7021305D4085B
:1031A000EF70E10903C7918293071700A384F182AE
:1031B000938701EFBA97A38BA7040307D40D930756
:1031C00000036301F7021305D40DEF70410703C735
:1031D000918293071700A384F182938701EFBA9736
:1031E000A38BA7040307D412930700036301F7021C
:1031F0001305D412EF70A10403C79182930717003F
:10320000A384F182938701EFBA97A38BA7040307E6
:10321000D417930700036301F7021305D417EF7067
:10322000010203C7918293071700A384F182938759
:1032300001EFBA97A38BA704B240224492440249FB
:103240004101828097C501009385459E4A85EFA084
:103250005042E31A05EE97C501009385659D4A85A6
:10326000EFA030418144E30105EE8D44F1BD13052B
:10327000D403EF60D17C2383A1F283C7718281EFF5
:10328000854779468145138591F2A383F182238393
:103290000182EFE01FF40307D408930700036301E2
:1032A000F7021305D408EF60917903C76182930791
:1032B00017002383F182938701EFBA97A38CA702AB
:1032C0000307D40D930700036301F7021305D40D20
:1032D000EF60F17603C76182930717002383F182C1
:1032E000938701EFBA97A38CA7020307D412930721
:1032F00000036301F7021305D412EF60517403C792
:103300006182930717002383F182938701EFBA97B5
:10331000A38CA7020307D41793070003E30EF7F06B
:103320001305D417EF60B17103C7618293071700CB
:103330002383F182938701EFBA97A38CA702EDBD97
:103340001305D403EF60B16FA383A1F2F5B541116A
:1033500022C406C6830795072A8499C713059507D3
:10336000EF60F16DA381A1F28307D40899C713051B
:10337000D408EF60D16C2382A1F28307540B91CB68
:103380001305540BEF60516BEF60114D938701EF04
:1033900088D7B240224441018280011126CA814669
:1033A000B284014652C456C206CE22CC4AC84EC68A
:1033B0002A8AAE8AEF50A12441CD9307E0046386A8
:1033C000F400930730056395F40897C901009389C9
:1033D000698303A6090083A649005285D685EF506C
:1033E000E13E37949800EF600108130404682A89CD
:1033F00033758502EF60011403A6090083A6490016
:10340000EF40B14497C70100938747809043D4436E
:10341000EF40B1432A8A33558902AE8AEF608111A9
:103420002A86AE865285D685EF40214F1307300598
:10343000AE876395E400B7070080AD8FF240624429
:10344000D2444249B249224A924ABE8505618280ED
:1034500001458147E5B7011126CA8146B28401467C
:1034600052C456C206CE22CC4AC84EC62A8AAE8A5A
:10347000EF50E11841CD930750046386F4009307A1
:1034800070056395F40897B901009389A97703A69D
:10349000090083A649005285D685EF502133379421
:1034A0009800EF50517C130404682A893375850213
:1034B000EF60410803A6090083A64900EF40F138F8
:1034C00097B70100938787749043D443EF40F13757
:1034D0002A8A33558902AE8AEF60C1052A86AE86F4
:1034E0005285D685EF40614313077005AE8763951B
:1034F000E400B7070080AD8FF2406244D2444249F5
:10350000B249224A924ABE850561828001458147BF
:10351000E5B7135785009357050113D885009376B7
:10352000F50F01111377F70F93F7F70F618593F5F7
:10353000F50F1378F80F99C211C3B9E3230CD1002A
:10354000A30CE100230DF100A30DA100034591019F
:10355000834781010347A1012205A30E0101420710
:10356000C98F230EB1000345B101D98F0347D101A3
:103570008345C101620522075D8DD98D0561828079
:1035800032951375F50F13138501135383415D466F
:103590006357660861463363C30285071376D70F06
:1035A000114593F7F70F6305A6002545631AA6009A
:1035B0007946637FF60205071377F70F85470DA855
:1035C00009466312C7041386067D93084006B36854
:1035D00016036385080013F5360011C5130500199D
:1035E0003366A60219EE75466374F60085470D47EB
:1035F000230CD100A30CE100230DF100A30D610009
:10360000B1B77146D5B77D46E374F6FEB147E31412
:10361000F7FA850693F6F60F85470547D1BFE359BC
:1036200003FC6105FD171313850193F7F70F13537F
:103630008341DDFF7D171377F70F1146F947E30943
:10364000C7FA1946E306C7FA2546E303C7FA2D462B
:10365000E300C7FA89476316F7021386067D9307CE
:103660004006B367F60291C793F83600F547E38149
:1036700008F893070019B367F60293B71700F1072C
:1036800085BFFD4735F7FD1693F6F60F31478DB729
:1036900083471500034705000111A2075D8F83478B
:1036A00025008346350083454500C207D98F03476F
:1036B000550022CC170400201304844C0306742404
:1036C000E206220733E5F600D98D06CE9935135868
:1036D00085001356050193D7850013F7F50F93F76F
:1036E000F70F935685011376F60F9375F80F137540
:1036F000F50FEF70006B83471400054793F7B70F82
:103700006397E7006244F24005616F700079F24010
:10371000624405618280497181451306C0124810D8
:1037200023248116232611162322911623202117E4
:10373000232E3115138401EFEFE0BFA98307640046
:1037400097B5010093850555B9C383073403054731
:1037500097B501009385854F638BE702094797B5BD
:1037600001009385654F6384E702114797B5010017
:103770009385854F638DE700154797B501009385C5
:10378000654F6386E70097B501009385254F481084
:10379000EF70B1034810EF707104830734004410D8
:1037A00083C851EF03C841EF03C721EF83C611EF70
:1037B00003C601EF97B501009385854E2695EF70FE
:1037C000617C4810EF70910118485C4803060403BF
:1037D0003AC03EC2030814035C441844541097B521
:1037E00001009385E54D3695EF70C1794810EF7073
:1037F000E17E5C103E958307640017B60100130656
:10380000E64389E717B601001306C64397C50100D2
:103810009385C501EF7001774810EF70217C544CFF
:10382000104C5C1097B501009385854A3E95EF706A
:1038300061754810EF70817A030634035C103E9581
:1038400097B5010093858549EF70C1734810EF70FB
:10385000E17803072403AA8448503ACE138401EF89
:10386000EF60C17472475C10AE862A8697B501007E
:103870009385C54733859700EF70C1704810EF708E
:10388000E1755C1003C641F297B501009385854749
:103890003E95EF70216F4810EF7041745C1097B542
:1038A0000100938525473E95EF7021721389E1F061
:1038B000A28497C901009389E9F603C6740519CA61
:1038C000481032CEEF70817172465C10CE853E9505
:1038D000EF70416B8504E31299FE4810EF700170A0
:1038E0005C1097B50100938565433E95EF70E16DDF
:1038F00097C40100938404F30346940319CA481043
:1039000032CEEF70A16D72465C10A6853E95EF70C9
:1039100061670504E31289FE4C102545EFA0E02EF7
:103920008320C1160324811683244116032901161E
:103930008329C11575618280411122C406C626C241
:10394000830755012A84B9C7A946938707FDB38722
:10395000D70203476501130707FDBA97A389F1EE64
:103960000307750183478501130707FD3307D70256
:10397000938707FD3E97238AE1EE8307950103476E
:10398000A501938707FDB387D702130707FDBA97F1
:10399000A38AF1EE8307940281CB1307100463918D
:1039A000E7148547238BF1EE8307D403938401EF5B
:1039B00099C71305D403EF60310888C4CCC403064B
:1039C000140509CA8844CC442380C1F2EFF0FF9C5F
:1039D00088C4CCC48307540699C713055406EF6006
:1039E000B10588C8CCC80306940709CA8848CC48E2
:1039F000A380C1F2EFF03FA688C8CCC88307D408E3
:103A000099CF1305D408EF60310397B7010093876E
:103A100067229043D443EF40715B88CCCCCC8307C2
:103A2000140A99C71305140AEF6071012398A1F0D5
:103A30008307540BB9C7A946938707FDB387D702FD
:103A40000347640B130707FDBA972389F1EE0307B9
:103A5000740B8347840B130707FD3307D702938743
:103A600007FD3E97A388E1EE8307940B0347A40B61
:103A7000938707FDB387D702130707FDBA972388FB
:103A8000F1EE83853400856703C641EF938707E134
:103A90001307C0033307E60283C651EFB387F5026D
:103AA000BA97B69723AEF1F0171700201307870FC8
:103AB000835707003A8413F5870029E503856400DE
:103AC00005476311E5040387340311EF8844CC44B0
:103AD00001468146EF40B13215E9238B01EE89A8FA
:103AE000238B01EED1B503C721EF6DD3E5D179DE8C
:103AF000F1DE93E78700138501EF171700202313EA
:103B0000F70A793683876400F1F3C1BF8848CC484F
:103B100001468146EF40B12E69D183C721EFD5DF41
:103B200013068007938501EF138581E7EF60E1734A
:103B300003C581B29D4705053365F502130680076D
:103B4000938501EF2384A1B2930780073305F50223
:103B5000938701B33E95EF604171753E1C58130683
:103B600080078145138501EF171700202328F706EA
:103B7000EFE02FE6B240224423840182A383018236
:103B80009244410182800171232C811E232A911EBF
:103B90001306101E2A84AE8468008145232E111E50
:103BA0002328211FEFE0EFE28145814701470146CD
:103BB0005148CD485D436340960899C12306F10002
:103BC0001306A002A6852285EFA0E0288347C10046
:103BD00051473386A440B387E70293051500780068
:103BE0007D16A29585073305F700EF60016813067F
:103BF000A002A685228503491400EFA0C0258947AD
:103C000063C3A7080345C100D1473305F5027C0013
:103C100005053E95EFF0AFBE631CA904194697B5A4
:103C20000100938525FF1305D100EFA0403025C585
:103C30006800193335A8B306C40003C5060093060F
:103C400065FD93F6D60F91EA850793F7F70F636149
:103C5000F302854501470506B9BFB3860703130E76
:103C6000011FF296BA96A38EA6E00507E3D5E8FEFB
:103C70008320C11F0324811F8324411F0329011FA7
:103C80001301012082803307F400034707008507F2
:103C90003349E900B5B7194697B501009385C5F7D3
:103CA0001305D100EFA0A02821E5194697B5010022
:103CB0009385C5F61305D100EFA0602719ED1946CD
:103CC00097B501009385C5F51305D100EFA0202617
:103CD00045D16800EFF0EFC361BF13063006A2853F
:103CE000138541ACEF7061336800EFF04FE649B7E0
:103CF0006800EFF06FBEADBF757122C526C34AC123
:103D0000CEDED2DCD6DADAD806C7AA892E8981447B
:103D100001448147130A4002854A354B1397040139
:103D20004183636C2701BA402A449A440A49F659F0
:103D3000665AD65A465B49618280338799000347A9
:103D4000070063004703639C5701631D67019C18CC
:103D5000A297A2856800238E07F835358147850430
:103D600075BF01449C18A29705041374F40F238EA9
:103D7000E7F893373406E5B7411106C6138581B2DB
:103D800083470500130780078145B387E7021306C1
:103D90008007A1073E95EFE0CFC3B24081451145B2
:103DA00041016FA05016138581B2834705001307A8
:103DB0008007B387E702A1073E958280138581E7DC
:103DC0008280138541AC828097170020938787DD1E
:103DD000D85789476305F70023A60182828093871D
:103DE000C1829C43850723A6F18217070020035751
:103DF000A7FD63E6E7261307800783C781B2B38771
:103E0000E702138781B2BA970387E70063090724A3
:103E1000517186D7A2D5A6D3CAD1CECFD2CDD6CB1B
:103E2000DAC9DEC7E2C5E6C3EAC16EDF03C741F8FF
:103E300003A8070183A84701884FCC4F138381F65D
:103E400025E398472328A300232AB30023A4E1F6FF
:103E500003D7C700DC5B42862396E1F623A0F1F886
:103E600085472382F1F82A87AE87C68697B5010079
:103E70009385C5CF25452324030123261301EF9005
:103E8000106FBE502E549E540E59FE496E4ADE4AA3
:103E90004E4BBE4B2E4C9E4C0E4DFA5D6D6182809A
:103EA00097BC0100938C0CCA03A60C0083A64C009F
:103EB000032483008324C3000329030183294301CE
:103EC0003EDE42D846DA17BC0100130C2CC8EF4086
:103ED000F10F03260C0083264C00EF40011703A6C8
:103EE0000C0083A64C002A8BAE8B4A85CE85EF4012
:103EF000F10D03260C0083264C00EF4001152A8AA1
:103F0000AE8A2A86AE865A85DE85EF40B15797BEC7
:103F10000100938E2EC403A60E0083A64E00EF4030
:103F2000F10AEFD080512AD42ED65A85DE85EFD003
:103F3000A0472A8BAE8B5285D685EFD0E046D2586B
:103F400042582A8DAE8D4285C6852286A686EF40D0
:103F5000715303A60C0083A64C00EF403107832663
:103F60004C0003260C00EF40410E97BE0100938EDB
:103F70006EBE03A60E0083A64E00EF403105EFD0C3
:103F8000C04B2A8AAE8A6A86EE865A85DE85EF4065
:103F9000F1035286D686EF4071035286D686EF40F3
:103FA000F102225FB25F2A8A7A86FE867A85AE8A1D
:103FB000FE85EF40B1012A86AE865285D685EF3068
:103FC000D115EFD0100FEFD080502A86AE86EF309B
:103FD000D11417B70100130767B810435443EF40DB
:103FE000E17E17B701001307E7B710435443EF40D2
:103FF000E17DF2572ACC2ECED85B138381F60328BD
:1040000083013AC8904FD44F2A8A32C436C6984B9F
:10401000DC4B2286A686AE8A3AC03EC24A87CE874D
:1040200097B50100938505B7E800EF60B175EC0026
:104030002545EF90903D17050020034565BEEF50E4
:1040400041482A86AE865285D685EF40E161E35A23
:10405000A0E20545EFA0207223A601821DB5828053
:10406000914763E3C70A17B701001307E7CB0A06B6
:104070003A961C42411122C406C6BA972A84828706
:1040800097C501009385C52B1145EF901038A28587
:104090001145EF9090372244B24097C501009385B7
:1040A000E52B114541016F905036B9CA97070020A2
:1040B00083C7C7D481C79042EF40504A2244B240E0
:1040C0000146975500009385E5CF3D4541016F308E
:1040D000F0029DC62244C8C2B24003C5A600239484
:1040E000B6003686954541016F8080452244B24036
:1040F00041016FD0E0212244B24041016F30A04025
:10410000B2402244410182808280411106C6EF8084
:104110003059B24041016F80701F05456F70C01764
:1041200055715810930631021306210293051102AE
:10413000930751021305610286C7EF60704097171D
:104140000020938727A683D70700BD9B1717002061
:10415000231AF7A48939030305039305E004835662
:104160006102034711028347210203483102834859
:104170004102034E510217D60100130626A563160D
:10418000B30017A601001306A65C830E15031303E4
:104190005004032F8500832FC50097A50100938548
:1041A000255B63866E0097D50100938525A20323C6
:1041B0000501832345017AC41ACC1ECE7EC672C087
:1041C0002EC832C297B501009385C541170600205D
:1041D000130646822810EF60F15AEF80C06A28105B
:1041E000EF60D15F93870183904393150501938618
:1041F00081F82810C181AD35BE40696182804111CE
:1042000006C623A8B18201C61C4223A4F1F8970771
:10421000002083C757979DEB0545EFA0105C97B52D
:104220000100938525BE2545EF90301E971700208D
:1042300083D7479793E70701171700202314F796B2
:10424000EF80A063B24041016F40802205470545E1
:10425000639CE700EFA070580545EFA0C05197B5EB
:104260000100938565BBC1B7EFA030570545EFA0AE
:10427000805097B501009385A5BB75B7411122C445
:104280002A848307D40306C626C22E8589C713074E
:10429000F0036398E7021707002013073795970686
:1042A000002093869691170600201306F68D97B589
:1042B0000100938525C32244B240924441016F60BE
:1042C000714C97070020A381078C97070020A386D5
:1042D000078E97070020A38B0790034704008547AC
:1042E000AE8463FAE7009305D40317050020130595
:1042F000B589EF60914D8307940791CF0347040080
:10430000894763FAE7009305940717050020130512
:10431000D58AEF60914B8307540B91CF034704007C
:104320008D4763FAE7009305540B1705002013052A
:10433000F58BEF6091490146974500009385C509CB
:104340001305C012EF30805BEF50100117070020FB
:104350001307D78997060020938636861706002014
:104360001306968297B50100938505BA2685A1B7F5
:10437000411126C206C622C4034705008947AE8400
:1043800063F7E7029305D5032A841306200317F584
:10439000FF1F13056578EF60514813059407EF5030
:1043A000116A97F7FF1F239BA77CEF506075EF50B2
:1043B000207997F6FF1F83D6667C17F6FF1F13063A
:1043C000A67597B501009385E5182685EF60913BAA
:1043D000854797F5FF1F9385E56117F5FF1F1305C7
:1043E000657217F7FF1FA303F768EF60113E97F59B
:1043F000FF1F9385757917F5FF1F13054567EF605C
:10440000D13C97F5FF1F9385557B17F5FF1F1305CB
:104410002569EF60913B97F5FF1F9385357D17F573
:10442000FF1F1305056BEF60513A97A501009385B7
:10443000251B17F5FF1F13054571EF601139EF506C
:10444000206C0146974500009385E5B37945EF3030
:10445000E04A2244B2409244014697750000938599
:1044600085E11305600941016F304049411122C4C3
:1044700026C24AC006C68307D503AE8417B9010019
:10448000130949D6170400201304C47189C7130700
:10449000F0036391E70417F5FF1F03455578EF50CC
:1044A00041020326090083264900EF30113AEF50FC
:1044B000B13A28C4EF50912FAE862A8697B50100F5
:1044C0009385C5D22244B2400249268592444101D7
:1044D0006F60512B1305D503EF50715697F7FF1FEF
:1044E000A38FA7721375F50FEF40B17D0326090066
:1044F00083264900EF307135EF50113628C4EF5054
:10450000A0652844EF50912AAE862A8697B501000F
:104510009385C5CF45BFAA870387D7032E8509C7D3
:104520009306F0036315D70297F7FF1F83C79765BC
:1045300017B60100130686C889E717C601001306DF
:10454000E6DD97B501009385E5C86F60B1234111A1
:104550001385D70306C622C42E84EF50514E97F719
:10456000FF1FA381A762EF50205F97F7FF1F83C74C
:10457000776197B501009385E5C489E797B5010098
:104580009385C5C422852244B24041016F60F12366
:10459000411126C206C6AA8422C48387D4032E856D
:1045A00089C71307F0036396E70497F7FF1F83C7D4
:1045B000975D05476385E70289CB09476386E70274
:1045C000B240224492444101828097B50100938514
:1045D000E5CD2244B240924441016F60111F97B56E
:1045E0000100938525CFF5B797B50100938545D197
:1045F000CDB79384D4032E84268597B50100938587
:1046000025D3EF60D1231DC1894717F7FF1FA30CE6
:10461000F75697B501009385E5D52285EF60F11A2D
:104620002244B240924441016F5000532685EF501E
:1046300011411375F50F97F7FF1FA386A754854700
:1046400097B50100938505D1E309F5FC97B5010005
:10465000938585CE79D18947E30DF5FA17F7FF1FCA
:10466000A303F75297B50100938505D37DB7411198
:104670002E8597B501009385A5D506C6EF60F11488
:10468000014697450000938505907945EF30002756
:10469000B2400146977500009385E5BD130560099A
:1046A00041016F30A025411122C426C206C68307EE
:1046B000D503AE8417F4FF1F1304844C89C7130776
:1046C000F003639BE7028306742417B60100130608
:1046D00066EC63D6060017A601001306660726855A
:1046E00097B50100938545EBEF60D1092244B240B4
:1046F000924441016F90D02D1305D503EF50313412
:1047000097F7FF1FA381A76CEF90902C03067424EA
:1047100097B50100938505EA2545EF9040658347ED
:1047200074246147B10793F7F70F6377F700A14748
:1047300017F7FF1FA309F768EF50004283067424A0
:1047400017B60100130606E563D6060017A601009A
:10475000130606002244B2402685924497B5010014
:104760009385C5E541016F60F101797122D493070A
:10477000D1012E8478089306B1011306A101930597
:1047800091011305E10106D6EF60805B8348D101FA
:104790000348C1018347B1010347A1018346910149
:1047A0000356E10197B501009385858F2285EF605F
:1047B000617D2285EF609102970700209387873EF5
:1047C0008C5B03A887030566130606E19306C00306
:1047D00033F3C50222953377D802B378C8023AC0C2
:1047E000DC5733F7D502B3D8D8023358C802B356D2
:1047F000D30233D6C50297B501009385A58CEF602F
:1048000061782285EF60817D2A94EF80507917B618
:1048100001001306A68809C517B601001306C6874E
:1048200097B501009385058E2285EF60A1759547A8
:1048300017F7FF1FA302F75C17F7FF1F2307F720E7
:10484000EF508031EF504036B250225445618280A3
:10485000AA870387D7032E8509C79306F003631140
:10486000D70297F7FF1F83C7273297A501009385CB
:10487000E55D89E797A50100938545606F60E17468
:1048800041111385D70322C406C62E84EF50311B75
:104890001375F50F97F7FF1F2388A72E17F7FF1F34
:1048A0000347172E89476316F7000DE91145EF906E
:1048B000906C97F7FF1F83C7272D97A5010093855D
:1048C000655D89E797A50100938505602285EF6006
:1048D000C16F2244B24041016F5000281145EF9052
:1048E000706CC1BFAA870387D7032E8509C79306BB
:1048F000F003631ED70297F7FF1F83C7C72805473A
:10490000638DE70089C70947638EE700828097A51A
:104910000100938525626F60416B97A50100938527
:10492000A565D5BF97A501009385C56AEDB741116F
:104930001385D70322C406C62E84EF505110137579
:10494000F50F97F7FF1F2380A724854797A5010040
:10495000938585626306F50297A501009385855DC1
:1049600005C1894797A501009385C566630AF500CF
:1049700017F7FF1F2309F72097A501009385456BC3
:104980002285EF6081642244B24041016F50C01C17
:10499000AA870387D7032E8509C79306F003631CF4
:1049A000D70017F6FF1F0346A62797A5010093859A
:1049B000657B6F60215D41111385D70306C622C454
:1049C0002E84EF50510897F7FF1F238BA724EF5039
:1049D000A01822852244B24017F6FF1F0346462442
:1049E00097A501009385457A4101E1B7411122C4A1
:1049F000130550042E84814506C6EF30500FEF504A
:104A0000E00A2A8622852244B24097A501009385B8
:104A1000257A41016F600157411122C41305D50366
:104A20002E8497A501009385E56E06C6EF9060443D
:104A300011CD0145EF50C01C97A501009385456E2F
:104A400022852244B24041016F6021580545EF5054
:104A5000201B97A501009385656EDDB7411122C427
:104A60002A848307D40306C626C22E8589C7130766
:104A7000F003639CE70297F7FF1F9387D72317F78D
:104A8000FF1F1307372097F6FF1F83D6063517F64B
:104A9000FF1F1306161C97B501009385A5952244A8
:104AA000B240924441016F60E14DAE8417F5FF1FA3
:104AB0001305351A9305D403EF60215117F5FF1F35
:104AC00013053519EF60815193150501C18117F563
:104AD000FF1F13051518EF90E0708307940789CB2B
:104AE00013059407EF50A17597F7FF1F2397A72E83
:104AF0008307540B85CB9305540B17F5FF1F130544
:104B00007518EF60814C17F5FF1F1305B517EF609F
:104B1000E14C93150501C18117F5FF1F130595168B
:104B2000EF90406C8307140F85CB9305140F17F596
:104B3000FF1F13055518EF60414917F5FF1F1305B7
:104B40009517EF60A14993150501C18117F5FF1F66
:104B500013057516EF900069EF50000097F7FF1FDF
:104B60009387771517F7FF1F1307D71197F6FF1FC6
:104B700083D6A62617F6FF1F1306B60D97B50100BC
:104B800093858588268521BFAA870387D7032E852D
:104B900009C79306F003631CD70017F6FF1F0356DF
:104BA000A62297B50100938565986F60A13D4111DC
:104BB0001385D70306C622C42E84EF50416813160E
:104BC000050197F7FF1F2391A720418297B50100A8
:104BD000938505972285EF60E13A97F7FF1F83C71A
:104BE00037FA09476388E700ED1793F7F70F054792
:104BF000636AF70097F7FF1F83D7071D89EB094505
:104C0000EF90503A2244B24041016F40F074EF906F
:104C1000B02775D517F7FF1F0357071B93077007BA
:104C2000E3EFE7FC0945EF901035E9BFAA8703875A
:104C3000D7032E8509C79306F0036313D70697F7AA
:104C4000FF1F83C7071B05476389E70289CF094711
:104C5000638EE7020D476380E70497B501009385F3
:104C6000E5856F60813617A601001306E67B97A5E0
:104C700001009385E57C6F60E13017A60100130603
:104C8000E67C97A501009385657DF5B717A6010021
:104C90001306467FFDB717A601001306E67FD5B7BA
:104CA00041111385D70322C426C206C62E84EF50B5
:104CB00001591375F50F97F7FF1F238CA712854431
:104CC000630295041DC18947630AF5048D47630C8F
:104CD000F50497B50100938565822285EF60E12E8A
:104CE00097F7FF1F2387971001A897A501009385C9
:104CF000657D2285EF60612D2244B24092444101DE
:104D00006F40906517A601001306467497A5010031
:104D10009385857C2285EF60E126F9BF17A6010007
:104D200013064676E5B717A601001306E676F9BF27
:104D3000411122C42A848307D40306C626C24AC06E
:104D40002E8589C71307F003639DE70497F7FF1FBC
:104D500083C7170A85CF2244B2409244024997F68E
:104D6000FF1F83D6060897F7FF1F9387B70217F731
:104D7000FF1F1307F70017F6FF1F130656FD97A531
:104D800001009385E54C41016F60C11F2244B24090
:104D90009244024997A501009385454D41016F60FA
:104DA000C1221305D403AE84EF50614945C1EF9091
:104DB000B00D19C1EF80404B0545EF80D02D8547E0
:104DC00079469305940717F5FF1F130555F817F754
:104DD000FF1FA30FF700EF6041241305540BEF50A2
:104DE000014697F7FF1F239EA7FE2A895146930588
:104DF000140F17F5FF1F1305B5F8EF600122130616
:104E000020039305D41217F5FF1F1305B5F8EF60C3
:104E1000C1209316090197F7FF1F9387B7F717F77C
:104E2000FF1F1307F7F5C18217F6FF1F130636F2AF
:104E300097A501009385C5442685EF60A1142244FF
:104E4000B2409244024941016F40105197A50100C0
:104E50009385C544268597F7FF1FA38B07F8EF605E
:104E6000C116EF808042E1BF130101B9232A5145E9
:104E7000B28A2E86AA85E80023261146232481467D
:104E80002322914623202147232E314523286145A3
:104E9000232C4145368B232671452324814523222B
:104EA00091452320A145232EB143EF9020231305E4
:104EB000D104EF60A11293150501C1811305D1043E
:104EC00097A4010093848477EF90C02D0144268934
:104ED0009309C002C8409305D104EF8090710DC9B9
:104EE0000E044A9483170400139707012308012234
:104EF00041839306B00263F4E6006F10806917A740
:104F000001001307A7E38A07BA979C43BA978287E1
:104F10000504A104E31034FDFD57F9B717F7FF1F8F
:104F2000034797DCA1476312F70C19464C1017F59D
:104F3000FF1F130565ADEF90E008081C2308010270
:104F4000001CEF60A10997F7FF1F83D727E917F728
:104F5000FF1F1307B7DC97F6FF1F9386A6A9501013
:104F600097B50100938585892295EF60A101081C02
:104F7000EF60C1061C1C17F6FF1F1306F6C03E9516
:104F800097B501009385458AEF50D17F081CEF60EB
:104F9000E1041C1C3E9597F7FF1F938767BE83862D
:104FA000772417A601001306E65E63D6060017965F
:104FB00001001306E67997B5010093856587EF50E8
:104FC000717C17F4FF1F0344B4BB9307F4FF93F7FE
:104FD000F70F15476363F71017A70100130707E1E1
:104FE0008A07BA979C43BA978287081CEF50117FB3
:104FF0001C1C17F7FF1F0357A7DE97F6FF1F9386AA
:1050000036C217F6FF1F1306E69E97B5010093857B
:10501000A5803E95EF50117799BF081CEF50117C89
:105020001C1C3E95854797B5010093852581630635
:10503000F40097B501009385E580C164EF50F178E5
:1050400017F4FF1F1304C4B317FAFF1F130AEAB3C0
:10505000FD149309C00397AB0100938B2B7F035979
:10506000A424630E9900081CEF505177B3763903DE
:105070001C1CDE853E9533563903EF50B170090490
:10508000E31F8AFC081CEF50717517F6FF1F0346DB
:1050900056AF97A501009385257C1C1C3E95BDA8A5
:1050A00017F6FF1F035646D297F6FF1F83D686D208
:1050B000081C32CE36CCEF50717272461C1C3E95E5
:1050C000E24621C297A501009385057AA1CA97A55A
:1050D00001009385257AEF50F16A081CEF5011709A
:1050E0001C1C97F6FF1F83D6E69517F6FF1F035685
:1050F000869597B50100938565813E95EF5091683F
:1051000025AE81EA97A501009385C577EF50F16B35
:10511000E9B7368697A501009385C577EF5091666C
:105120006DBF081CEF50916B17F6FF1F035686CA20
:1051300097A501009385C5768DB7081CEF50116ABD
:1051400017F6FF1F035606C997A5010093858576BC
:10515000A9B7081CEF5091681C1C3E95C16717F455
:10516000FF1F035484C9FD176303F4021307C00330
:10517000B356E402E147114697A501009385C57433
:105180003377E402B3F6F602EF50D15FB9B71146B8
:1051900097A501009385857551B7EF30D0379704F7
:1051A0000020938424A0EF606003A840EF401160CA
:1051B0002A86AE86081C97A501009385A576EF5038
:1051C000715C9707002083C7779E638E0716EFE018
:1051D0009FBD2A84081CEF5071601C1C3E958307FC
:1051E000640017A601001306665B89E717A6010095
:1051F000130646A597A501009385C573EF509158F6
:10520000081CEF50B15D2A894850EF40315A1C1CF0
:105210002A86AE863385270197A5010093850572FE
:10522000EF5051560306340389476311F60E081CEC
:10523000EF50D15A1C1C094697A501009385C570F3
:105240003E95EF503154081CEF5051591C1C3384CB
:10525000A700EF90604317A601001306A65409E5C6
:1052600017A601001306465497A5010093854574BF
:105270002285EF503151081CEF5051562A84EF40DF
:10528000D0011C1C2A8697A501009385E572338501
:105290008700EF50314F081CEF5051541C1C3384D1
:1052A000A700EF90804217A601001306265009E5DB
:1052B00017A601001306465097A501009385857037
:1052C0002285EF50314C081CEF5051511C1C338487
:1052D000A700EF80C04717A601001306E6DB09E52B
:1052E00017A60100130686DB97A501009385456E7E
:1052F0002285EF503149081CEF50514EF04C97A5D4
:1053000001009385A56D1C1C3E95C9AA081C32CCD2
:10531000EF50D14C62461C1C3E9591476318F60035
:10532000114697A501009385E56321BF954797A591
:1053300001009385A565E316F6F0154697A50100D3
:1053400093858563FDBD081CEF5051491C1C97A532
:105350000100938525653E95EF503147EDB517A7C0
:1053600001001307676897A601009386A668179641
:1053700001001306E62697A5010093856568081CC1
:10538000E9AA8307510C6384071283071110638015
:10539000071213059108EF40916A1375F50F238AE0
:1053A000A182A147130620039305510C6313F50A4C
:1053B00017F5FF1F13059596EF50314617F5FF1FA0
:1053C0001305D595EF50914193150501C18117F54E
:1053D000FF1F1305B594EF80F06013051110EF4027
:1053E00011669316050197F7FF1F2399A79EC182A7
:1053F00017F6FF1F1306969297A501009385056285
:10540000081CEF50313883C741832147639CE7086C
:1054100017F7FF1FA30AF78C97E7FF1FA389075E03
:10542000EF408073EF404078014697F5FFFF93858A
:1054300005CE7945EF20804C081CEF50313A93158A
:105440000501DA865686C181081CEFE07FC16F0036
:10545000A06C17E5FF1F1305B57CEF50113C17E555
:10546000FF1F1305F57BEF50713793150501C181BF
:1054700017E5FF1F1305D57AEF80D05613051110DD
:10548000EF40F15B9316050197F7FF1F239AA7944E
:10549000C18217E6FF1F1306B67897A50100938512
:1054A000A559B9BF97F7FF1FA380078495BF97A59C
:1054B00001009385E559081C6F00F065830791088A
:1054C00089C71307F003639EE70017E6FF1F034633
:1054D000666B97A501009385655A081CEF50912AC9
:1054E000A1BF13059108EF40915597E7FF1F238B4C
:1054F000A768EF40606617E6FF1F0346A66897A5FA
:1055000001009385E55AD1BF8307910889C7130726
:10551000F003639BE70617E6FF1F03467666914795
:105520006317F604081CEF50712B1C1C3E95C167D5
:1055300017F4FF1F0354648CFD176303F402130771
:10554000C003B356E402E147114697A501009385D5
:10555000E5593377E402B3F6F602EF50B122E9BD24
:1055600097A501009385C55AEF50D121F1B517F7E2
:10557000FF1F0357278697F6FF1F83D6E68497A55C
:1055800001009385A55AE5BB97F7FF1F93878761B5
:105590009C5B1305910817F7FF1F232FF762EF405D
:1055A000114A2A84937BF50F1145EF90A01F1374C5
:1055B000F40F8D47630AF43A63C087028547630C92
:1055C000F40E8947630DF42C97B50100938585810E
:1055D000081CEF50911F61AAD547630EF40CDD47FC
:1055E0006304F4389147E311F4FE0347C10489478B
:1055F00063FFE7021305510CEF50511E75158547E7
:1056000063E1A74A1305510CEF4071434205418104
:1056100013074006B357E5029306C0033375E5024E
:10562000B387D702AA9717E7FF1F2318F77C914784
:1056300017E7FF1FA306F754C16717E7FF1F0357BC
:10564000C77BFD176304F700EF50D015EF904006BD
:105650000945EF90401801C50945EF90A0147D550C
:10566000EF904014EF907019EF90B01EEF70B03FC4
:105670000545EF5070420146974500009385E5458A
:1056800013052003EF208027416797E7FF1F83D78B
:10569000C7767D176387E7461307C003B3D6E702D3
:1056A000114697A501009385656E33F7E702E14740
:1056B000B3F6F602F1A60347C104894705498144C0
:1056C00063E6E712FD5717E7FF1F2310F770FD573A
:1056D00017E7FF1F232CF76E17E7FF1F232AF76E2C
:1056E00097E9FF1F9389C9494E8781474E8A93F6F0
:1056F000F70F090763E2961463130900054997E75A
:10570000FF1FA380274985476392FB14EF80507ADF
:105710000945EF90400C01C50945EF90A008854769
:10572000054517E7FF1FA30DF744EF50F03622861B
:1057300097A5010093858540081CEF50B1040144F2
:10574000130AC00397AB0100938B4B10081CEF505A
:10575000F1081C1C3E958909639684124A8697A518
:1057600001009385A53FEF50F101EF500073EF402A
:10577000A03ED9B193872900B3879703F800850726
:10578000BA973E853ECCEF5071057515E2476369C7
:10579000AD043E85EF40B12A4205418193070143A4
:1057A000060A3E9AB3578503850493F4F40F3375C4
:1057B0008503B387B703AA97231AFABE850993F91D
:1057C000F90F8347C104268AF917E3C5F9FA01479F
:1057D0009385F4FFE358B7EE8147B388E540B9A05D
:1057E0003E85EF40D1251379F50FC9BF8149930C50
:1057F000C003054D130C4006930DC003D9B7939613
:105800001700130601438507B2961305014313964B
:1058100017002A9603D846BF035546BF6376050195
:10582000231A06BF239AA6BE93F7F70FE3C917FD05
:1058300005071377F70F79BF939617005010B296AC
:1058400083D6060085072314D72455B5954705450B
:1058500017E7FF1FA306F732EF501024EF80D06246
:1058600011CD83578A2413076007FD17C207C18330
:105870006366F7000945EF80107055BD0945EF805C
:10588000707275B503D68924DE850504B3764603A8
:105890001374F40F33564603EF50C16E45BD0545F2
:1058A000EF50901F1305510CEF40711997E7FF1F40
:1058B000239CA75013051110EF40711897E7FF1FA5
:1058C000239AA75097E7FF1FA38C872A97E7FF1F0C
:1058D00083D7874F95E70945EF80D06C17E6FF1F08
:1058E0000356464F97A5010093854528E30206CE4F
:1058F00097A501009385852B081CEF50A16885BDF5
:10590000EF80905831CD97E7FF1F9387672783D7A4
:10591000872413076007FD17C207C1836362F7047A
:105920000945EF80506597E7FF1F83C7E72581E7AB
:105930001145EF80506497E6FF1F83D6A64917E60E
:10594000FF1F0356664897A501009385A52BCDD66A
:1059500097A5010093854530081CEF50A16201BD59
:105960000945EF803064C1B78D471305510C639D25
:10597000FB06EF40D10C09C91305510CEF40310C67
:1059800097E7FF1F2398A74417E7FF1F0357874494
:10599000914763E2E704954717E7FF1F231CF7428F
:1059A000EF8010510945EF80106301C50945EF8074
:1059B000705F8D47054517E7FF1FA303F71CEF50E6
:1059C000B00D97E6FF1F83D6E640228697A501001B
:1059D0009385853051B789679387F775E3F2E7FCC4
:1059E0008967938707764DBFEF40710509C9130595
:1059F000510CEF40D10497E7FF1F2397A73C1305F5
:105A00001110EF40D10309C913051110EF40310304
:105A100097E7FF1F2390A73C17E7FF1F0357873B1C
:105A2000914763E3E706954717E7FF1F2314F73A0B
:105A3000EF8090453DC197E7FF1F9387671483D799
:105A4000872413076007FD17C207C1836367F70444
:105A50000945EF8050529947054517E7FF1FA301FD
:105A6000F712EF50700317E7FF1F0357A73697E6AB
:105A7000FF1F83D66635228697A501009385452AA8
:105A8000081CEF502150E5B189679387F775E3F162
:105A9000E7FA89679387077641BF0945EF80905001
:105AA0005DBF1305510CEF40817919E1FD57A5BE8B
:105AB000914717E7FF1FA305F70CEF80703F0945DB
:105AC000EF80705101C50945EF80D04D7D55EF80C5
:105AD000704DEF908052EF90C057EF70C078054541
