:04C000006F20000E9F
:10C004000000000000000000900000204209002011
:10C01400A9BDF9F594000020000000000000000014
:10C02400960000209800002000000000000000009E
:10C034009A000020000000009C0000200000000086
:10C044009E0000201E030020A2030020A400002064
:10C05400A6000020A8000020AA000020AC000020B8
:10C06400AE000020B0000020C60000205A010020CD
:10C07400BE090020B8000020BA000020BC00002047
:10C08400BE000020EE01002086020020C400002033
:10C0940001A001A001A001A001A001A001A001A094
:10C0A40001A001A001A001A001A001A001A001A084
:10C0B40001A001A001A001A001A001A001A001A074
:10C0C40001A001A001A037370040834747009946EB
:10C0D4004111BD8B638CD70231476384E706114756
:10C0E400639EE702A3030100174600000346865D32
:10C0F40037370040834771006315F6022C0013851F
:10C10400C17D976001E0E780A05109A883475700EB
:10C1140093F7F70F2304F100834781004101730073
:10C12400203083477100834687000C08AE97238C28
:10C13400D7FE83477100850793F7F70FA303F10038
:10C1440055BF280097E001E0E78060B51375F50F4F
:10C15400A303A1000346710055B737370040834756
:10C16400474099464111BD8B638CD70231476384A4
:10C17400E7061147639EE702A30301001746000088
:10C184000346665437370040834771006315F6024F
:10C194002C001385017F976001E0E780604809A8BF
:10C1A4008347574093F7F70F2304F1008347810037
:10C1B40041017300203083477100834687400C0897
:10C1C400AE97238CD7FE83477100850793F7F70F4B
:10C1D400A303F10055BF280097E001E0E780E0BD2C
:10C1E4001375F50FA303A1000346710055B7374734
:10C1F40000408347478099464111BD8B638ED70227
:10C2040031476386E70611476390E704A3030100FF
:10C21400174600000346164B37470040834771001A
:10C224006317F6022C00173500001305650E97609E
:10C2340001E0E780E03E09A88347578093F7F70FB2
:10C244002304F100834781004101730020308347B8
:10C254007100834687800C08AE97238CD7FE8347F2
:10C264007100850793F7F70FA303F10045BF28007A
:10C2740097E001E0E78020C61375F50FA303A10042
:10C284000346710045B737470040834747C0994686
:10C294004111BD8B638ED70231476386E706114790
:10C2A4006390E704A303010017560000034666A247
:10C2B40037470040834771006317F6022C00173597
:10C2C400000013052506976001E0E780603509A8A2
:10C2D400834757C093F7F70F2304F1008347810086
:10C2E40041017300203083477100834687C00C08E6
:10C2F400AE97238CD7FE83477100850793F7F70F1A
:10C30400A303F10045BF280097E001E0E78060CE79
:10C314001375F50FA303A1000346710045B741113E
:10C3240026C4B714004022C603D4C4094204418081
:10C334009317140163DB0700A145014597C001E091
:10C34400E780008F9167239EF4089317340163DF1D
:10C3540007029757000083C777AD93E71700175775
:10C364000000A305F7ACB717004003A7470A85668A
:10C37400131637016351060203A7C70A558F23A674
:10C38400E70AB71700400567239EE7083244A24432
:10C3940041017300203003A7870A558F23A4E70ABD
:10C3A400CDB7975600009386A6A383D706000567EA
:10C3B40013070780D98F2390F600B7170040239FF7
:10C3C400070873002030411122C406C697370000C5
:10C3D40083C7277817540000130484A095CB8347A0
:10C3E400D404858B95C783570400139737016341A1
:10C3F40007028D45094597C001E0E78060839145B8
:10C40400175500000345E59F971002E0E780E071AF
:10C414009757000083D7C79C13F7074005CF13979E
:10C424003701634107028D45094597C001E0E78064
:10C4340020809145175500000345A59C971002E004
:10C44400E780A06E8357040093F7F7BF17570000E7
:10C454002318F798B2402244410182804111814659
:10C4640001468145114506C6EF00A077B727004075
:10C4740011472383E780B7F700E003A707D16D9B3B
:10C4840023A8E7D003A707D15D9B23A8E7D07300B7
:10C49400501001000100B2404101828041118146E7
:10C4A40081450146114506C62D2FB7270040114787
:10C4B4002383E780B717004003C7E70283C5E70477
:10C4C40083D7870391661377F70F93E5350063E508
:10C4D400D700719B13671700B71700401306700548
:10C4E4002380C704930680FA2380D7040100010047
:10C4F400238207022380C7042380D704010001009C
:10C504002387E7022387B7042380C7042380D70443
:10C514000100010003C7B70413670702A385E704FA
:10C524002380070437F700E0832507D193E545000E
:10C534002328B7D0832507D1DD992328B7D07300EA
:10C544005010010001002380C7042380D704010098
:10C55400010003C7B7041377F70DA385E70423800D
:10C564000704B240410182800111B7F5070022CCD3
:10C574008146E1052A840A86194506CE26CA02C0E8
:10C5840023120100B92DB717004003C7E70283C582
:10C59400E70483D7870391661377F70F93E5350094
:10C5A40063E5D700719B13671700B71700401306A4
:10C5B40070052380C704930680FA2380D704010002
:10C5C4000100238207022380C7042380D7040100CB
:10C5D40001002387E7022387B70423800704B7F504
:10C5E40000E003A705D11367470023A8E5D003D5CE
:10C5F40007026577110713750560418D598D420552
:10C60400418101002380C7042380D7040100010075
:10C6140003C7F70037F40700B7F400E01367070413
:10C62400A387E70003C7B704610413670702A38560
:10C63400E7042390A70283A704D1DD9B23A8F4D0A9
:10C64400730050100100010013056004352E81466B
:10C654003000A285194502C423160100592322473C
:10C664008247E31AF7FCB7170040130770052380CD
:10C67400E704130780FA2380E7040100010003C7DD
:10C68400B7041377F70DA385E70423800704F2406A
:10C694006244D2440561828001114EC6814601463E
:10C6A400AA898145114506CE22CC26CA4AC8152B33
:10C6B400B716004083C7E60203C7E60483D68603A1
:10C6C400116693F7F70F1367370063E5C600F19B14
:10C6D40093E717003714004013097005230024055D
:10C6E400930480FA2300940401000100230204024D
:10C6F4002300240523009404010001002307F4020D
:10C704002307E40423000404130550025920B7F757
:10C7140000E003A707D11367470023A8E7D023004D
:10C72400240523009404010001000347F400136767
:10C734000704A307E4002300240523009404010054
:10C7440001002567B3E9E9002310340303A707D1E7
:10C754005D9B23A8E7D073005010010001008146BF
:10C76400014681451145B52923002405230094047D
:10C77400010001008347640493E717002303F404D2
:10C7840023000404F2406244D2444249B2490561A0
:10C794008280B7170040930670052380D7041307DF
:10C7A40080FA2380E7040100010003C6B70413766E
:10C7B400F60DA385C70423800704137605024DC232
:10C7C40003C6A700118A1DE22380D7042380E7044F
:10C7D4000100010003C7A700136747002385E70092
:10C7E4009307004B01000100FD17EDFFB717004050
:10C7F400930670052380D704130780FA2380E70487
:10C80400010001007D892394A700010001000100BB
:10C814000100238007042380D7042380E704010058
:10C824000100010001003727004093061005A3030F
:10C83400D78023800704B7170040130770052380AF
:10C84400E704130780FA2380E7040100010003C70B
:10C85400B70413670708A385E704238007048280CD
:10C864001376050441C603C6A700418A1DE223804E
:10C87400D7042380E7040100010003C7A70013675E
:10C8840007012385E7009307007D01000100FD17E0
:10C89400EDFFB7170040930670052380D7041307F4
:10C8A40080FA2380E704010001001376F501136682
:10C8B40006042394C7000100010001000100238045
:10C8C40007042380D704130660042380E704631855
:10C8D400C5000100010037270040894689BF0100D7
:10C8E4000100372700409306200591B72380D70421
:10C8F4002380E7040100010003D787001367070CB6
:10C904002394E7000DBF411181460146814511453D
:10C9140006C6C12CB7170040130770052380E7042F
:10C92400130780FA2380E7040100010003C76704AA
:10C93400136717002383E70423800704B2404101EF
:10C9440082808146014681451145612CB71700401C
:10C95400930670052380D704130780FA2380E70425
:10C96400010001007D562396C7022380D70423804B
:10C97400E7040100010003C767041367170023835A
:10C98400E7042380070401A0BD473305F502010035
:10C994007D1575FD8280411122C426C206C6AA8473
:10C9A400014463179400B2402244924441018280BE
:10C9B40005041305803E4204C13F4180DDB7B7172B
:10C9C4000040130700032388E70285471747000048
:10C9D400232AF74873002030397122DC4ED656D210
:10C9E40037140040E57AB7F9070026DA52D45AD052
:10C9F4005ECE06DE4AD862CC2A8B916B9304040483
:10CA0400130A7005910AE1098347E4020347E40429
:10CA14008356840393F7F70F1367370063E57601B2
:10CA2400F19B93E7170023804401130980FA2380C4
:10CA34002401010001002302040223804401238015
:10CA44002401010001002307F4022307E4042380E6
:10CA5400040037F700E0832707D193E74700232832
:10CA6400F7D08357040293F70760B3E76701B3E78E
:10CA74005701C207C183010023804401238024019C
:10CA8400010001008346F400130CB40493E6060489
:10CA9400A307D4008346B40493E60602A305D40492
:10CAA4002310F402832707D1DD9B2328F7D07300DA
:10CAB40050100100010013056004F9353000CE85E3
:10CAC4008146194502C423160100212A11469745BF
:10CAD40000009385A539280011231DD593077005FF
:10CAE4002380F400238024010100010083470C000B
:10CAF40093F7F70D2300FC0023800400F2506254E6
:10CB0400D2544259B259225A925A025BF24B624CA5
:10CB140021618280411106C6AD2D7530977001E008
:10CB2400E78000DAD5BF2303048015472303E4809C
:10CB340001002302A480828083076480E3CE07FE81
:10CB440023030480828083076480E3CE07FE0345C9
:10CB54004480828083076480E3CE07FE2302A4809E
:10CB64008280411126C44AC24EC006C61377F50B13
:10CB7400AD47AA892E8995446306F70019456537A0
:10CB8400653F8D444E854537FD59FD146398340146
:10CB9400B240A244124982494101828013550901DD
:10CBA4001375F50F453F2209CDB7011126CC06CEEA
:10CBB400B704080051371545BD37713769372AC6A0
:10CBC400A53F32459377150089EB1365150013755E
:10CBD400F50FF240E24405618280FD14E9FC014551
:10CBE400CDBF397126DC4ADA4ED852D656D45AD241
:10CBF4005ED006DE62CE66CCB7E700E07D5783AA3E
:10CC0400070022C603AA470023A0E71823A2E718B7
:10CC1400B7170040130770052380E704130780FA51
:10CC24002380E70483C74704930B75FFB684E207A8
:10CC340093FBFB0F8546AA892E8B3289372400404B
:10CC4400E187015763FA76016308D5008946130723
:10CC540000026313D5000157D98F93F7F70FB71C60
:10CC640000402382FC0411472303E4801305F00FE2
:10CC74005D3D094CD135636D7C11B7050700DA952C
:10CC840037870700795563F2E504B3879500636E2F
:10CC9400F702370B0800A94733EB65016399F906DE
:10CCA40089E48144513D26850DA0DA850945553D29
:10CCB40005090345F9FFFD14050B693D81C493770C
:10CCC400FB0FFDF7DD3569FD7D55B71700401307F0
:10CCD40070052380E704130780FA2380E70403C761
:10CCE4004704418B2382E704F250B7E700E023A016
:10CCF400571123A24711E25432445259C259325AAD
:10CD0400A25A125B825B724CE24C21618280A5477D
:10CD14006395F90685691309F00FB3069900B37496
:10CD24002B01B6941349F9FFB3749900856B3379D9
:10CD34006901416B9387F9FFB3F7270199E363FC1A
:10CD4400340193D94900C147E3E637FF99BF056928
:10CD5400C1697D19D9B71305800D6388690113056D
:10CD640000026384790113051008CA85DD3B353D53
:10CD740021DD4E99B3843441D9B7DA852D45D533B5
:10CD8400CA94E30099F205097D3BA30FA9FED5BF20
:10CD94009387F9FF93F7F70F6361FC0C83C71C04B7
:10CDA40013073008631FF70437070800636BEB04AD
:10CDB400B3079B00B706100063F5D704334BEB00B1
:10CDC40089476393F9068980D549E38C04ECDA85B5
:10CDD4000945413B11090327C9FF91472320E480FA
:10CDE40003076480E34E07FE23033481FD17EDFB44
:10CDF400FD14110B81C49377FB0FE9FF7D3371F5AB
:10CE0400E1B5B717004003C75704B7070800137705
:10CE1400070219E3B78707007955E378FBEA33077C
:10CE24009B00E3FFE7F855B58547E382F9F2DA851D
:10CE34002D45053B9389F4FFE38504E6293393F7F5
:10CE4400390091EB832604800327090093074900E6
:10CE5400E39AE6E43E89CE84F1BFB5476396F900D0
:10CE64001305900BC93135BDB1471305B00AE38BE7
:10CE7400F9FE99476391F904B7050800B365BB004F
:10CE84002D45C53181448D4BA14975396396740193
:10CE9400832704802320F9008504E39834FF832743
:10CEA400048013172B01635507002312F900D5BB27
:10CEB4002322F900FDB39D476399F90281451305C7
:10CEC400B0044531BD442320090023220900FD5943
:10CED4009D3993F77400CA9703C70700FD14398D71
:10CEE4002380A700E39634FF6DBBA1476392F90446
:10CEF4006D398144630D0B008D479304C0036308AF
:10CF0400FB009304000563048B0193044004137530
:10CF1400C507E30895D81945393139390545213113
:10CF240026850D3909453D314931E31C05D669BBD8
:10CF340091476399F90013056006F536F53E13052C
:10CF440090090DB7E38F09D4F154A9BB19CD91CD44
:10CF540009CE81473387F500834607003307F50080
:10CF640085072300D700E317F6FE828019C991C90B
:10CF740009CA910583A7C5FF11057D16232EF5FE69
:10CF8400C5BF828001C919C62A960505A30FB5FE3F
:10CF9400E31DA6FE828081473307F50003070700DF
:10CFA40019E33E8582808507C5BF01112E8626CAF6
:10CFB400AA84131506019305F004418122CC06CE00
:10CFC40032C6EF0010762A8401C53246A685BD3FDD
:10CFD4002285F2406244D24405618280854715C1AE
:10CFE4008DC105C28147B306F5003387F50083C6BA
:10CFF4000600034707006398E6008507E315F6FE7D
:10D0040085473E8582808147EDBF9307F6FFBE9535
:10D014002A966313C5008280FD1583C71500050594
:10D02400A30FF5FEFDB7AA87014581CF09CE3E9631
:10D03400850703C7F7FF6317B700E39BC7FE0545E2
:10D04400828082800145828079719757000093879E
:10D05400276A22D4804306D626D24AD04ECE52CC5A
:10D0640056CA5AC85EC662C45DCC37C9C901814B71
:10D07400175A0000130A4A6C97540000938484677B
:10D084001309F937975A0000938A4A61B709C0A86F
:10D09400370B40578357240095E35C44639D0B0092
:10D0A400175700002326F764032CC4002285EF00E1
:10D0B4007074628499A823A6FB00FDB783270A0035
:10D0C4008297838664011C4463DB06063307F540BC
:10D0D4006367E9089757000023AA075C8355240077
:10D0E40003450400971002E0E78020A45C40584404
:10D0F400A9CF1444B6978386640163C5060063E32D
:10D104003701DA971CC4A28B3A8449F4975700007C
:10D114009387C7589C4B09476378F706F917175745
:10D1240000002325F758B250225492540259F24970
:10D13400624AD24A424BB24B224C45618280E37729
:10D14400F5F83387F9402A9761B763970B0097572F
:10D15400000023AFE75889BF23A6EB00B1B7D8502E
:10D1640009CF63DF06003385A74083A70A016376EE
:10D17400F5009757000023ABA752A28B404471B728
:10D18400E3F3A7FECE97C5B79757000023A0075235
:10D1940059BF411122C417540000130424531C40E6
:10D1A40006C626C24AC091C782979757000023AF8C
:10D1B40007505C4091C382971C406390071C9757AB
:10D1C400000083C7776B858B95C797570000A385AD
:10D1D400076A175700000347576A954763FCE7003F
:10D1E400352B9757000083C75769F5178A07A2970D
:10D1F4009C438297175900001309C96B8347C900E0
:10D20400918B99C3EF0050451C4491C38297975466
:10D2140000009384A44D9840175600000346164816
:10D224009757000083C7874793961700BA9683D60B
:10D234000600D5CA9757000083C7474663EFC70A5D
:10D2440097570000238C07441C4063980712975794
:10D25400000083C7B76291CF9757000083C7F76177
:10D2640089EB97570000A38B0760972002E0E780C3
:10D27400E002975700009387274C9C43638F070E67
:10D28400B707C0A8175700002322F742753B9757EA
:10D29400000093872746DC53EDC31757000013079C
:10D2A400E73F184B9757000083C717466367F70C8F
:10D2B400175700000347775C954763E0E70C834703
:10D2C400C900918BDDEB90409756000083C6163D54
:10D2D40063CBD70A2244B240924402494101170366
:10D2E40002E067006371850793F7F70F9756000014
:10D2F4002386F63AE3E6C7F235BF86073E978355A1
:10D3040007002310070097570000239F073C9757F7
:10D3140000009387673B9C4317550000034505387D
:10D3240013172500BA979C4382979757000083D719
:10D33400A73B175700000347673693C7F7FF7D8D58
:10D344009317170098403E97835707005D8D23106D
:10D35400A7009757000083C7673491C785071757FD
:10D364000000230DF7321757000003472733975760
:10D37400000083C7B732E375F7ECB240224492440D
:10D38400024941018280139717003297035707001F
:10D394006DF7850735BFAD6737C70040BD07232646
:10D3A400F7200F100000975700009387272FC84FCE
:10D3B40083278726BD66BD0693C7F7FF99836A0551
:10D3C4002326D7205D8D82804111B7170040985FD6
:10D3D4003AC6945F3247E39CE6FE324541018280BF
:10D3E4008280011122CC175400001304644A1840AF
:10D3F4002AC62EC432C206CE3C4B93F7F7F73CCB79
:10D40400972002E0E78040E6184097560000938694
:10D4140066453C4B93E707083CCB9C423245A2450A
:10D4240023A00700034715000348250022074208EC
:10D434004297034805004297034835006208429723
:10D4440098D70347550003486500220742084297CE
:10D454000348450042970348750062084297D8D7AD
:10D46400034795000348A500220742084297034852
:10D47400850042970348B5006208429798DB03474A
:10D48400D5000348E5002207420842970348C50037
:10D494000345F500429762052A97D8DB03C71500B8
:10D4A40003C52500220742052A9703C505002A97CC
:10D4B40003C5350062052A9798CF03C7550003C5F5
:10D4C4006500220742052A9703C545002A9703C52C
:10D4D400750062052A97D8CF03C7950003C5A50038
:10D4E400220742052A9703C585002A9703C5B5007C
:10D4F40062052A9798D303C7D50003C5E500220720
:10D5040042052A9703C5C50083C5F5002A97E2059D
:10D514002E97D8D3D843759BD8C3D8431367170025
:10D52400D8C398431367170098C3124698425C43C4
:10D53400858BD1E71C4F01452300F6009C429C4F8C
:10D54400A183A300F6009C429C4FC1832301F600F3
:10D554009C429C4FE183A301F6009C42D84F2302D6
:10D56400E600D84F2183A302E600D84F418323036A
:10D57400E600D84F6183A303E60098532304E60032
:10D5840098532183A304E600985341832305E600BE
:10D5940098536183A305E600D8532306E600D853C5
:10D5A4002183A306E600D85341832307E600DC5316
:10D5B400E183A307F600F240624405618280010022
:10D5C400B5B7175700001307272A1443411122C483
:10D5D4009C5E4AC006C6998326C2858B3A84175935
:10D5E400000013092928D1CB9C5E97540000938432
:10D5F400642893F7F7F99CDE175700000347E727E1
:10D6040093070008631BF700832709009C4393F7E3
:10D614000704175700002302F72683C7040093F773
:10D6240007049DC397570000938707119C43829773
:10D634009757000023A8A72483C7040093F7F70B88
:10D64400175700002308F72283C7440093F7070401
:10D654008DE7854717570000A300F722975700006E
:10D66400938707239C43096798C7130700FC9756C1
:10D6740000002383E620D844F8D31C40985F11832C
:10D68400058B09CB985F3D9B98DF054797560000B3
:10D694002384E61E985F1D83058B11CB985F137757
:10D6A400F7F798DF8547175700002307F71C8327F0
:10D6B4000900D8430583058B19C7D843759BD8C384
:10D6C400D843799BD8C3B2402244924402494101D1
:10D6D4008280397106DE16DC1ADA1ED82AD62ED4D8
:10D6E40032D236D03ACE3ECC42CA46C872C676C48E
:10D6F4007AC27EC0F935F250E2525253C2533255C7
:10D70400A255125682567247E2475248C248324ED8
:10D71400A24E124F824F21617300203097570000B0
:10D72400938707179443975700009387A71403C759
:10D734000700058B11CB97570000238F07129757CB
:10D744000000A38B0712828003C71700058B65F7BF
:10D75400F85271FF83C75700DDB71758000013084C
:10D76400A810032708001C5F9583858BD1E709C6A1
:10D774001C5BBD832300F60085CA83270800985BE1
:10D784004607935767016356070093E707C0C2072C
:10D79400C18303970600C207C18709C7BA9709471F
:10D7A400B3C7E7022390F60085CD834715008DCBE0
:10D7B4009756000083C6660C93F6060413879700F9
:10D7C40089478DCA3A9503470500854699471376DC
:10D7D400F7066311D60262076187B947634C0700F5
:10D7E400832708009C5FED838D8B17570000A308E7
:10D7F400F70881473E8582808547EDBF411122C4E9
:10D8040006C6175400001304A408184049E9AE875B
:10D814007453FDFE3E85B28597570000238D07049F
:10D82400971002E0E780A07F975700009387C70313
:10D834009C43B70680009843558F98C3D857719B73
:10D84400D8D797570000A389070297570000A383EE
:10D8540007021C40094798C3B7F700E003A707D1A4
:10D864006D9B23A8E7D003A707D15D9B23A8E7D02E
:10D87400730050101440175700001307A7FF834785
:10D884002700858B89EB83473700858BD9C797574A
:10D894000000238307FEB2402244410182808D4769
:10D8A4006310F50297570000938707FC9C43B70663
:10D8B40080009843558F98C3D857719BD8D75DBFC4
:10D8C4008547E319F5FAB567BD075CC70F1000007B
:10D8D4001C400967094698C7130700F897560000CB
:10D8E400238CE6F817570000130707F814439842EF
:10D8F40031830D8B6319C7001307E043F8D33D67E9
:10D904003D07D8C785BF984231830D8B01E71307C4
:10D914006019EDB71307E01BD5B7FC52ADF3A5BFF3
:10D924005D7152DC175A0000130A0AF403270A0037
:10D9340086C6A2C4A6C2CAC04EDE1C4397590000C4
:10D944009389C9F917590000130989F493F7F7E784
:10D9540093E707081CC383A609003707CEFF7D178A
:10D964009C46130680022A84F98F9CC683270900EB
:10D97400130700082800B8CBAE8493051008EFF015
:10D984006FE0972002E0E780208E972002E0E78096
:10D99400209B83270A009376F41F370FFCFF23A4F0
:10D9A4000700984B4E88CA881367F70398CBF84F43
:10D9B400130510F8D285137707E0558FF8CF9843F5
:10D9C400F576FD16758F98C39843B7063300B702F2
:10D9D40004001377F7E798C398439303401F7D1F10
:10D9E4001377F7E71367071098C303A70900930F8A
:10D9F400800285491C47D58F1CC78327090013075C
:10DA0400900D3400B8CB11490147135337002693C6
:10DA14008347030013767700B3D7C740858BDDCFE8
:10DA24009C41832E0800239C07042390070603AE21
:10DA3400CE02137EDEFF23A6CE0383AE0700137E41
:10DA4400F70793FE0EF833EECE0123A0C70103AE11
:10DA54004702336E5E0023A2C70383AE0800014E63
:10DA640023A27E0603DA070663074E0303AE070309
:10DA7400038A0600135EFE00620E135E8E41635835
:10DA8400CA0103AE0703135EFE002380C60103DE52
:10DA94000706137EFE0F03AA4E0663060A0003DA86
:10DAA4008705E37F49FB03AE4702337EEE0123A2E1
:10DAB400C70383870600635CF400034E03003396B8
:10DAC400C9001346F6FF3376C6012300C3003E8621
:10DAD40063D3A7002A86131586016185050713778A
:10DAE400F70F8506E313F7F3B64026449644064938
:10DAF400F259625A6161828097560000938646D932
:10DB04009C42D8471316170163550602984713160B
:10DB14001701635006027D57B8D717570000130743
:10DB2400E7B7584F0507175600002327E6B81167D3
:10DB340098C798470D83058B1DC3175700000347EB
:10DB440087D313671700175600002306E6D213077E
:10DB540000F8175600002301E6D2214798C79847DA
:10DB6400058B09CF175700000347D7D01367170059
:10DB740017560000A300E6D0054798C798470983C5
:10DB8400058B09E798470583058B31CF98471756CE
:10DB94000000130626CE175500001305E5CC0983B3
:10DBA400058B630307101841184331830D8B75EB04
:10DBB400AC4B184E93F5050203471700CDCD79EF12
:10DBC40013077006D8CF03470600136717001756CC
:10DBD40000002301E6CA114798C718415C57F19B1E
:10DBE40093E717005CD79C4298479316370163D696
:10DBF40006029756000083C626D7C18A175700002D
:10DC0400130747CFC5CE0347470713670702975645
:10DC14000000238BE6D4056798C79847931627011D
:10DC240063D1060217570000034707C562076187DF
:10DC340063570700054797560000238FE6C209671C
:10DC440098C798479316070163D6060297560000B3
:10DC540083C696D1858A175700001307A7C9ADCE8E
:10DC6400034757071367270097560000A38EE6CE95
:10DC7400216798C7828029D785456315B7001307A4
:10DC8400B00689B789456315B7001307F0061DBFB1
:10DC94008D456315B700130730072DB713075007D9
:10DCA40015B71307600739BF03473600136717001A
:10DCB40017560000A301E6BC094739BF834647074E
:10DCC4000946BD8A6388C600034747078D463D8BD6
:10DCD400E313D7F4114725BF83465707918AC9DA5E
:10DCE400034757071367870041B7397106DE16DC0F
:10DCF4001ADA1ED82AD62ED432D236D03ACE3ECC18
:10DD040042CA46C872C676C47AC27EC0F533F2509F
:10DD1400E2525253C2533255A2551256825672479A
:10DD2400E2475248C248324EA24E124F824F2161FE
:10DD340073002030175700001307C7B58346B70197
:10DD44009757000083C7D7B74C4BB697FD8B33D793
:10DD5400F50097560000A38FF6B297560000A381F2
:10DD6400F6B6058B15EF175700000347B7B5B3F7A1
:10DD7400E702814601471305000233D6E500058A10
:10DD84001378F70F19CA6397D70097570000A38336
:10DD940007B18280850693F6F60F0507E31FA7FCFB
:10DDA400828097570000938727999C43011122CCC6
:10DDB4004EC606CE26CA4AC852C456C28297975740
:10DDC4000000938727AF804781496305A406BE847A
:10DDD4009757000093870792038767013E8963552D
:10DDE4000706018D135455009757000083C727ACCD
:10DDF4009379F501636DF402370AC0A8B70A405756
:10DE0400153F9C449756000083C666AA1397560094
:10DE14003E9783076901158C63C507006363470157
:10DE240056979757000023ABE7A8E37BD4FC16046E
:10DE3400B3693401F24062444E85D2444249B24946
:10DE4400224A924A05618280E37D85F8B707C0A81B
:10DE540033848740229579B7975700009387C78DFD
:10DE64009C43411122C406C626C2829797570000DC
:10DE7400938747A480476309A406BE84975700008C
:10DE8400938747878387670163D80704018D1354F9
:10DE940055009757000083C787A16367F404593D71
:10DEA40098449757000083C787A0939657003697E6
:10DEB4001D8C9756000023A3E6A0E372F4FE2244CF
:10DEC400B2409244175500000345D59C8145410159
:10DED400171302E067004362E37A85FAB707C0A824
:10DEE40033848740229565B7B2402244924441016D
:10DEF4008280975700009387679E9843B757020024
:10DF04009387079F832607091396560063580600D4
:10DF1400832607091396660063440600FD17FDF384
:10DF2400828071C5AA870145E9C58D07C207C183EF
:10DF3400F19BC207C18313074003636FF7021757AE
:10DF440000001307A79A084317570000130787997F
:10DF540014436398A602174700001307A779185BB8
:10DF6400014541CB4111C20706C60545DD8D029727
:10DF7400B240014541018280175700001307C7963C
:10DF8400D9B70357650035E303574500636FF704BA
:10DF9400B306F7402146637CD60203280500938626
:10DFA40087001D8FAA966117174600000356666FF7
:10DFB4002392E60023A006012393060014C1231232
:10DFC400F500130786FF97460000239CE66C231395
:10DFD400B5009745000083D5C56CB387F540174756
:10DFE40000002310F76C2105828008419DB701458C
:10DFF400828082800DC1975700009387278F03A3E7
:10E004000700975700009387E78D83A80700814690
:10E014009A8763E31701828003A80700636DF50AFA
:10E02400636BA80A13878700E367E5FE03D66700DE
:10E03400216705076317E60003C7B18C0507A385AD
:10E04400E18C974500009385656503D6470003D7A7
:10E054006500239307003297420741831745000068
:10E064002311E564638A6702175500001305C58709
:10E0740008416303F50203D5660019ED83D7460012
:10E0840023A0060121073E9621062392C600974746
:10E0940000002398E760B6879843E30E17F7975676
:10E0A4000000938666849442E307D7F6835667009C
:10E0B400BDF283D64700035647001843A106B29623
:10E0C4002392D70098C383D76500A10717470000A0
:0CE0D4002319F75C8280BE86C28725BF3E
:10E0E0009751FF1F938181A217A1FF1F130181F197
:10E0F00017E5FFFF130545F19725FF1F938585F071
:10E100001746FF1F1306C6FD63FAC50083220500EC
:10E1100023A0550011059105E3EAC5FE173502005D
:10E12000130505A79745FF1F938585FB138601827D
:10E1300063FAC5008322050023A05500110591054F
:10E14000E3EAC5FE138501829795FF1F9385458CF1
:10E150006377B500232005001105E36DB5FEFD4290
:10E16000739002BC8D4273904280B722000093826C
:10E17000828873A002309722FF1F9382A2E893E265
:10E18000320073905230970201009382022C7390F8
:10E190001234730020303D432A876373C3029377A0
:10E1A000F700BDEFADE5937606FF3D8ABA960CC346
:10E1B0004CC30CC74CC74107E36BD7FE11E282800A
:10E1C000B306C3408A069702000096966780A600B1
:10E1D0002307B700A306B7002306B700A305B700BF
:10E1E0002305B700A304B7002304B700A303B700B7
:10E1F0002303B700A302B7002302B700A301B700AF
:10E200002301B700A300B7002300B700828093F575
:10E21000F50F93968500D58D93960501D58D61B741
:10E22000939627009702000096968682E78086FAEA
:10E230009680C1171D8F3E96E374C3F8A5B7336768
:10E24000B500FD530D8B79E7B7877F7F9387F7F78D
:10E2500010419441B372F6003363F600BE92B3E20C
:10E2600062006397720C6318D6065041D441B372B2
:10E27000F6003363F600BE92B3E262006398720A5E
:10E28000631BD60410459445B372F6003363F60061
:10E29000BE92B3E262006391720A631ED6025045D9
:10E2A000D445B372F6003363F600BE92B3E2620067
:10E2B000639A72086311D60210499449B372F6004A
:10E2C0003363F600BE92B3E26200639372085105B5
:10E2D000D105E30FD6F61317060193970601631CC9
:10E2E000F7001357060193D706013305F7409375DE
:10E2F000F50F91E982804183C1833305F74093751F
:10E30000F50F91E182801377F70F93F7F70F33053D
:10E31000F74082800346050083C605000505850594
:10E320006313D60065FA3305D64082801105910546
:10E33000E312D6FE014582802105A105E31CD6FC2F
:10E34000014582803105B105E316D6FC0145828086
:10E350004105C105E310D6FC01458280130101D4BB
:10E360002E86AA85E801232E112A232C812AEFC0AC
:10E3700060581305D10CEFA0C16593150501C1814B
:10E380001305D10CEFC0806397E50100938585EA02
:10E390001305D10CEFC060270DC5054597E50100B9
:10E3A0009385C5E9EFC0E0071775FF1F034515A466
:10E3B000EF5030258320C12B0324812B1301012C26
:10E3C000828097E501009385A5E81305D10CEFC085
:10E3D000C02319CD97E50100938505E80545EFC0F9
:10E3E00040041775FF1F034575A0EF505024D9B79F
:10E3F00097E50100938545E71305D10CEFC0E020B8
:10E400000DC1371700408327C70AA16697E50100B1
:10E41000938505E6D58F2326F70A2545EFC06000D2
:10E4200051BF97E50100938565E51305D10CEFC059
:10E43000C01D11CD371700408327870AA16697E5D5
:10E440000100938525E4D58F2324F70AF9B797E5D2
:10E4500001009385A5E31305D10CEFC0001B11CD7E
:10E46000371700408327C70A97E501009385C5E267
:10E4700093E707402326F70A4DB797E501009385F8
:10E48000A5E21305D10CEFC0401811CD371700409D
:10E490008327870A97E501009385C5E193E7074045
:10E4A0002324F70A9DBF97E501009385A5E1130595
:10E4B000D10CEFC0801511CD371700408327870C92
:10E4C000896697E501009385A5E0D58F2324F70C95
:10E4D000A9B797E50100938565E01305D10CEFC05E
:10E4E000C01211CD371700408327C70C896697E506
:10E4F0000100938565DFD58F2326F70C39BF97E59B
:10E500000100938525DF1305D10CEFC0001011CD5C
:10E51000371700408327870C97E50100938505DEB8
:10E5200093E707402324F70CCDBD97E501009385C1
:10E5300065DD1305D10CEFC0400D11C59777FF1FA6
:10E5400023A6078C85BD97E50100938565DC13053F
:10E55000D10CEFC0800B01C5EF606007A1BD97E54E
:10E5600001009385A5DB1305D10CEFC0000A01C59E
:10E57000EF60400681B597E501009385E5DA130564
:10E58000D10CEFC0800801C5EF60000425B597E508
:10E590000100938525DA1305D10CEFC0000701C5F2
:10E5A000EF90203001BD97E50100938525D9130533
:10E5B000D10CEFC0800509C50545EF90E041DDBBFA
:10E5C00097E50100938505D81305D10CEFC0E00352
:10E5D00019C10145DDB797E50100938525D71305DE
:10E5E000D10CEFC080020DC10564130504808D4578
:10E5F000EFF0E02A371700408327870C13040480CC
:10E600005D8C2324870C7DB397E50100938585D429
:10E610001305D10CEFB0707F0DC1056413050480A4
:10E620008D45EFF0C027371700408327C70C130430
:10E6300004805D8C2326870CB5BB97E5010093858C
:10E64000E5D11305D10CEFB0507C39C51306400657
:10E65000814548008936130640068145A810253EAD
:10E66000930651141306911097E50100938585CF09
:10E670004800EFA081304800EFA0A135AA85B01076
:10E680004800EFE03028B01097E50100938505CEF3
:10E690002545EFB0506F39BB0346D10CA547130693
:10E6A00006FD1376F60FE3E7C7D09767FF1FA38732
:10E6B000C77497E501009385E5CB0145D9BF4111AA
:10E6C00006C6EF70D01AB240AA8617E701001307FA
:10E6D000E7901756FF1F1306E62E97E50100938576
:10E6E0002591114541016FB0106A317122DD4AD97F
:10E6F00006DF26DB4ED752D556D35AD10347050045
:10E70000930710042A892E84631AF73C03471500E7
:10E71000930740056314F73C034725009307E00582
:10E72000631EF73A2E86AA852545EFB0B05A130628
:10E73000D003A2854A85EFB09073AA84635A05007E
:10E740003546A2854A85EFB09072AA8463450508D4
:10E750009389D4FF9307100363CF37074E86930541
:10E7600039006808EFA0C12A1C11BE9917EA010000
:10E77000130A4AA2238E09F6D28A8149514B832576
:10E780004A006808EFB070680DC18E09D69983D72A
:10E7900009004D47636FF70017D701001307077F84
:10E7A0008A07BA979C43BA9782878509210AE3981A
:10E7B00069FD97E501009385259D254529AA9305C7
:10E7C000F4FF858D13851400C20581460146C18181
:10E7D0004A95EF205006FA506A54DA544A59BA5909
:10E7E0002A5A9A5A0A5B296182809305F4FF858D23
:10E7F00013851400C205C1814A958D36E9BF130601
:10E80000F4FF058E138514004206418297E501004E
:10E81000938505434A95EFB010731764FF1F1304E7
:10E82000245C31C597D501009385C57D8808EFA08C
:10E8300021198808EFA0E1191316050141828C08FF
:10E840001385C17DEF80C03E97D501009385057D7E
:10E850001145EFB0103D83570400414593E7170081
:10E860001767FF1F231EF756EFC0607BADB797D524
:10E8700001009385657B1145EFB0B03A7D55EFC03F
:10E88000E07C83570400F99B1767FF1F231AF75496
:10E8900099B7353589B71306F4FF058E1385140033
:10E8A0004206418297E50100938585394A95EFB08C
:10E8B00090699767FF1F9387A75283D7070019CDE9
:10E8C00093E717001767FF1F231CF75097D5010028
:10E8D000938545761145EFB0D034F5BDF99B1767A8
:10E8E000FF1F231FF74E97D5010093856575DDB790
:10E8F000EF70C03A9767FF1F9387874EE843EF900A
:10E90000410AAE862A8697D5010093852574114564
:10E91000EFB07047C9B5EF50007575BD17E601003F
:10E920001306863297D50100938505731145EFB024
:10E93000904555B5EF70C07797D5010093858572E6
:10E9400051F997D501009385E57269B70D45EF80C0
:10E95000105BAA84EF90E1042A86AE86254597D500
:10E96000010093856572EFB0104297D7010093873D
:10E9700027698843A6851754FF1F1304641DEF8081
:10E98000215F2322A426EF70E07803254426EF9030
:10E990004101AE862A8697D501009385A56F85BF74
:10E9A00081450D45EF50B02AEF70A06B2A8697D5B0
:10E9B00001009385E5709DBF81452D45EF503029BD
:10E9C000814513055004EF50902897D50100938599
:10E9D00025703145EF50B027EF7000692AC6EF70FF
:10E9E0006069B2462A871756FF1F1306A6FD97D502
:10E9F00001009385256E1145EFB0F038E9BB17573C
:10EA0000FF1F0357E73A9756FF1F9386761E175648
:10EA1000FF1F130626FB97D501009385E56DE1BF27
:10EA200085471757FF1F230DF738EF70A06E97D556
:10EA300001009385A56D79BD1757FF1F0347473820
:10EA4000854797D501009385E56CE315F7E8C5B7D1
:10EA50009767FF1F9387C738A843EF809174AE86EE
:10EA60002A8697D501009385656B55B5B717004089
:10EA700083A7470A97D501009385856B13973701C4
:10EA8000E34A07E497D501009385856CA1B513850A
:10EA900014004A95EF90A119AE892A89EFC07056EB
:10EAA0009767FF1F9387C733E8D3EFC090552A8439
:10EAB000CE854A85EF80B179A285EF80B130975736
:10EAC000FF1F9387E70823A4A728EF80916DAE86E8
:10EAD0002A8697D501009385E56915BD2286CA85EA
:10EAE0001755FF1F13050584EF808014EDB1411108
:10EAF00022C421649305048099460146254506C633
:10EB00009720FF1FE780200E930504802244B24027
:10EB1000994613860182294541011723FF1F67008B
:10EB2000830C99E10145828075DD011152C403DA3D
:10EB3000418226CA93548A008504A204C204C1807B
:10EB400056C2B38A4441C20A22CC4AC82E862E84B9
:10EB50002A8997E501009385259E254593DA0A01C8
:10EB60004EC606CE93890182EFB0F02163ED8A088C
:10EB700083D5418293F7F50FB1CF8D6783D541825D
:10EB800093870780A2864A86BE9529459720FF1F56
:10EB9000E78060051375F50F29ED83D749001566E9
:10EBA000A2972392F18203D7418283D721826309FE
:10EBB000F70063F3E700B297998F1396070141823C
:10EBC000254597E501009385A598EFB0D01B1375F7
:10EBD000F40F0DA08D679387078093060010014600
:10EBE000BE9525459720FF1FE780E0FF1375F50FC1
:10EBF00049D50145F2406244D2444249B249224AD1
:10EC0000924A05618280B3079440D297C207C183BC
:10EC1000A18303C74900850793F7F70F93968700F1
:10EC200011EB9386170093740AF0A206C204C20681
:10EC3000C180C18283D7218263F6F40033879600B6
:10EC4000E3C9E7FA0D6A130A0A800146B385440155
:10EC500025459720FF1FE78000F91375F50F51F93F
:10EC600083D54182A2864A86D29505B7411122C436
:10EC70001384018222858145194606C69720FF1F0D
:10EC8000E78080309307B0FA2300F4008D352244EA
:10EC9000B24097E501009385A582254541016FB0FB
:10ECA0004078A165411199461386018293850580BC
:10ECB0002D4506C69720FF1FE780E0F203C70182BB
:10ECC0009307B00A6303F7005537B24083D64182F9
:10ECD00003D6218297D501009385457F25454101C3
:10ECE0006FB0700A83D7C18D0145638C071003D5BF
:10ECF000E18D6366F50023AE018C0145828033858A
:10ED0000A740D1473355F5021375F50F01E5239E52
:10ED1000018C8280130101BD2324814223261142EC
:10ED20002322914223202143232E3141232C414190
:10ED3000232A514195471374F50F63F3A700154437
:10ED4000228697E50100938565822545EFB0B003E3
:10ED5000014981449389018E514AA14A9377F90F61
:10ED600003D5E18D1757FF1F034717F563E98704A4
:10ED7000D1473304F4022A94239F818CA147631C5A
:10ED8000F706A6850808EF40203803D7E18D83D722
:10ED9000C18D05456364F70023AE018C8320C14219
:10EDA0000324814283244142032901428329C14132
:10EDB000032A8141832A4141130101438280B30721
:10EDC00049031408AA97CE9733859600631E57010E
:10EDD000BE85EF40E0522317A1008357E1000509EB
:10EDE000BE94C204C1809DBFAA851306E1003E8582
:10EDF000EF903020DDB726860C080145EF604044D7
:10EE000069B78280011106CE22CC26CA4AC84EC6F6
:10EE100091E901442285F2406244D2444249B24918
:10EE200005618280AA8975D583D7418203D6218264
:10EE30002E849564638AC7006374F60015673A965A
:10EE40001D8E93140601C180268697D501009385F7
:10EE500025642545EFB02073938714F06356F400C2
:10EE60009307F00F63EA970097D501009385C56378
:10EE70002545EFB0407171BF83D441823387840050
:10EE8000956763C7E700A2854E8561398D3159B713
:10EE9000156933099940420913590901CA854E85FC
:10EEA000493125D9ED75A695A295C2052392018217
:10EEB000C18133852901D1BF83D6C18D81EA97D520
:10EEC00001009385E56425456FB0A05503D6E18D1B
:10EED0004111918E97D5010093858564254506C61D
:10EEE000EFB0606A1387C18D8355070083D7E18D2A
:10EEF0001385018E9D8DC2053E95C1812137B2409B
:10EF000023AE018C41018280411183D7C18D22C47F
:10EF100026C206C6AE971307401FAA842E84635AE2
:10EF2000F700593F97D501009385455C2545EFB023
:10EF3000404F83D7C18D1385018E2286A6853E95CD
:10EF4000EF80115203D6C18D229642062244B24070
:10EF500092444182239EC18C97D501009385855AA6
:10EF6000254541016FB02062011126CA06CE22CC90
:10EF70004AC84EC652C456C2814451C1C9C183D782
:10EF8000218203D44182638C870663F487081D8C39
:10EF900042044180AE892A89228697D50100938553
:10EFA000A54B0145EFB0205EA28463F38900CE84B7
:10EFB000C2040D6A83D7218203D74182C180938A1C
:10EFC0000182130A0A8063F9E704A6864A86B3859C
:10EFD00047012D459720FF1FE780E0C083D72A0017
:10EFE000A6972391F182213683D6418203D62182CE
:10EFF00097D50100938585472545EFB0C058F2406D
:10F00000624426854249D244B249224A924A056165
:10F01000828015673A94A5BF15671D8FB385470198
:10F0200063D5E400A6864A866DB79569B389F94031
:10F030006D743E94C20993D909012694CE864A86FE
:10F0400042042D459720FF1FE780E0B94180A2864A
:10F0500033063901D2852D45239101829720FF1F68
:10F06000E78060B883D72A003E9423918182A5BFB0
:10F07000130680078145138501F01723FF1F6700E2
:10F08000A3F0397126DA4AD84ED652D456D25AD085
:10F0900006DE22DC62CE66CC2A89EF90911393744F
:10F0A000F50F8149254BE54A17DA0100130A8A4D0D
:10F0B00091ECF25062544E85D2544259B259225AC0
:10F0C000925A025B724CE24C216182800347090034
:10F0D000930707FD93F7F70F637CFB009307F7F99E
:10F0E00093F7F70F63E2FA06930797FA93F7F70F90
:10F0F000139487016184FD14230089002685EF7035
:10F10000F1222A86AE8603250A0083254A0093F45D
:10F11000F40F0509EFF0406F2AC422852EC6EF7068
:10F12000F1202246B246EF6011512A8C4E85AE8CFA
:10F13000EF70F1262A86AE866285E685EF509164EF
:10F14000EF701119AA89ADB79306F7FB93F6F60F86
:10F150008147E3EFDAF8930797FC49BF411122C4D6
:10F1600006C6830795022A8499C713059502EF8086
:10F17000712C2389A1F28307D41291CB1305D412E9
:10F18000EF80F12AEF80B10C938701F0C8D3B24031
:10F1900022444101828041114AC01309150022C452
:10F1A00097D501009385854C2A844A8526C206C6D8
:10F1B000EFB0A04D854419E997D501009385454BE3
:10F1C0004A85EFB0804C6301051089448307D4035E
:10F1D0006386070E13059402EF80D1258947638A61
:10F1E000F4108D476380F41E85476399F40C130572
:10F1F000D403EF803124A38AA1F283C7818299EBE3
:10F2000079468145138571F523849182A384018217
:10F21000EFE07FF80307D408930700036301F702C8
:10F220001305D408EF80112103C7918293071700BB
:10F23000A384F182938701F0BA97A38BA7040307F5
:10F24000D40D930700036301F7021305D40DEF807B
:10F25000711E03C7918293071700A384F1829387DD
:10F2600001F0BA97A38BA7040307D41293070003F6
:10F270006301F7021305D412EF80D11B03C79182FB
:10F2800093071700A384F182938701F0BA97A38BA9
:10F29000A7040307D417930700036301F7021305BC
:10F2A000D417EF80311903C7918293071700A38405
:10F2B000F182938701F0BA97A38BA704B24022444E
:10F2C000924402494101828097D501009385853A95
:10F2D0004A85EFB0803BE31A05EE97D50100938590
:10F2E000A5394A85EFB0603A8144E30105EE8D44CB
:10F2F000F1BD1305D403EF80F113238BA1F283C773
:10F30000718281EF854779468145138591F3A38307
:10F31000F18223830182EFE01FE80307D4089307FB
:10F3200000036301F7021305D408EF80B11003C78F
:10F330006182930717002383F182938701F0BA97C4
:10F34000A38CA7020307D40D930700036301F70200
:10F350001305D40DEF80110E03C7618293071700C8
:10F360002383F182938701F0BA97A38CA702030746
:10F37000D412930700036301F7021305D412EF8040
:10F38000710B03C76182930717002383F182938770
:10F3900001F0BA97A38CA7020307D41793070003C1
:10F3A000E30EF7F01305D417EF80D10803C761828D
:10F3B000930717002383F182938701F0BA97A38CF8
:10F3C000A702EDBD1305D403EF80D106A38BA1F2F4
:10F3D000F5B5411122C406C6830795072A8499C74B
:10F3E00013059507EF801105A389A1F28307D408BF
:10F3F00099C71305D408EF80F103238AA1F283078C
:10F40000540B91CB1305540BEF807102EF802164F4
:10F41000938701F088D7B2402244410182800111D4
:10F4200026CA8146B284014652C456C206CE22CCB8
:10F430004AC84EC62A8AAE8AEF60110341CD9307AF
:10F44000E0046386F400930730056395F40897D9C8
:10F4500001009389A91F03A6090083A649005285CC
:10F46000D685EF60511D37949800EF7061661304E4
:10F4700004682A8933758502EF70617203A609005A
:10F4800083A64900EF60012397D701009387871C6B
:10F490009043D443EF6001222A8A33558902AE8A11
:10F4A000EF70E16F2A86AE865285D685EF50912D9A
:10F4B00013073005AE876395E400B7070080AD8F72
:10F4C000F2406244D2444249B249224A924ABE853D
:10F4D0000561828001458147E5B7011126CA814651
:10F4E000B284014652C456C206CE22CC4AC84EC689
:10F4F0002A8AAE8AEF60417741CD93075004638634
:10F50000F400930770056395F40897D90100938977
:10F51000E91303A6090083A649005285D685EF604A
:10F52000911137949800EF70A15A130404682A8946
:10F5300033758502EF70A16603A6090083A6490012
:10F54000EF60411797D701009387C7109043D443CA
:10F55000EF6041162A8A33558902AE8AEF70216422
:10F560002A86AE865285D685EF50D12113077005C5
:10F57000AE876395E400B7070080AD8FF240624428
:10F58000D2444249B249224A924ABE8505618280EC
:10F5900001458147E5B7135785009357050113D8F7
:10F5A00085009376F50F01111377F70F93F7F70F97
:10F5B000618593F5F50F1378F80F99C211C3B9E37C
:10F5C000230CD100A30CE100230DF100A30DA10039
:10F5D00003459101834781010347A1012205A30E41
:10F5E00001014207C98F230EB1000345B101D98F34
:10F5F0000347D1018345C101620522075D8DD98D85
:10F600000561828032951375F50F1313850113532D
:10F6100083415D466357660861463363C3028507CD
:10F620001376D70F114593F7F70F6305A60025450D
:10F63000631AA6007946637FF60205071377F70F72
:10F6400085470DA809466312C7041386067D9308F3
:10F650004006B36816036385080013F5360011C52C
:10F66000130500193366A60219EE75466374F60099
:10F6700085470D47230CD100A30CE100230DF100B9
:10F68000A30D6100B1B77146D5B77D46E374F6FEB0
:10F69000B147E314F7FA850693F6F60F8547054759
:10F6A000D1BFE35903FC6105FD171313850193F7DF
:10F6B000F70F13538341DDFF7D171377F70F1146C3
:10F6C000F947E309C7FA1946E306C7FA2546E303F3
:10F6D000C7FA2D46E300C7FA89476316F702138677
:10F6E000067D93074006B367F60291C793F836008C
:10F6F000F547E38108F893070019B367F60293B75B
:10F700001700F10785BFFD4735F7FD1693F6F60F95
:10F7100031478DB783471500034705000111A20744
:10F720005D8F834725008346350083454500C2072A
:10F73000D98F0347550022CC1744FF1F13044441BF
:10F7400003067424E206220733E5F600D98D06CEBF
:10F750009935135885001356050193D7850013F783
:10F76000F50F93F7F70F935685011376F60F937500
:10F77000F80F1375F50FEF70F0518347140005472C
:10F7800093F7B70F6397E7006244F24005616F702B
:10F79000F05FF24062440561828049718145130641
:10F7A000C0124810232481162326111623229116F5
:10F7B00023202117232E3115138401F0EFE0BF9D84
:10F7C0008307640097D50100938545F1B9C383078A
:10F7D0003403054797D501009385C5EB638BE7029A
:10F7E000094797D501009385A5EB6384E70211478C
:10F7F00097D501009385C5EB638DE700154797D535
:10F8000001009385A5EB6386E70097D501009385FA
:10F8100065EB4810EF90C11A4810EF90811B8307E9
:10F820003400441083C851F003C841F003C721F0ED
:10F8300083C611F003C601F097D501009385C5EA90
:10F840002695EF9081134810EF90A11818485C4856
:10F85000030604033AC03EC2030814035C44184480
:10F86000541097D50100938525EA3695EF90E11065
:10F870004810EF9001165C103E958307640017D680
:10F880000100130626E089E717D60100130606E0FB
:10F8900097E501009385C5A8EF90210E4810EF90E1
:10F8A0004113544C104C5C1097D501009385C5E66C
:10F8B0003E95EF90810C4810EF90A11103063403A0
:10F8C0005C103E9597D501009385C5E5EF90E10A60
:10F8D0004810EF90011003072403AA8448503ACE41
:10F8E000138401F0EF80E10B72475C10AE862A862C
:10F8F00097D50100938505E433859700EF90E107E4
:10F900004810EF90010D5C1003C641F397D501003C
:10F910009385C5E33E95EF9041064810EF90610B4B
:10F920005C1097D50100938565E33E95EF90410902
:10F930001389E1F1A28497E901009389E99D03C647
:10F94000740519CA481032CEEF90A10872465C10B7
:10F95000CE853E95EF9061028504E31299FE481032
:10F96000EF9021075C1097D501009385A5DF3E95A8
:10F97000EF90010597E401009384049A03469403F1
:10F9800019CA481032CEEF90C10472465C10A685A9
:10F990003E95EF80917E0504E31289FE4C102545CB
:10F9A000EFA030288320C11603248116832441163A
:10F9B000032901168329C11575618280411122C472
:10F9C00006C626C2830755012A84B9C7A94693876C
:10F9D00007FDB387D70203476501130707FDBA97F1
:10F9E000A381F1F00307750183478501130707FD24
:10F9F0003307D702938707FD3E972382E1F0830701
:10FA000095010347A501938707FDB387D702130725
:10FA100007FDBA97A382F1F08307940281CB130705
:10FA20001004639AE71485472383F1F08307D40316
:10FA3000938401F099C71305D403EF80411F88C454
:10FA4000CCC40306140509CA8844CC442388C1F2F7
:10FA5000EFF0FF9C88C4CCC48307540699C71305F4
:10FA60005406EF80C11C88C8CCC80306940709CA95
:10FA70008848CC48A388C1F2EFF03FA688C8CCC81C
:10FA80008307D40899CF1305D408EF80411A97D77C
:10FA900001009387A7BE9043D443EF60C13988CC5F
:10FAA000CCCC8307140A99C71305140AEF80811878
:10FAB0002390A1F28307540BB9C7A946938707FD8A
:10FAC000B387D7020347640B130707FDBA97238157
:10FAD000F1F00307740B8347840B130707FD33070B
:10FAE000D702938707FD3E97A380E1F08307940B2D
:10FAF0000347A40B938707FDB387D702130707FDBE
:10FB0000BA972380F1F083853400856703C641F0FE
:10FB1000938707E11307C0033307E60283C651F05A
:10FB20001754FF1F1304C42BB387F502BA97B69777
:10FB300023A6F1F20357040093778700A5E303851A
:10FB400064008547631CF50483873403A1CB83C716
:10FB5000A182850793F7F70F2385F18203C521F072
:10FB600011ED8844CC4401468146EF60E10F0DED74
:10FB7000238301F0A1A8238301F04DBDFDD175D2EF
:10FB8000EDD29146E3FFF6FC13678700138501F081
:10FB90009757FF1F2396E724EFF0DFB723850182F5
:10FBA00083876400DDFFE9B78848CC480146814679
:10FBB000EF60810B55DD83C721F0DDDB1306800785
:10FBC000938501F0138581E8EF80810903C581B336
:10FBD0009D4705053365F50213068007938501F0FF
:10FBE000238CA1B2930780073305F502938701B4F4
:10FBF0003E95EF80E106EFF05FBA1C5813068007D0
:10FC00008145138501F01757FF1F2327F720EFE0E9
:10FC10008FD8B240224423840182A383018292447C
:10FC2000410182800171232C811E232A911E13061B
:10FC3000101E2A84AE8468008145232E111E2328BD
:10FC4000211FEFE04FD581458147014701465148CB
:10FC5000CD485D436340960899C12306F100130621
:10FC6000A002A6852285EFA090208347C1005147BE
:10FC70003386A440B387E7029305150078007D160C
:10FC8000A29585073305F700EF70917D1306A0025A
:10FC9000A685228503491400EFA0701D894763C320
:10FCA000A7080345C100D1473305F5027C000505CF
:10FCB0003E95EFF00FBD631CA904194697D50100CE
:10FCC0009385C5991305D100EFA0F02725C56800DD
:10FCD000F53135A8B306C40003C50600930665FDDB
:10FCE00093F6D60F91EA850793F7F70F6361F30256
:10FCF000854501470506B9BFB3860703130E011FEB
:10FD0000F296BA96A38EA6E00507E3D5E8FE832017
:10FD1000C11F0324811F8324411F0329011F1301D5
:10FD2000012082803307F400034707008507334929
:10FD3000E900B5B7194697D501009385659213057B
:10FD4000D100EFA0502021E5194697D501009385F9
:10FD500065911305D100EFA0101F19ED194697D535
:10FD60000100938565901305D100EFA0D01D45D10A
:10FD70006800EFF04FC261BF13063006A2851385FD
:10FD800041ADEF80F1486800EFF0AFE449B768009B
:10FD9000EFF0CFBCADBF757122C526C34AC1CEDE20
:10FDA000D2DCD6DADAD806C7AA892E898144014482
:10FDB0008147130A4002854A354B1397040141835A
:10FDC000636C2701BA402A449A440A49F659665A94
:10FDD000D65A465B49618280338799000347070002
:10FDE00063004703639C5701631D67019C18A2973A
:10FDF000A2856800238E07F835358147850475BFD5
:10FE000001449C18A29705041374F40F238EE7F89D
:10FE100093373406E5B7411106C6138581B383478E
:10FE20000500130780078145B387E70213068007A3
:10FE3000A1073E95EFE02FB6B24081451145410143
:10FE40006FB0E016138581B3834705001307800761
:10FE5000B387E702A1073E958280138581E88280FF
:10FE6000138541AD82809757FF1F938767F7D85757
:10FE700089476305F70023A6018282809387C182A8
:10FE80009C43850723A6F1821747FF1F0357C7F03E
:10FE900063E6E7261307800783C781B3B387E702CA
:10FEA000138781B3BA970387E70063090724517169
:10FEB00086D7A2D5A6D3CAD1CECFD2CDD6CBDAC9DA
:10FEC000DEC7E2C5E6C3EAC16EDF03C741F903A896
:10FED000070183A84701884FCC4F138381F725E39F
:10FEE00098472328A300232AB30023ACE1F603D7C5
:10FEF000C700DC5B4286239EE1F623A8F1F8854724
:10FF0000238AF1F82A87AE87C68697C501009385B4
:10FF1000656A25452324030123261301EFA0A0666B
:10FF2000BE502E549E540E59FE496E4ADE4A4E4B28
:10FF3000BE4B2E4C9E4C0E4DFA5D6D61828097CC6F
:10FF40000100938CAC6403A60C0083A64C00032430
:10FF500083008324C30003290301832943013EDE78
:10FF600042D846DA17CC0100130CCC62EF50B16CCA
:10FF700003260C0083264C00EF50C17303A60C002F
:10FF800083A64C002A8BAE8B4A85CE85EF50B16A92
:10FF900003260C0083264C00EF50C1712A8AAE8ADA
:10FFA0002A86AE865A85DE85EF60613497CE0100E1
:10FFB000938ECE5E03A60E0083A64E00EF50B1676F
:10FFC000EFE0C05D2AD42ED65A85DE85EFE0E053FF
:10FFD0002A8BAE8B5285D685EFE02053D2584258FB
:10FFE0002A8DAE8D4285C6852286A686EF60213099
:10FFF00003A60C0083A64C00EF50F16383264C004F
:020000021000EC
:1000000003260C00EF50016B97CE0100938E0E5922
:1000100003A60E0083A64E00EF50F161EFE00058FA
:100020002A8AAE8A6A86EE865A85DE85EF50B160EE
:100030005286D686EF5031605286D686EF50B15F39
:10004000225FB25F2A8A7A86FE867A85AE8AFE852C
:10005000EF50715E2A86AE865285D685EF4091724A
:10006000EFE0F02CEFE0C05C2A86AE86EF409171A5
:1000700017C701001307075310435443EF50B15BF8
:1000800017C701001307875210435443EF50B15A6A
:10009000F2572ACC2ECED85B138381F70328830135
:1000A0003AC8904FD44F2A8A32C436C6984BDC4B9C
:1000B0002286A686AE8A3AC03EC24A87CE8797C5B8
:1000C00001009385A551E800EF80310BEC00254538
:1000D000EFA020351745FF1F034585B1EF601125BF
:1000E0002A86AE865285D685EF50B13EE35AA0E20D
:1000F0000545EFA0D07223A601821DB582809147ED
:1001000063E3C70A17C70100130787660A063A9612
:100110001C42411122C406C6BA972A84828797E5F9
:100120000100938525DC1145EFA0A02FA285114584
:10013000EFA0202F2244B24097E50100938545DCD3
:10014000114541016FA0E02DB9CA9747FF1F83C732
:10015000E7C781C79042EF50A01B2244B24001463E
:1001600097550000938545213D4541016F30D025CD
:100170009DC62244C8C2B24003C5A6002394B6005F
:100180003686954541016F80B0352244B240410129
:100190006FE0202E2244B24041016F308063B240B4
:1001A0002244410182808280411106C6EF9080493D
:1001B000B24041016F90C00F05456F70F00155715D
:1001C000581093063102130621029305110293077A
:1001D00051021305610286C7EF70A0259757FF1FD4
:1001E000938707C083D70700BD9B1757FF1F2319AD
:1001F000F7BEEFF03FC5030305039305E004835604
:1002000061020347110283472102034831028348F8
:100210004102034E510217E60100130666556316AC
:10022000B30017C60100130626DF830E1503130360
:100230005004032F8500832FC50097C501009385C7
:10024000A5DD63866E0097E5010093856552032363
:100250000501832345017AC41ACC1ECE7EC672C026
:100260002EC832C297D50100938505E51736FF1FCA
:10027000130646752810EF804170EF80D05A281081
:10028000EF80217593870183904393150501938631
:1002900081F92810C181A535BE4069618280411174
:1002A00006C623A8B18201C61C4223ACF1F89747C9
:1002B000FF1F83C7578A9DEB0545EFB0300E97C5EA
:1002C0000100938565592545EFA0A0159757FF1F9D
:1002D00083D707B193E707011757FF1F2312F7B022
:1002E000EF80B053B24041016F40E06F05470545D4
:1002F000639CE700EFB0900A0545EFA0505297C508
:1003000001009385A556C1B7EFB050090545EFA090
:10031000105197C501009385E55675B7411122C468
:100320002A848307D40306C626C22E8589C71307ED
:10033000F0036398E7021747FF1F130737889746B4
:10034000FF1F938696841746FF1F1306F68097C5F6
:1003500001009385655E2244B240924441016F8062
:10036000C1619737FF1FA389077E9747FF1FA38EA1
:1003700007809747FF1FA38307840347040085472F
:10038000AE8463FAE7009305D4031735FF1F130506
:10039000B57CEF80E1628307940791CF03470400A7
:1003A000894763FAE700930594071735FF1F130584
:1003B000D57DEF80E1608307540B91CF03470400A4
:1003C0008D4763FAE7009305540B1735FF1F13059C
:1003D000F57EEF80E15E0146974500009385C51FDD
:1003E0001305C012EF30407EEF50D0521737FF1F79
:1003F0001307D77C9736FF1F938636791736FF1F72
:100400001306967597C50100938545552685A1B7B6
:10041000411126C206C622C4034705008947AE849F
:1004200063F7E7029305D5032A84130620031735E3
:10043000FF1F1305656BEF80A15D13059407EF7037
:10044000617F9737FF1F2393A770EF503047EF501E
:10045000F04A9736FF1F83D6666F1736FF1F1306C5
:10046000A66897D50100938525BC2685EF80E150CD
:1004700085479735FF1F9385E5541735FF1F1305F3
:1004800065651737FF1FA30BF75AEF806153973548
:10049000FF1F9385756C1735FF1F1305455AEF80B5
:1004A00021529735FF1F9385556E1735FF1F130592
:1004B000255CEF80E1509735FF1F93853570173528
:1004C000FF1F1305055EEF80A14F97C501009385BF
:1004D000E5B01735FF1F13054564EF80614EEF50FF
:1004E000F03D0146974500009385A50E7945EF3014
:1004F000A06D2244B2409244014697750000938556
:10050000854B1305600941016F30006C411122C415
:1005100026C24AC006C68307D503AE8417C90100A8
:100520001309C9731754FF1F1304848B89C713075A
:10053000F0036391E7041735FF1F0345556BEF6028
:10054000E15E0326090083264900EF50A116EF70F3
:10055000015028C4EF70E144AE862A8697C5010099
:10056000938545702244B240024926859244410158
:100570006F80A1401305D503EF70C16B9737FF1F44
:10058000A387A7661375F50FEF60415A032609008C
:1005900083264900EF500112EF70614B28C4EF50E1
:1005A00070372844EF70E13FAE862A8697C5010078
:1005B0009385456D45BFAA870387D7032E8509C755
:1005C0009306F0036315D7029737FF1F83C7975829
:1005D00017C601001306066689E717E60100130631
:1005E000A68897C50100938565666F800139411122
:1005F0001385D70306C622C42E84EF70A1639737F4
:10060000FF1FA389A754EF50F0309737FF1F83C710
:10061000775497C501009385656289E797C5010006
:100620009385456222852244B24041016F80413961
:10063000411126C206C6AA8422C48387D4032E850C
:1006400089C71307F0036396E7049737FF1F83C733
:10065000975005476385E70289CB09476386E70220
:10066000B240224492444101828097C501009385A3
:1006700025712244B240924441016F80613497C594
:10068000010093856572F5B797C501009385857460
:10069000CDB79384D4032E84268597C50100938516
:1006A0006576EF8021391DC189471737FF1FA304E5
:1006B000F74A97C50100938525792285EF8041305F
:1006C0002244B240924441016F50D0242685EF70FD
:1006D00061561375F50F9737FF1FA38EA746854701
:1006E00097C5010093854574E309F5FC97C50100A2
:1006F0009385C57179D18947E30DF5FA1737FF1F47
:10070000A30BF74497C50100938545767DB741114A
:100710002E8597C501009385E57806C6EF80412AAE
:100720000146974500009385C5EA7945EF30C049F9
:10073000B2400146977500009385E52713056009CF
:1007400041016F306048411122C426C206C68307AA
:10075000D503AE841734FF1F1304843F89C71307E2
:10076000F003639BE7028306742417D60100130687
:10077000A68F63D6060017C601001306E6892685F4
:1007800097D501009385858EEF80211F2244B240CA
:10079000924441016FA040251305D503EF708149B4
:1007A0009737FF1FA389A75EEFA0002403067424D8
:1007B00097D501009385458D2545EF90D05C834703
:1007C00074246147B10793F7F70F6377F700A147E8
:1007D0001737FF1FA301F75CEF50D0138306742473
:1007E00017D601001306468863D6060017C6010017
:1007F000130686822244B2402685924497D5010092
:100800009385058941016F804117797122D493073F
:10081000D1012E8478089306B1011306A101930536
:1008200091011305E10106D626D24AD0EF6070404F
:100830008348D1010348C1018347B1010347A101A6
:10084000834691010356E10197C501009385852AEE
:100850002285EF8081122285EF80A1179744FF1F28
:10086000938404588C5803A884030566130606E194
:1008700033F3C5029306C0032295B378C802B37759
:10088000D80233F7D5023EC0DC54B3D8D80233586F
:10089000C802B356D30233D6C50297C5010093856B
:1008A000A527EF80810D2285EF80A1123309A400D6
:1008B000EF90E06D17C601001306862309C517C621
:1008C00001001306A62297C501009385E5284A85F5
:1008D000EF80A10A2285EF80C10FB717004003A661
:1008E000470C97C501009385252822955D82058ACE
:1008F000EF80A1082285EF80C10D9040229597C519
:10090000010093856527935666012D82858A058AA5
:10091000EF80A106B2502254925402594561828060
:10092000AA870387D7032E8509C79306F0036311AF
:10093000D7029737FF1F83C7272297C501009385EA
:1009400025F689E797C50100938585F86F804107F3
:1009500041111385D70322C406C62E84EF70812D62
:100960001375F50F9737FF1F2388A71E1737FF1F33
:100970000347171E89476316F7000DE91145EFA0DD
:10098000006A9737FF1F83C7271D97C5010093850E
:10099000A5F589E797C50100938545F82285EF8085
:1009A00021022244B24041016F50C0761145EFA0B0
:1009B000E069C1BFAA870387D7032E8509C79306BD
:1009C000F003631ED7029737FF1F83C7C718054779
:1009D000638DE70089C70947638EE700828097C56A
:1009E0000100938565FA6F70B17D97C5010093850D
:1009F000E5FDD5BF97C5010093850503EDB741110E
:100A00001385D70322C406C62E84EF70A122137566
:100A1000F50F9737FF1F2380A714854797C501005F
:100A20009385C5FA6306F50297C501009385C5F560
:100A300005C1894797C50100938505FF630AF50045
:100A40001737FF1F2309F71097C50100938585030A
:100A50002285EF70F1762244B24041016F50806BE5
:100A6000AA870387D7032E8509C79306F003631C63
:100A7000D7001736FF1F0346A61797C501009385B9
:100A8000E5156F70916F41111385D70306C622C417
:100A90002E84EF70A11A9737FF1F238BA714EF50F6
:100AA000606722852244B2401736FF1F0346461472
:100AB00097C501009385C5144101E1B7411122C4D6
:100AC000130550042E84814506C6EF305018EF50B0
:100AD000605A2A8622852244B24097C50100938538
:100AE000A51441016F707169411122C41305D5032A
:100AF0002E8497C501009385650906C6EF90F038EE
:100B000011CD0145EF50806B97C501009385C50855
:100B100022852244B24041016F70916A0545EF5031
:100B2000E06997C501009385E508DDB7411122C44E
:100B30002A848307D40306C626C22E8589C71307D5
:100B4000F003639CE7029737FF1F9387D71317378C
:100B5000FF1F130737109736FF1F83D6062517365A
:100B6000FF1F1306160C97C501009385E535224437
:100B7000B240924441016F705160AE841735FF1F3F
:100B80001305350A9305D403EF7091631735FF1FE2
:100B900013053509EF70F16393150501C181173510
:100BA000FF1F13051508EF9070658307940789CB25
:100BB00013059407EF7001089737FF1F2397A71EAF
:100BC0008307540B85CB9305540B1735FF1F130573
:100BD0007508EF70F15E1735FF1F1305B507EF704D
:100BE000515F93150501C1811735FF1F1305950648
:100BF000EF90D0608307140F85CB9305140F173542
:100C0000FF1F13055508EF70B15B1735FF1F130564
:100C10009507EF70115C93150501C1811735FF1F12
:100C200013057506EF90905DEF50C04E9737FF1F8C
:100C3000938777051737FF1F1307D7019736FF1FD5
:100C400083D6A6161736FF1F1306B6FD97C50100FB
:100C50009385C528268521BFAA870387D7032E85BC
:100C600009C79306F003631CD7001736FF1F03560E
:100C7000A61297C501009385A5386F7011504111D8
:100C80001385D70306C622C42E84EF60B17A1316EB
:100C900005019737FF1F2391A710418297C50100D7
:100CA000938545372285EF70514D9737FF1F83C7D6
:100CB00037EA09476388E700ED1793F7F70F054711
:100CC000636AF7009737FF1F83D7070D89EB094544
:100CD000EFA0C0372244B24041016F50A043EFA0C3
:100CE000202575D51737FF1F0357070B930790056E
:100CF000E3EFE7FC0945EFA08032E9BFAA8703874D
:100D0000D7032E8509C79306F0036313D7069737D9
:100D1000FF1F83C7070B05476389E70289CF094790
:100D2000638EE7020D476380E70497C50100938552
:100D300025266F70F14817C601001306261C97C5BB
:100D400001009385251D6F70514317C601001306DE
:100D5000261D97C501009385A51DF5B717C601008F
:100D60001306861FFDB717C6010013062620D5B748
:100D700041111385D70322C426C206C62E84EF6014
:100D8000716B1375F50F9737FF1F238CA7028544EE
:100D9000630295041DC18947630AF5048D47630CFE
:100DA000F50497C501009385A5222285EF70514176
:100DB0009737FF1F2387970001A897C501009385E8
:100DC000A51D2285EF70D13F2244B24092444101DB
:100DD0006F50403417C601001306861497C50100F2
:100DE0009385C51C2285EF705139F9BF17C60100E4
:100DF00013068616E5B717C6010013062617F9BFB6
:100E00001971A2DCA6DA2A84AE8413065006814545
:100E1000280086DEEFD02FB88307D40389C71307D5
:100E2000F0036396E7069737FF1F83C777F9A9C7D3
:100E30009738FF1F938818F31738FF1F130858F1CE
:100E40009737FF1F9387A7FC1737FF1F130707F973
:100E50009736FF1F83D6E6F51736FF1F130636ECCD
:100E600097C50100938545E62685EF701131F65050
:100E70006654D654096182806654F6502685D6544D
:100E800097C50100938505E909616F7071331305FA
:100E9000D403EF60315A630205189747FF1F938709
:100EA00027F4DC5799C3EF8070360545EF9020207A
:100EB00085471737FF1FA305F7F08307940795C7EA
:100EC0001306200381451735FF1F130555E59700CD
:100ED000FF1FE780600B1306200393059407173567
:100EE000FF1F1305D5E3EF70B1328307540B89CB95
:100EF0001305540BEF6011549737FF1F239BA7EA8C
:100F00008307140FA9C31306200381451735FF1F5C
:100F10001305C5EC9700FF1FE780000713062003A9
:100F200081451735FF1F1305F5E39700FF1FE78085
:100F3000A005130620039305140F1735FF1F130593
:100F4000E5E9EF70F12C8307D41295C7130620034F
:100F500081451735FF1F130585EB9700FF1FE780BD
:100F6000A002130620039305D4121735FF1F1305A3
:100F700005EAEF70F1298307941685C7514681452C
:100F80001735FF1F1305D5DC9700FF1FE780C0FF53
:100F90005146930594161735FF1F130575DBEF7047
:100FA00031279736FF1F938686E61736FF1F1306F5
:100FB000E6E297B501009385E53A2800EF70F11B52
:100FC0002800EF701121AA851736FF1F130696D946
:100FD0002800EFC020139738FF1F9388B8D8173820
:100FE000FF1F1308F8D69737FF1F938747E217377D
:100FF000FF1F1307A7DE9736FF1F83D686DB173642
:10100000FF1F1306D6D197C501009385E5D126852C
:10101000EF70B116EF50001099BD97C50100938590
:1010200025D526859737FF1FA38C07D8EF70511958
:10103000EF80F01FC5B7130101B9232A5145B28AC9
:101040002E86AA85E80023261146232481462322E2
:10105000914623202147232E314523286145232C07
:101060004145368B23267145232481452322914512
:101070002320A145232EB143EF90D0071305D104BF
:10108000EF70311593150501C1811305D10497C483
:1010900001009384E407EF907012014426899309BC
:1010A000F002C8409305D104EF9020560DC90E04FC
:1010B0004A948317040013970701230801224183F0
:1010C0009306E00263F4E6006F10607917B7010041
:1010D0001307476B8A07BA979C43BA978287050420
:1010E000A104E31034FDFD57F9B71737FF1F03477D
:1010F000B7BCA1476312F70C19464C101735FF1FF8
:101100001305858DEF90806D081C23080102001CDB
:10111000EF70310C9737FF1F83D747C91737FF1F71
:101120001307D7BC9736FF1F9386C689501097C503
:1011300001009385E51B2295EF703104081CEF70C8
:1011400051091C1C1736FF1F130616A13E9597C5A3
:1011500001009385A51CEF705102081CEF70710708
:101160001C1C3E959737FF1F9387879E83867724A5
:1011700017C60100130646EF63D6060017B6010036
:10118000130686E997C501009385C519EF70E17EC6
:101190001734FF1F0344D49B9307F4FF93F7F70F13
:1011A00015476363F71017B70100130767698A07CC
:1011B000BA979C43BA978287081CEF7091011C1C58
:1011C0001737FF1F0357C7BE9736FF1F938656A2D8
:1011D0001726FF1F1306067F97C501009385051389
:1011E0003E95EF70817999BF081CEF70817E1C1CC1
:1011F0003E95854797C50100938585136306F400E6
:1012000097C5010093854513C164EF70617B173466
:10121000FF1F1304E493173AFF1F130A0A94FD14E7
:101220009309C00397CB0100938B8B110359A4241E
:10123000630E9900081CEF70C179B37639031C1C4A
:10124000DE853E9533563903EF7021730904E31FA1
:101250008AFC081CEF70E1771736FF1F0346768F74
:1012600097C501009385850E1C1C3E95BDA81736B9
:10127000FF1F035666B29736FF1F83D6A6B2081C1F
:1012800032CE36CCEF70E17472461C1C3E95E246BD
:1012900021C297C501009385650CA1CA97C50100BD
:1012A0009385850CEF70616D081CEF7081721C1CBA
:1012B0009726FF1F83D606761726FF1F0356A675AF
:1012C00097C501009385C5133E95EF70016B7DA115
:1012D00081EA97C501009385250AEF70616EE9B731
:1012E000368697C501009385250AEF7001696DBFA9
:1012F000081CEF70016E1736FF1F0356A6AA97C58C
:101300000100938525098DB7081CEF70816C173695
:10131000FF1F035626A997C501009385E508A9B7C5
:10132000081CEF70016B1C1C3E95C1671734FF1F32
:101330000354A4A9FD176303F4021307C003B356B3
:10134000E402E147114697C50100938525073377ED
:10135000E402B3F6F602EF704162B9B7114697C5E1
:1013600001009385E50751B7EF3030761744FF1F32
:10137000130404A7EF6080552840EF6081622A863D
:10138000AE86081C97C5010093850509EF70E15EE4
:101390009747FF1F83C757A5638A071CEFE09FAAE3
:1013A000AA84081CEF70E1621C1C3E9583876400D0
:1013B00017C60100130646ED89E717B601001306AC
:1013C000E62C97C5010093852506EF70015B081C8C
:1013D000EF7021602A89C850EF60A15C1C1C2A862E
:1013E000AE863385270197C5010093856504EF70AC
:1013F000C158038634038947631DF612081CEF7039
:10140000415D1C1C094697C50100938525033E9547
:10141000EF70A156081CEF70C15B1C1CB384A700C1
:10142000EF90103117D601001306865509E517D63F
:1014300001001306E65397C501009385A50626858E
:10144000EF70A153081CEF70C158AA84EF4070419F
:101450001C1C2A8697C50100938545053385970096
:10146000EF70A151081CEF70C1561C1CB384A7007B
:10147000EF90303017C60100130686E109E517C664
:1014800001001306A6E197C501009385E5022685B4
:10149000EF70A14E081CEF70C1531C1CB384A70051
:1014A000EF80F02917B601001306466409E517B668
:1014B00001001306E66397C501009385A500268504
:1014C000EF70A14B081CEF70C1501C1CB384A70027
:1014D000EF80D02E17B601001306466109E517B656
:1014E00001001306E66097C50100938565FE268519
:1014F000EF70A148081CEF70C14D704C1C1C3E954C
:1015000097C50100938585FDEF702147081CEF709A
:10151000414CAA846850EF60C1481C1C2A86AE86E4
:101520003385970097C50100938505FCEF70E14472
:10153000B1A4081C32CCEF70C14962461C1C3E9518
:1015400091476318F600114697C501009385C5F0D1
:10155000C1B5954797C50100938585F2E31AF6EA70
:10156000154697C50100938565F05DB5081CEF70C1
:1015700041461C1C97C50100938505F23E95EF700E
:10158000214449BD17C701001307C7F697C60100DC
:10159000938606F717B60100130646A497C5010007
:1015A0009385C5F6081CD1A28307510C63880710E8
:1015B000830711106384071013059108EF6081679A
:1015C0001375F50F238AA182A14713062003930503
:1015D000510C6317F5081725FF1F13053571EF70C0
:1015E00021431725FF1F13057570EF70813E93157A
:1015F0000501C1811725FF1F1305556FEF900040AE
:1016000013051110EF600163931605019727FF1F63
:10161000239EA778C1821726FF1F1306366D97C534
:101620000100938565F0081CEF70213583C7418365
:1016300021476390E7081727FF1FA30FF766972737
:10164000FF1FA38E0738EF40F02CEF40B03101466A
:1016500097F5FFFF938585B57945EF20E05639AAC8
:101660001725FF1F1305D558EF70813A1725FF1F67
:1016700013051558EF70E13593150501C181172544
:10168000FF1F1305F556EF90603713051110EF603B
:10169000615A931605019727FF1F239BA770C182EC
:1016A0001726FF1F1306D65497C50100938585E9B9
:1016B0009DBF9727FF1FA381076071B797C50100E2
:1016C0009385C5E9081CEF70A12F4DA883079108E9
:1016D00089C71307F003639EE7001726FF1F034621
:1016E000664797C50100938525EA081CEF70E1283D
:1016F00071A013059108EF60E1539727FF1F238B1B
:10170000A744EF4030211726FF1F0346A64497C584
:1017100001009385A5EAD1BF8307910889C7130704
:10172000F0036396E7081726FF1F034676429147AA
:101730006312F606081CEF70C1291C1C3E95C16798
:101740001724FF1F03546468FD176303F402130793
:10175000C003B356E402E147114697C501009385E3
:10176000A5E93377E402B3F6F602EF70012139A060
:1017700097C50100938585EAEF702120081CEF7062
:10178000412593150501DA865686C181081CEFE0D4
:101790001F9775A31727FF1F0357C7609726FF1FC3
:1017A00083D6865F97C50100938505E9E5BB97372A
:1017B000FF1F9387E7629C5B130591081737FF1F94
:1017C000232AF764EF6001472A84937BF50F1145C4
:1017D000EF90D0071374F40F8D47630AF43A63C097
:1017E00087028547630CF40E8947630DF42C97C577
:1017F00001009385E50F081CEF70811C61AAD54795
:10180000630EF40CDD476304F4389147E311F4FEF2
:101810000347C104894763FFE7021305510CEF70CA
:10182000411B7515854763E1A74A1305510CEF600D
:1018300061404205418113074006B357E502930614
:10184000C0033375E502B387D702AA971727FF1F96
:10185000231DF75691471727FF1FA30BF72EC167CC
:101860001727FF1F03576756FD176304F700EF5054
:101870009062EF90606E0945EF90700001C50945D8
:10188000EF90C07C7D55EF90607CEFA02033EFA0FF
:101890006038EF8080170545EF60001401469755CA
:1018A00000009385058013052003EF20E031416798
:1018B0009727FF1F83D767517D176387E746130775
:1018C000C003B3D6E702114697C501009385C5FC56
:1018D00033F7E702E147B3F6F602F1A60347C10486
:1018E00089470549814463E6E712FD571727FF1F23
:1018F0002315F74AFD571727FF1F2321F74A1727FC
:10190000FF1F232FF7489729FF1F938969244E87CC
:1019100081474E8A93F6F70F090763E29614631323
:10192000090005499727FF1FA38527238547639251
:10193000FB14EF9060620945EF90607401C50945A2
:10194000EF90C070854705451727FF1FA302F720BA
:10195000EF608008228697C501009385E5CE081CBC
:10196000EF70A1010144130AC00397CB0100938BD0
:101970002B9D081CEF70E1051C1C3E9589096396A0
:1019800084124A8697C50100938505CEEF60F17EEB
:10199000EF50D03FEF400078D5B393872900B3874D
:1019A0009703F8008507BA973E853ECCEF70610239
:1019B0007515E2476369AD043E85EF60A1274205D6
:1019C000418193070143060A3E9AB3578503850474
:1019D00093F4F40F33758503B387B703AA97231ADB
:1019E000FABE850993F9F90F8347C104268AF917CE
:1019F000E3C5F9FA01479385F4FFE358B7EE814751
:101A0000B388E540B9A03E85EF60C1221379F50F98
:101A1000C9BF8149930CC003054D130C4006930DBB
:101A2000C003D9B793961700130601438507B296F2
:101A300013050143139617002A9603D846BF035592
:101A400046BF63760501231A06BF239AA6BE93F705
:101A5000F70FE3C917FD05071377F70F79BF9396C3
:101A600017005010B29683D6060085072314D7249A
:101A700055B5954705451727FF1FA30BF70CEF50EA
:101A8000B075EF90E04A11CD83578A241307800583
:101A9000FD17C207C1836366F7000945EF90205820
:101AA00055BD0945EF90805A75B503D68924DE856A
:101AB0000504B37646031374F40F33564603EF6000
:101AC000D16B45BD0545EF5030711305510CEF60EA
