:04C000006F2000228B
:10C00400000000000000000090000020800A0020D2
:10C01400A9BDF9F594000020000000000000000014
:10C02400960000209800002000000000000000009E
:10C034009A000020000000009C0000200000000086
:10C044009E00002022030020A6030020A40000205C
:10C05400A6000020A8000020AA000020AC000020B8
:10C06400AE000020B0000020C60000205A010020CD
:10C07400FC0A0020B8000020BA000020BC00002008
:10C08400BE000020F20100208A020020C40000202B
:10C0940001A001A001A001A001A001A001A001A094
:10C0A40001A001A001A001A001A001A001A001A084
:10C0B40001A001A001A001A001A001A001A001A074
:10C0C40001A001A001A037370040834747009946EB
:10C0D4004111BD8B638CD70231476384E706114756
:10C0E400639EE702A3030100174600000346867F10
:10C0F40037370040834771006315F6022C0013851F
:10C10400017F977001E0E78060E909A88347570041
:10C1140093F7F70F2304F100834781004101730073
:10C12400203083477100834687000C08AE97238C28
:10C13400D7FE83477100850793F7F70FA303F10038
:10C1440055BF2800970002E0E780808F1375F50F34
:10C15400A303A1000346710055B737370040834756
:10C16400474099464111BD8B638ED70231476386A0
:10C17400E70611476390E704A30301001746000094
:10C184000346667637370040834771006317F6022B
:10C194002C00173500001305A52B977001E0E780EC
:10C1A400E0DF09A88347574093F7F70F2304F10012
:10C1B4008347810041017300203083477100834627
:10C1C40087400C08AE97238CD7FE83477100850700
:10C1D40093F7F70FA303F10045BF2800970002E08F
:10C1E400E780C0971375F50FA303A1000346710000
:10C1F40045B7374700408347478099464111BD8B77
:10C20400638ED70231476386E70611476390E704DC
:10C21400A3030100174600000346D66C37470040CD
:10C22400834771006317F6022C00173500001305CD
:10C234006523977001E0E78060D609A8834757809B
:10C2440093F7F70F2304F100834781004101730042
:10C25400203083477100834687800C08AE97238C77
:10C26400D7FE83477100850793F7F70FA303F10007
:10C2740045BF2800970002E0E78000A01375F50F82
:10C28400A303A1000346710045B737470040834725
:10C2940047C099464111BD8B638ED70231476386EF
:10C2A400E70611476390E704A30301001756000053
:10C2B400034626A437470040834771006317F602FC
:10C2C4002C00173500001305251B977001E0E7804B
:10C2D400E0CC09A8834757C093F7F70F2304F10074
:10C2E40083478100410173002030834771008346F6
:10C2F40087C00C08AE97238CD7FE8347710085074F
:10C3040093F7F70FA303F10045BF2800970002E05D
:10C31400E78040A81375F50FA303A100034671003D
:10C3240045B7411126C4B714004022C603D4C4093A
:10C33400420441809317140163DB0700A1450145C2
:10C3440097D001E0E78040889167239EF408931713
:10C35400340163DF07029757000083C7F7B293E7FE
:10C36400170017570000A301F7B2B717004003A73F
:10C37400470A8566131637016351060203A7C70AE5
:10C38400558F23A6E70AB71700400567239EE708E1
:10C394003244A24441017300203003A7870A558F19
:10C3A40023A4E70ACDB7B717004003D7E70903D79B
:10C3B400E709975600009386E6A7131637016351E1
:10C3C4000604175700000347E7AE05071756000099
:10C3D4002302E6AE98421367074017560000232B4A
:10C3E400E6A40567239FE70803A7470C0566931592
:10C3F400370163D7050403A7C70C518F23A6E70CA5
:10C404009C42056713070780D98F17570000232321
:10C41400F7A2B717004003A7470CB706800013160E
:10C4240087006355060203A7C70C558F23A6E70CA4
:10C43400B717004013070020239FE708730020303C
:10C4440003A7870C518F23A4E70C5DBF03A7870CB8
:10C45400558F23A4E70CE9BF411122C417540000EF
:10C464001304449D1C4006C61397470163560708EE
:10C47400B717004083A7470C139787006345070647
:10C484009747000083C7C7C8B9EF8547174700001F
:10C494002300F7C8976001E0E780205F1C401397F2
:10C4A4003701634107028D45094597C001E0E780E4
:10C4B400A0719145175500000345159A973002E085
:10C4C400E780C040054597C001E0E780009B8545B3
:10C4D400054597C001E0E78040939307C0121757C2
:10C4E4000000231CF7961C407D771307F77FF98F14
:10C4F400175700002320F7949747000083C747C1CC
:10C50400C9CB9747000083C7C7918DCB8347540598
:10C51400858B8DC71C4013973701634107028D45F6
:10C52400094597C001E0E780206A9145175500004E
:10C5340003459592973002E0E7804039184093779D
:10C544000740A1CB9747000083C7978D894663882E
:10C55400D700ED1793F7F70F854663E5F6029317B7
:10C56400370163C107028D45094597C001E0E780A3
:10C57400A0659145175500000345158E973002E0DC
:10C58400E780C0341C4093F7F7BF175700002323FC
:10C59400F78AB2402244410182804111814601461A
:10C5A4008145114506C6EF00C077B7270040114703
:10C5B4002383E780B7F700E003A707D16D9B23A887
:10C5C400E7D003A707D15D9B23A8E7D073005010E1
:10C5D40001000100B2404101828041118146814540
:10C5E4000146114506C6352FB7270040114723835E
:10C5F400E780B717004003C7E70283C5E70483D782
:10C60400870391661377F70F93E5350063E5D70049
:10C61400719B13671700B71700401306700523803A
:10C62400C704930680FA2380D70401000100238203
:10C6340007022380C7042380D70401000100238755
:10C64400E7022387B7042380C7042380D7040100AB
:10C65400010003C7B70413670702A385E704238017
:10C66400070437F700E0832507D193E54500232825
:10C67400B7D0832507D1DD992328B7D07300501094
:10C68400010001002380C7042380D70401000100B6
:10C6940003C7B7041377F70DA385E70423800704C2
:10C6A400B240410182800111B7F5070022CC8146D6
:10C6B400E1052A840A86194506CE26CA02C0231239
:10C6C40001008525B717004003C7E70283C5E704C7
:10C6D40083D7870391661377F70F93E5350063E5F6
:10C6E400D700719B13671700B71700401306700536
:10C6F4002380C704930680FA2380D7040100010035
:10C70400238207022380C7042380D7040100010089
:10C714002387E7022387B70423800704B7F500E0E3
:10C7240003A705D11367470023A8E5D003D5070263
:10C734006577110713750560418D598D4205418157
:10C7440001002380C7042380D7040100010003C72C
:10C75400F70037F40700B7F400E013670704A38772
:10C76400E70003C7B704610413670702A385E7045E
:10C774002390A70283A704D1DD9B23A8F4D07300E0
:10C7840050100100010013056004352E814630006D
:10C79400A285194502C4231601006123224782475A
:10C7A400E31AF7FCB7170040130770052380E7046A
:10C7B400130780FA2380E7040100010003C7B704CC
:10C7C4001377F70DA385E70423800704F24062443E
:10C7D400D2440561828001114EC681460146AA8970
:10C7E4008145114506CE22CC26CA4AC81D2BB71650
:10C7F400004083C7E60203C7E60483D686031166B6
:10C8040093F7F70F1367370063E5C600F19B93E7CF
:10C8140017003714004013097005230024059304FE
:10C8240080FA23009404010001002302040223007F
:10C83400240523009404010001002307F4022307C4
:10C84400E40423000404130550025920B7F700E060
:10C8540003A707D11367470023A8E7D023002405C3
:10C8640023009404010001000347F4001367070444
:10C87400A307E4002300240523009404010001001D
:10C884002567B3E9E9002310340303A707D15D9BAF
:10C8940023A8E7D07300501001000100814601462F
:10C8A40081451145BD29230024052300940401007A
:10C8B40001008347640493E717002303F40423006F
:10C8C4000404F2406244D2444249B2490561828080
:10C8D400B7170040930670052380D704130780FA26
:10C8E4002380E7040100010003C6B7041376F60DA4
:10C8F400A385C70423800704137605024DC203C62B
:10C90400A700118A1DE22380D7042380E7040100D5
:10C91400010003C7A700136747002385E7009307B7
:10C92400004B01000100FD17EDFFB717004093060F
:10C9340070052380D704130780FA2380E7040100DD
:10C9440001007D892394A70001000100010001007A
:10C95400238007042380D7042380E7040100010017
:10C96400010001003727004093061005A303D78078
:10C9740023800704B7170040130770052380E704DA
:10C98400130780FA2380E7040100010003C7B704FA
:10C9940013670708A385E7042380070482801376BE
:10C9A400050441C603C6A700418A1DE22380D704BB
:10C9B4002380E7040100010003C7A70013670701F0
:10C9C4002385E7009307007D01000100FD17EDFFBB
:10C9D400B7170040930670052380D704130780FA25
:10C9E4002380E704010001001376F50113660604B1
:10C9F4002394C70001000100010001002380070403
:10CA04002380D704130660042380E7046318C50059
:10CA14000100010037270040894689BF0100010059
:10CA2400372700409306200591B72380D70423803D
:10CA3400E7040100010003D787001367070C239460
:10CA4400E7000DBF4111814601468145114506C6E7
:10CA5400C92CB7170040130770052380E704130798
:10CA640080FA2380E7040100010003C76704136709
:10CA740017002383E70423800704B2404101828026
:10CA84008146014681451145692CB717004093063C
:10CA940070052380D704130780FA2380E70401007C
:10CAA40001007D562396C7022380D7042380E70420
:10CAB4000100010003C76704136717002383E70419
:10CAC4002380070401A0BD473305F50201007D154D
:10CAD40075FD8280411122C426C206C6AA8401447F
:10CAE40063179400B24022449244410182800504B9
:10CAF4001305803E4204C13F4180DDB7B7170040B3
:10CB0400130700032388E702854717470000232DF6
:10CB1400F73A73002030397122DC4ED656D23714DE
:10CB24000040E57AB7F9070026DA52D45AD05ECE2F
:10CB340006DE4AD862CC2A8B916B93040404130A50
:10CB44007005910AE1098347E4020347E40483562C
:10CB5400840393F7F70F1367370063E57601F19BBE
:10CB640093E7170023804401130980FA23802401EA
:10CB740001000100230204022380440123802401D4
:10CB8400010001002307F4022307E40423800400C6
:10CB940037F700E0832707D193E747002328F7D02E
:10CBA4008357040293F70760B3E76701B3E75701BC
:10CBB400C207C183010023804401238024010100B2
:10CBC40001008346F400130CB40493E60604A3079F
:10CBD400D4008346B40493E60602A305D4042310C8
:10CBE400F402832707D1DD9B2328F7D0730050106C
:10CBF4000100010013056004F9353000CE8581463B
:10CC0400194502C423160100292A1146974500003C
:10CC14009385052C280019231DD5930770052380BF
:10CC2400F400238024010100010083470C0093F7E2
:10CC3400F70D2300FC0023800400F2506254D25408
:10CC44004259B259225A925A025BF24B624C216108
:10CC54008280411106C6B52DEFF01F80977001E068
:10CC6400E780806CCDBF2303048015472303E48051
:10CC740001002302A480828083076480E3CE07FE40
:10CC840023030480828083076480E3CE07FE034588
:10CC94004480828083076480E3CE07FE2302A4805D
:10CCA4008280411126C44AC24EC006C61377F50BD2
:10CCB400AD47AA892E8995446306F700194565375F
:10CCC400653F8D444E854537FD59FD146398340105
:10CCD400B240A2441249824941018280135509019C
:10CCE4001375F50F453F2209CDB7011126CC06CEA9
:10CCF400B704080051371545BD37713769372AC65F
:10CD0400A53F32459377150089EB1365150013751C
:10CD1400F50FF240E24405618280FD14E9FC01450F
:10CD2400CDBF397126DC4ADA4ED852D656D45AD2FF
:10CD34005ED006DE62CE66CCB7E700E07D5783AAFC
:10CD4400070022C603AA470023A0E71823A2E71876
:10CD5400B7170040130770052380E704130780FA10
:10CD64002380E70483C74704930B75FFB684E20767
:10CD740093FBFB0F8546AA892E8B3289372400400A
:10CD8400E187015763FA76016308D50089461307E2
:10CD940000026313D5000157D98F93F7F70FB71C1F
:10CDA40000402382FC0411472303E4801305F00FA1
:10CDB4005D3D094CD135636D7C11B7050700DA95EB
:10CDC40037870700795563F2E504B3879500636EEE
:10CDD400F702370B0800A94733EB65016399F9069D
:10CDE40089E48144513D26850DA0DA850945553DE8
:10CDF40005090345F9FFFD14050B693D81C49377CB
:10CE0400FB0FFDF7DD3569FD7D55B71700401307AE
:10CE140070052380E704130780FA2380E70403C71F
:10CE24004704418B2382E704F250B7E700E023A0D4
:10CE3400571123A24711E25432445259C259325A6B
:10CE4400A25A125B825B724CE24C21618280A5473C
:10CE54006395F90685691309F00FB3069900B37455
:10CE64002B01B6941349F9FFB3749900856B337998
:10CE74006901416B9387F9FFB3F7270199E363FCD9
:10CE8400340193D94900C147E3E637FF99BF0569E7
:10CE9400C1697D19D9B71305800D6388690113052C
:10CEA40000026384790113051008CA85DD3B353D12
:10CEB40021DD4E99B3843441D9B7DA852D45D53374
:10CEC400CA94E30099F205097D3BA30FA9FED5BFDF
:10CED4009387F9FF93F7F70F6361FC0C83C71C0476
:10CEE40013073008631FF70437070800636BEB046C
:10CEF400B3079B00B706100063F5D704334BEB0070
:10CF040089476393F9068980D549E38C04ECDA8573
:10CF14000945413B11090327C9FF91472320E480B8
:10CF240003076480E34E07FE23033481FD17EDFB02
:10CF3400FD14110B81C49377FB0FE9FF7D3371F569
:10CF4400E1B5B717004003C75704B70708001377C4
:10CF5400070219E3B78707007955E378FBEA33073B
:10CF64009B00E3FFE7F855B58547E382F9F2DA85DC
:10CF74002D45053B9389F4FFE38504E6293393F7B4
:10CF8400390091EB832604800327090093074900A5
:10CF9400E39AE6E43E89CE84F1BFB5476396F9008F
:10CFA4001305900BC93135BDB1471305B00AE38BA6
:10CFB400F9FE99476391F904B7050800B365BB000E
:10CFC4002D45C53181448D4BA14975396396740152
:10CFD400832704802320F9008504E39834FF832702
:10CFE400048013172B01635507002312F900D5BBE6
:10CFF4002322F900FDB39D476399F9028145130586
:10D00400B0044531BD442320090023220900FD5901
:10D014009D3993F77400CA9703C70700FD14398D2F
:10D024002380A700E39634FF6DBBA1476392F90404
:10D034006D398144630D0B008D479304C00363086D
:10D04400FB009304000563048B01930440041375EF
:10D05400C507E30895D819453931393905452131D2
:10D0640026850D3909453D314931E31C05D669BB97
:10D0740091476399F90013056006F536F53E1305EB
:10D0840090090DB7E38F09D4F154A9BB19CD91CD03
:10D0940009CE81473387F500834607003307F5003F
:10D0A40085072300D700E317F6FE828019C991C9CA
:10D0B40009CA910583A7C5FF11057D16232EF5FE28
:10D0C400C5BF828001C919C62A960505A30FB5FEFE
:10D0D400E31DA6FE828081473307F500030707009E
:10D0E40019E33E8582808507C5BF01112E8626CAB5
:10D0F400AA84131506019305F004418122CC06CEBF
:10D1040032C6EF0010762A8401C53246A685BD3F9B
:10D114002285F2406244D24405618280854715C16C
:10D124008DC105C28147B306F5003387F50083C678
:10D134000600034707006398E6008507E315F6FE3B
:10D1440085473E8582808147EDBF9307F6FFBE95F4
:10D154002A966313C5008280FD1583C71500050553
:10D16400A30FF5FEFDB7AA87014581CF09CE3E96F0
:10D17400850703C7F7FF6317B700E39BC7FE0545A1
:10D18400828082800145828079719757000093875D
:10D19400675C22D4804306D626D24AD04ECE52CCE7
:10D1A40056CA5AC85EC662C45DCC37C9C901814B30
:10D1B400175A0000130A8A5E975400009384C459D6
:10D1C4001309F937975A0000938A8A53B709C0A8FC
:10D1D400370B40578357240095E35C44639D0B0051
:10D1E400175700002328F756032CC4002285EF00AC
:10D1F4007074628499A823A6FB00FDB783270A00F4
:10D204008297838664011C4463DB06063307F5407A
:10D214006367E9089757000023AC074E8355240041
:10D2240003450400972002E0E780406A5C405844CC
:10D23400A9CF1444B6978386640163C5060063E3EB
:10D244003701DA971CC4A28B3A8449F4975700003B
:10D254009387074B9C4B09476378F706F9171757D1
:10D2640000002327F74AB250225492540259F2493B
:10D27400624AD24A424BB24B224C45618280E377E8
:10D28400F5F83387F9402A9761B763970B009757EE
:10D29400000023A1E74C89BF23A6EB00B1B7D85007
:10D2A40009CF63DF06003385A74083A70A016376AD
:10D2B400F5009757000023ADA744A28B404471B7F3
:10D2C400E3F3A7FECE97C5B79757000023A2074400
:10D2D40059BF411122C417540000130464451C4073
:10D2E40006C626C24AC091C782979757000023A159
:10D2F40007445C4091C382971C406390071C975776
:10D30400000083C7B75D858B95C797570000A38737
:10D31400075C175700000347975C954763FCE700D9
:10D32400352B9757000083C7975BF5178A07A29799
:10D334009C438297175900001309095E8347C9006B
:10D34400918B99C3EF0050451C4491C38297975425
:10D3540000009384E43F9840175600000346563A71
:10D364009757000083C7C73993961700BA9683D698
:10D374000600D5CA9757000083C7873863EFC70AEA
:10D3840097570000238E07361C406398071297575F
:10D39400000083C7F75491CF9757000083C73754D1
:10D3A40089EB97570000A38D0752974002E0E7806E
:10D3B40000C9975700009387673E9C43638F070E0D
:10D3C400B707C0A8175700002324F734753B9757B5
:10D3D400000093876738DC53EDC317570000130729
:10D3E4002732184B9757000083C757386367F70CE9
:10D3F400175700000347B74E954763E0E70C834790
:10D40400C900918BDDEB90409756000083C6562FE0
:10D4140063CBD70A2244B240924402494101172304
:10D4240002E067008337850793F7F70F97560000EC
:10D434002388F62CE3E6C7F235BF86073E9783556B
:10D4440007002310070097570000239107309757D0
:10D4540000009387A72D9C43175500000345452AD8
:10D4640013172500BA979C4382979757000083D7D8
:10D47400E72D175700000347A72893C7F7FF7D8DB3
:10D484009317170098403E97835707005D8D23102C
:10D49400A7009757000083C7A72691C7850717578A
:10D4A4000000230FF72417570000034767259757F9
:10D4B400000083C7F724E375F7ECB240224492449A
:10D4C40002494101828013971700329703570700DE
:10D4D4006DF7850735BFAD6737C70040BD07232605
:10D4E400F7200F1000009757000093876721C84F5B
:10D4F40083278726BD66BD0693C7F7FF99836A0510
:10D504002326D7205D8D82804111B7170040985F94
:10D514003AC6945F3247E39CE6FE3245410182807D
:10D524008280011122CC175400001304A43C18403B
:10D534002AC62EC432C206CE3C4B93F7F7F73CCB37
:10D54400974002E0E78060AC18409756000093864D
:10D55400A6373C4B93E707083CCB9C423245A24597
:10D5640023A00700034715000348250022074208AB
:10D5740042970348050042970348350062084297E2
:10D5840098D703475500034865002207420842978D
:10D594000348450042970348750062084297D8D76C
:10D5A400034795000348A500220742084297034811
:10D5B400850042970348B5006208429798DB034709
:10D5C400D5000348E5002207420842970348C500F6
:10D5D4000345F500429762052A97D8DB03C7150077
:10D5E40003C52500220742052A9703C505002A978B
:10D5F40003C5350062052A9798CF03C7550003C5B4
:10D604006500220742052A9703C545002A9703C5EA
:10D61400750062052A97D8CF03C7950003C5A500F6
:10D62400220742052A9703C585002A9703C5B5003A
:10D6340062052A9798D303C7D50003C5E5002207DE
:10D6440042052A9703C5C50083C5F5002A97E2055C
:10D654002E97D8D3D843759BD8C3D84313671700E4
:10D66400D8C398431367170098C3124698425C4383
:10D67400858BD1E71C4F01452300F6009C429C4F4B
:10D68400A183A300F6009C429C4FC1832301F600B2
:10D694009C429C4FE183A301F6009C42D84F230295
:10D6A400E600D84F2183A302E600D84F4183230329
:10D6B400E600D84F6183A303E60098532304E600F1
:10D6C40098532183A304E600985341832305E6007D
:10D6D40098536183A305E600D8532306E600D85384
:10D6E4002183A306E600D85341832307E600DC53D5
:10D6F400E183A307F600F2406244056182800100E1
:10D70400B5B7175700001307671C1443411122C40F
:10D714009C5E4AC006C6998326C2858B3A841759F3
:10D7240000001309691AD1CB9C5E975400009384BE
:10D73400A41A93F7F7F99CDE175700000347271A3A
:10D7440093070008631BF700832709009C4393F7A2
:10D754000704175700002304F71883C7040093F73E
:10D7640007049DC397570000938747039C43829700
:10D774009757000023AAA71683C7040093F7F70B53
:10D7840017570000230AF71483C7440093F70704CC
:10D794008DE7854717570000A302F7149757000039
:10D7A400938747159C43096798C7130700FC97564E
:10D7B40000002385E612D844F8D31C40985F1183F7
:10D7C400058B09CB985F3D9B98DF05479756000072
:10D7D4002386E610985F1D83058B11CB985F137722
:10D7E400F7F798DF8547175700002309F70E8327BB
:10D7F4000900D8430583058B19C7D843759BD8C343
:10D80400D843799BD8C3B24022449244024941018F
:10D814008280397106DE16DC1ADA1ED82AD62ED496
:10D8240032D236D03ACE3ECC42CA46C872C676C44C
:10D834007AC27EC0F935F250E2525253C253325585
:10D84400A255125682567247E2475248C248324E97
:10D85400A24E124F824F216173002030975700006F
:10D86400938747099443975700009387E70603C7B4
:10D874000700058B11CB97570000238107069757A4
:10D884000000A38D0704828003C71700058B65F78A
:10D89400F85271FF83C75700DDB71758000013080B
:10D8A400E802032708001C5F9583858BD1E709C62E
:10D8B4001C5BBD832300F60085CA83270800985BA0
:10D8C4004607935767016356070093E707C0C207EB
:10D8D400C18303970600C207C18709C7BA970947DE
:10D8E400B3C7E7022390F60085CD834715008DCB9F
:10D8F4009756000083C6A6FE93F606041387970086
:10D9040089478DCA3A95034705008546994713769A
:10D91400F7066311D60262076187B947634C0700B3
:10D92400832708009C5FED838D8B17570000A30AA3
:10D93400F7FA81473E8582808547EDBF411122C4B5
:10D9440006C6175400001304E4FA184049E9AE87E8
:10D954007453FDFE3E85B28597570000238F07F66A
:10D96400973002E0E780C04597570000938707F699
:10D974009C43B70680009843558F98C3D857719B32
:10D98400D8D797570000A38B07F497570000A385B7
:10D9940007F41C40094798C3B7F700E003A707D171
:10D9A4006D9B23A8E7D003A707D15D9B23A8E7D0ED
:10D9B400730050101440175700001307E7F1834712
:10D9C4002700858B89EB83473700858BD9C7975709
:10D9D4000000238507F0B2402244410182808D4734
:10D9E4006310F50297570000938747EE9C43B706F0
:10D9F40080009843558F98C3D857719BD8D75DBF83
:10DA04008547E319F5FAB567BD075CC70F10000039
:10DA14001C400967094698C7130700F89756000089
:10DA2400238EE6EA17570000130747EA1443984287
:10DA340031830D8B6319C7001307E043F8D33D67A7
:10DA44003D07D8C785BF984231830D8B01E7130783
:10DA54006019EDB71307E01BD5B7FC52ADF3A5BFB2
:10DA64005D7152DC175A0000130A4AE603270A00C4
:10DA740086C6A2C4A6C2CAC04EDE1C439759000083
:10DA8400938909EC175900001309C9E693F7F7E7DE
:10DA940093E707081CC383A609003707CEFF7D1749
:10DAA4009C46130680022A84F98F9CC683270900AA
:10DAB400130700082800B8CBAE8493051008EFF0D4
:10DAC4006FE0973002E0E7804054973002E0E7804F
:10DAD400406183270A009376F41F370FFCFF23A4C9
:10DAE4000700984B4E88CA881367F70398CBF84F02
:10DAF400130510F8D285137707E0558FF8CF9843B4
:10DB0400F576FD16758F98C39843B7063300B702B0
:10DB140004001377F7E798C398439303401F7D1FCE
:10DB24001377F7E71367071098C303A70900930F48
:10DB3400800285491C47D58F1CC78327090013071A
:10DB4400900D3400B8CB1149014713533700269385
:10DB54008347030013767700B3D7C740858BDDCFA7
:10DB64009C41832E0800239C07042390070603AEE0
:10DB7400CE02137EDEFF23A6CE0383AE0700137E00
:10DB8400F70793FE0EF833EECE0123A0C70103AED0
:10DB94004702336E5E0023A2C70383AE0800014E22
:10DBA40023A27E0603DA070663074E0303AE0703C8
:10DBB400038A0600135EFE00620E135E8E416358F4
:10DBC400CA0103AE0703135EFE002380C60103DE11
:10DBD4000706137EFE0F03AA4E0663060A0003DA45
:10DBE4008705E37F49FB03AE4702337EEE0123A2A0
:10DBF400C70383870600635CF400034E0300339677
:10DC0400C9001346F6FF3376C6012300C3003E86DF
:10DC140063D3A7002A861315860161850507137748
:10DC2400F70F8506E313F7F3B640264496440649F6
:10DC3400F259625A6161828097560000938686CBBE
:10DC44009C42D847131617016355060298471316CA
:10DC54001701635006027D57B8D717570000130702
:10DC640027AA584F0507175600002329E6AA11676B
:10DC740098C798470D83058B1DC3175700000347AA
:10DC8400C7C513671700175600002308E6C4130717
:10DC940000F8175600002303E6C4214798C79847A5
:10DCA400058B09CF17570000034717C313671700E5
:10DCB40017560000A302E6C2054798C79847098390
:10DCC400058B09E798470583058B31CF984717568D
:10DCD4000000130666C017550000130525BF09830D
:10DCE400058B630307101841184331830D8B75EBC3
:10DCF400AC4B184E93F5050203471700CDCD79EFD1
:10DD040013077006D8CF034706001367170017568A
:10DD140000002303E6BC114798C718415C57F19BE8
:10DD240093E717005CD79C4298479316370163D654
:10DD340006029756000083C626C9C18A17570000F9
:10DD4400130747C1C5CE0347470713670702975612
:10DD54000000238BE6C6056798C7984793162701EA
:10DD640063D1060217570000034747B7620761876C
:10DD7400635707000547975600002381E6B60967F5
:10DD840098C798479316070163D606029756000072
:10DD940083C696C3858A175700001307A7BBADCE69
:10DDA400034757071367270097560000A38EE6C062
:10DDB400216798C7828029D785456315B700130763
:10DDC400B00689B789456315B7001307F0061DBF70
:10DDD4008D456315B700130730072DB71307500798
:10DDE40015B71307600739BF0347360013671700D9
:10DDF40017560000A303E6AE094739BF8346470719
:10DE04000946BD8A6388C600034747078D463D8B94
:10DE1400E313D7F4114725BF83465707918AC9DA1C
:10DE2400034757071367870041B7397106DE16DCCD
:10DE34001ADA1ED82AD62ED432D236D03ACE3ECCD6
:10DE440042CA46C872C676C47AC27EC0F533F2505E
:10DE5400E2525253C2533255A25512568256724759
:10DE6400E2475248C248324EA24E124F824F2161BD
:10DE74007300203017570000130707A88346B70123
:10DE84009757000083C717AA4C4BB697FD8B33D71F
:10DE9400F50097560000A381F6A697560000A383C9
:10DEA400F6A8058B15EF175700000347F7A7B3F73C
:10DEB400E702814601471305000233D6E500058ACF
:10DEC4001378F70F19CA6397D70097570000A385F3
:10DED40007A38280850693F6F60F0507E31FA7FCC8
:10DEE4008280975700009387678B9C43011122CC53
:10DEF4004EC606CE26CA4AC852C456C282979757FF
:10DF04000000938767A1804781496305A406BE8406
:10DF14009757000093874784038767013E896355B9
:10DF24000706018D135455009757000083C7679E59
:10DF34009379F501636DF402370AC0A8B70A405714
:10DF4400153F9C449756000083C6A69C1397560021
:10DF54003E9783076901158C63C507006363470116
:10DF640056979757000023ADE79AE37BD4FC160439
:10DF7400B3693401F24062444E85D2444249B24905
:10DF8400224A924A05618280E37D85F8B707C0A8DA
:10DF940033848740229579B7975700009387078089
:10DFA4009C43411122C406C626C28297975700009B
:10DFB4009387879680476309A406BE849747000029
:10DFC400938787798387670163D80704018D135486
:10DFD40055009757000083C7C7936367F404593DFE
:10DFE40098449757000083C7C79293965700369773
:10DFF4001D8C9756000023A5E692E372F4FE22449A
:10E00400B2409244175500000345158F81454101E4
:10E01400173302E067006328E37A85FAB707C0A8DC
:10E0240033848740229565B7B2402244924441012B
:10E034008280975700009387A7909843B7570200B0
:10E044009387079F83260709139656006358060093
:10E05400832607091396660063440600FD17FDF343
:10E06400828071C5AA870145E9C58D07C207C183AE
:10E07400F19BC207C18313074003636FF70217576D
:10E0840000001307E78C0843175700001307C78BDA
:10E0940014436398A602174700001307E76B185B45
:10E0A400014541CB4111C20706C60545DD8D0297E6
:10E0B400B2400145410182801757000013070789C8
:10E0C400D9B70357650035E303574500636FF70479
:10E0D400B306F7402146637CD602032805009386E5
:10E0E40087001D8FAA966117174600000356A66184
:10E0F4002392E60023A006012393060014C12312F1
:10E10400F500130786FF97460000239EE65E23135F
:10E11400B5009745000083D5055FB387F5401747E1
:10E1240000002312F75E2105828008419DB7014556
:10E13400828082800DC1975700009387678103A373
:10E144000700975700009387278083A8070081461C
:10E154009A8763E31701828003A80700636DF50AB9
:10E16400636BA80A13878700E367E5FE03D667009D
:10E17400216705076317E60003C7B18D0507A38D63
:10E18400E18C974500009385A55703D6470003D734
:10E194006500239307003297420741831745000027
:10E1A4002313E556638A6702174500001305057AB1
:10E1B40008416303F50203D5660019ED83D74600D1
:10E1C40023A0060121073E9621062392C600974705
:10E1D4000000239AE752B6879843E30E17F7974651
:10E1E40000009386A6769442E307D7F68356670029
:10E1F400BDF283D64700035647001843A106B296E2
:10E204002392D70098C383D76500A107174700005E
:0CE21400231BF74E8280BE86C28725BF08
:10E220009751FF1F938181A217A1FF1F130181DD69
:10E2300017E5FFFF130545DD9725FF1F938585DC57
:10E240001746FF1F1306C6FD63FAC50083220500AB
:10E2500023A0550011059105E3EAC5FE17550200FC
:10E26000130585F79745FF1F938585FB138601836B
:10E2700063FAC5008322050023A05500110591050E
:10E28000E3EAC5FE138501839785FF1F9385457ECD
:10E290006377B500232005001105E36DB5FEFD424F
:10E2A000739002BC8D4273904280B722000093822B
:10E2B000828873A002309722FF1F9382A2D493E238
:10E2C00032007390523097220100938222F27390B1
:10E2D0001234730020303D432A876373C30293775F
:10E2E000F700BDEFADE5937606FF3D8ABA960CC305
:10E2F0004CC30CC74CC74107E36BD7FE11E28280C9
:10E30000B306C3408A069702000096966780A6006F
:10E310002307B700A306B7002306B700A305B7007D
:10E320002305B700A304B7002304B700A303B70075
:10E330002303B700A302B7002302B700A301B7006D
:10E340002301B700A300B7002300B700828093F534
:10E35000F50F93968500D58D93960501D58D61B700
:10E36000939627009702000096968682E78086FAA9
:10E370009680C1171D8F3E96E374C3F8A5B7336727
:10E38000B500FD530D8B79E7B7877F7F9387F7F74C
:10E3900010419441B372F6003363F600BE92B3E2CB
:10E3A00062006397720C6318D6065041D441B37271
:10E3B000F6003363F600BE92B3E262006398720A1D
:10E3C000631BD60410459445B372F6003363F60020
:10E3D000BE92B3E262006391720A631ED602504598
:10E3E000D445B372F6003363F600BE92B3E2620026
:10E3F000639A72086311D60210499449B372F60009
:10E400003363F600BE92B3E2620063937208510573
:10E41000D105E30FD6F61317060193970601631C87
:10E42000F7001357060193D706013305F74093759C
:10E43000F50F91E982804183C1833305F7409375DD
:10E44000F50F91E182801377F70F93F7F70F3305FC
:10E45000F74082800346050083C605000505850553
:10E460006313D60065FA3305D64082801105910505
:10E47000E312D6FE014582802105A105E31CD6FCEE
:10E48000014582803105B105E316D6FC0145828045
:10E490004105C105E310D6FC01458280130101D17D
:10E4A0002E86AA85E8192326112E2324812E2322C5
:10E4B000912E2320212FEFD020271305D10FEFC05D
:10E4C000612B93150501C1811305D10FEFD04032A7
:10E4D00097050200938585B21305D10FEFC0307602
:10E4E0000DC90545970502009385C5B1EFC0B0562B
:10E4F0001775FF1F03450595EF6060158320C12E3A
:10E500000324812E8324412E0329012E1301012F80
:10E51000828097050200938525B01305D10FEFC0C7
:10E52000107219CD97050200938585AF0545EFC0A0
:10E5300090521775FF1F0345E590EF6000147DBFF3
:10E54000970502009385C5AE1305D10FEFC0306F5C
:10E550000DC1371700408327C70AA166970502003F
:10E56000938585ADD58F2326F70A2545EFC0B04E9C
:10E5700071B7970502009385E5AC1305D10FEFC085
:10E58000106C11CD371700408327870AA1669705C5
:10E5900002009385A5ABD58F2324F70AF9B7970519
:10E5A0000200938525AB1305D10FEFC0506911CD43
:10E5B000371700408327C70A97050200938545AAAD
:10E5C00093E707402326F70A4DB797050200938586
:10E5D00025AA1305D10FEFC0906611CD3717004063
:10E5E0008327870A97050200938545A993E707408B
:10E5F0002324F70A9DBF97050200938525A91305DB
:10E60000D10FEFC0D06311CD371700408327870C9F
:10E61000896697050200938525A8D58F2324F70CDA
:10E62000A9B7970502009385E5A71305D10FEFC0A1
:10E63000106111CD371700408327C70C89669705F5
:10E6400002009385E5A6D58F2326F70C39BF9705E1
:10E6500002009385A5A61305D10FEFC0505E11CD22
:10E66000371700408327870C97050200938585A5FF
:10E6700093E707402324F70CCDBD9705020093854F
:10E68000E5A41305D10FEFC0905B11C59767FF1F7D
:10E6900023AA077CA5B5970502009385E5A313057A
:10E6A000D10FEFC0D05901C5EF60C07781BD97058C
:10E6B0000200938525A31305D10FEFC0505801C563
:10E6C000EF60A07625BD97050200938565A213052E
:10E6D000D10FEFC0D05601C5EF60607405B5970546
:10E6E00002009385A5A11305D10FEFC0505501C5B8
:10E6F000EF90B04121B5970502009385A5A01305C1
:10E70000D10FEFC0D05309C50545EF905053FDB36D
:10E71000970502009385859F1305D10FEFC03052F6
:10E7200019C10145DDB7970502009385A59E130524
:10E73000D10FEFC0D0500DC10564130504808D4585
:10E74000EF001170371700408327870C13040480F3
:10E750005D8C2324870C5DB3970502009385059C8F
:10E760001305D10FEFC0B04D0DC105641305048032
:10E770008D45EF00F16C371700408327C70C130459
:10E7800004805D8C2326870C95BB9705020093853A
:10E7900065991305D10FEFC0904A15C58D45130536
:10E7A0000008EF00F169371700408327870C9705B1
:10E7B00002009385259793E707082324F70C254546
:10E7C000EFC0B03F25BB9705020093852596130542
:10E7D000D10FEFC0D0461DC18D4513050008EF00D5
:10E7E0003166371700408327C70C970502009385D1
:10E7F000E59393E707082326F70CD1B797050200A6
:10E80000938545931305D10FEFC0704309CD716611
:10E8100097D600009386460D1306062085450145D0
:10E82000EF80F01DE1B9970502009385259113054E
:10E83000D10FEFC0D04011C9716697D60000938602
:10E84000A60A130606208145D9BF970502009385C5
:10E85000A58F1305D10FEFC0903E19CDEFD0507AA0
:10E86000EFA0516E2A86AE86254597050200938556
:10E87000258EEFC0903459B1970502009385058E1F
:10E880001305D10FEFC0B03B39C5130640068145D3
:10E890006808913413064006814508012D3C930613
:10E8A000511713069113970502009385A58B6808ED
:10E8B000EFB0D1666808EFB0F16BAA851001680867
:10E8C000EF00615E1001970502009385258A2545BA
:10E8D000EFC0B02E25B1970502009385A5891305D9
:10E8E000D10FEFC0D03529C11766FF1F13067685FB
:10E8F000971502009385454B2545EFC0102C976571
:10E90000FF1F9385A5841765FF1F13059583176661
:10E91000FF1F13063684EFF0B04D156581451305D2
:10E9200075C4EF006110D9BE970502009385C584B8
:10E930001305D10FEFC0B03035C597F701009387AD
:10E94000676A9843DC43930540063AC93ECB97F784
:10E9500001009387A7699843DC4308013AC53EC785
:10E9600097F70100938787679C433ED58547A309A6
:10E97000F10A97F701009387E7679843DC433ACDA4
:10E980003ECFB7171609938757913EC18D6793877E
:10E99000A7402312F108EFF0105B116581451305C4
:10E9A000057541B797F501009385457D1305D10F96
:10E9B000EFC0F0283DCD938701829043D4439387E5
:10E9C00081829843DC4332CE36D03AC13EC332C452
:10E9D00036C63AC83ECA014417F901001309497AFC
:10E9E000A1443C00A29703C60700CA85254505043B
:10E9F000EFC0B01CE31794FE014417F9010013099E
:10EA00002978A1441C08A29703C60700CA8525459A
:10EA10000504EFC0901AE31794FE4247D2472246FE
:10EA2000B24697F501009385E5752545EFC0F018CE
:10EA3000F1B40346D10FA547130606FD1376F60F72
:10EA4000E3EEC7AA9767FF1F2386C74097F501002B
:10EA500093858574B5BD411106C6EF707078B240DC
:10EA6000AA8617F70100130767311756FF1F130611
:10EA7000E61A97F501009385A531114541016FC054
:10EA8000D013317122DD4AD906DF26DB4ED752D5AD
:10EA900056D35AD103470500930710042A892E84C0
:10EAA0006318F73E03471500930740056312F73ECE
:10EAB000034725009307E005631CF73C2E86AA85D3
:10EAC0002545EFC070041306D003A2854A85EFC028
:10EAD000501DAA84635A05003546A2854A85EFC0B9
:10EAE000501CAA84634505089389D4FF930710033B
:10EAF00063CF37074E86930539006808EFB0714B36
:10EB00001C11BE9917FA0100130A4A43238E09F615
:10EB1000D28A8149514B83254A006808EFC03012E0
:10EB20000DC18E09D69983D709004D47636FF70051
:10EB300017F701001307871F8A07BA979C43BA97F4
:10EB400082878509210AE39869FD97F5010093857D
:10EB5000253E254529AA9305F4FF858D13851400CC
:10EB6000C20581460146C1814A95EF20F00AFA505C
:10EB70006A54DA544A59BA592A5A9A5A0A5B29618C
:10EB800082809305F4FF858D13851400C205C18131
:10EB90004A95EFF0BF90E1BF1306F4FF058E138591
:10EBA00014004206418297050200938525E74A95A5
:10EBB000EFC0B01C1764FF1F1304C42739C597F5B5
:10EBC00001009385251E8808EFB0B1398808EFB0A1
:10EBD000713A1316050141828C081755FF1F130562
:10EBE000E585EF80701F97F501009385251D114580
:10EBF000EFC060661C40414593E717001767FF1F91
:10EC0000232AF722EFD020279DB797F5010093859F
:10EC1000A51B1145EFC020647D55EFD0A0281C40F6
:10EC2000F99B1767FF1F2327F72091B72D3581B771
:10EC30001306F4FF058E13851400420641829705E2
:10EC400002009385A5DD4A95EFC030139767FF1F3B
:10EC50009387471E9C4319CD93E717001767FF1F43
:10EC6000232AF71C97F501009385C5161145EFC0BF
:10EC7000805EF5BDF99B1767FF1F232DF71A97F5E7
:10EC800001009385E515DDB7EF7070189767FF1FDA
:10EC90009387471AE847EFA0F12AAE862A8697F5B0
:10ECA00001009385A5141145EFC02071C9B5EF503F
:10ECB000D04175BD170602001306C6D697F50100B0
:10ECC000938585131145EFC0406F55B5EF707055B2
:10ECD00097F501009385051351F997F50100938588
:10ECE000651369B70D45EF90A04BAA84EFA091255D
:10ECF0002A86AE86254597F501009385E512EFC07B
:10ED0000C06B97F701009387A7098843A68517541E
:10ED1000FF1F1304E410EF90D17F2322A426EF708D
:10ED2000905603254426EFA0F121AE862A8697F55A
:10ED300001009385251085BF81450D45EF50B076C4
:10ED4000EF7050492A8697F50100938565119DBFA4
:10ED500081452D45EF503075814513055004EF5026
:10ED6000907497F501009385A5103145EF50B0736D
:10ED7000EF70B0462AC4EF701047A2462A87175694
:10ED8000FF1F1306A6E997F501009385A50E11450F
:10ED9000EFC0A062E9BB1757FF1F0357672E9756B6
:10EDA000FF1F9386F6111756FF1F130626E797F5E8
:10EDB00001009385650EE1BF85471757FF1F2309A3
:10EDC000F72CEF70504C97F501009385250E79BD17
:10EDD0001757FF1F0347C72B854797F501009385FA
:10EDE000650DE315F7E8C5B79767FF1F938787049D
:10EDF000A847EFA03115AE862A8697F501009385C6
:10EE0000E50B55B5B717004083A7470A97F50100F2
:10EE10009385050C13973701E34A07E497F5010042
:10EE20009385050DA1B5138514004A95EFA0513ABD
:10EE3000AE892A899764FF1F9384C4FFEFD0501CCA
:10EE4000E8D4EFD0F01B2A84CE854A85EFA0511A72
:10EE5000A285EFA041519757FF1F938767FC23A41A
:10EE6000A7282A84EFA0110E2EC6EC542AC42285AE
:10EE7000EF909133EFA0110D2247B2472A86AE865C
:10EE8000114597F501009385E508EFC00053C5B122
:10EE90002286CA851745FF1F1305455AEF80C073A8
:10EEA000F9B1411122C421649305048099460146B9
:10EEB000254506C69720FF1FE780E0E693050480FE
:10EEC0002244B24099461386018329454101172304
:10EED000FF1F670043E599E10145828075DD01115F
:10EEE00052C403DA418326CA93548A008504A204DB
:10EEF000C204C18056C2B38A4441C20A22CC4AC865
:10EF00002E862E842A8997F501009385254525456F
:10EF100093DA0A014EC606CE93890183EFC0E04919
:10EF200063ED8A0883D5418393F7F50FB1CF8D67E1
:10EF300083D5418393870780A2864A86BE9529455B
:10EF40009720FF1FE78020DE1375F50F29ED83D78B
:10EF500049001566A297239AF18203D7418383D78C
:10EF600021836309F70063F3E700B297998F139643
:10EF700007014182254597F501009385A53FEFC024
:10EF8000C0431375F40F0DA08D6793870780930618
:10EF900000100146BE9525459720FF1FE780A0D8A9
:10EFA0001375F50F49D50145F2406244D2444249F8
:10EFB000B249224A924A05618280B3079440D297AF
:10EFC000C207C183A18303C74900850793F7F70FE1
:10EFD0009396870011EB9386170093740AF0A206AC
:10EFE000C204C206C180C18283D7218363F6F400C4
:10EFF00033879600E3C9E7FA0D6A130A0A800146CF
:10F00000B385440125459720FF1FE780C0D11375C4
:10F01000F50F51F983D54183A2864A86D29505B76B
:10F02000411122C41384018322858145194606C6F5
:10F030009720FF1FE78040099307B0FA2300F400F0
:10F040008D352244B24097F501009385A5292545C9
:10F0500041016FC04020A16541119946138601838B
:10F06000938505802D4506C69720FF1FE780A0CB1E
:10F0700003C701839307B00A6303F7005537B24013
:10F0800083D6418303D6218397F5010093854526D6
:10F09000254541016FC06032130101BD2322914219
:10F0A000232611422324814223202143232E314150
:10F0B000232C414183D7C18E814481CB83D4E18EFF
:10F0C00063E5F40223A6018E81448320C142032418
:10F0D0008142268503290142832441428329C1417B
:10F0E000032A8141130101438280B384974093072F
:10F0F0008002B3D4F40293F4F40F81E42396018EDA
:10F10000E9B7054697F50100938585282545EFC0A9
:10F11000C02A014481441389018FA149254A83D71C
:10F12000E18E1757FF1F034737E68DC49387870289
:10F130002397F18EA147631EF704A2850808EF40CC
:10F14000900103D7E18E83D7C18EE360F7F823A641
:10F15000018EA5BF1408CA9733858600631E370148
:10F16000BE85EF40F01E2317A1008357E1008544C0
:10F170003E944204418065B763164701BE85EFF0B7
:10F18000B022D5B7AA851306E1003E85EFA0E00DB9
:10F19000E9BFA54722860C086316F7001545EFF076
:10F1A000803A45B70145EF60701961BF011106CE85
:10F1B00022CC26CA4AC84EC652C499E901442285C7
:10F1C000F2406244D2444249B249224A05618280F7
:10F1D000AA896DD583D7418303D621832E84956474
:10F1E000638AC7006374F60015673A961D8E931400
:10F1F0000601C180268697F501009385A50B25455C
:10F20000EFC0A01B938714F06356F4009307F00F30
:10F2100063EA970097F501009385450B2545EFC0FC
:10F22000C01969BF83D44183B3878400156A6347DB
:10F23000FA00A2854E854531AD3151B715693309C4
:10F240009940420913590901CA854E85693109E57A
:10F2500083D74183E39447F7ED75A695A295C20540
:10F26000239A0182C18133852901F1B783D6C18EEA
:10F2700081EA97F501009385E50B25456FB0B07DD8
:10F2800003D6E18E4111918E97F501009385850B90
:10F29000254506C6EFC060121387C18E835507004F
:10F2A00083D7E18E1385018F9D8DC2053E95C18167
:10F2B000F53DB24023A6018E41018280411183D7E2
:10F2C000C18E22C426C206C6AE971307001EAA84AA
:10F2D0002E84635AF700593F97F501009385450343
:10F2E0002545EFB0507783D7C18E1385018F2286D5
:10F2F000A6853E95EFA0E17003D6C18E2296420608
:10F300002244B240924441822396C18E97F5010077
:10F3100093858501254541016FC0200A011126CA48
:10F3200006CE22CC4AC84EC652C456C2814451C1F0
:10F33000C9C183D7218303D44183638C870663F4D7
:10F3400087081D8C42044180AE892A89228697F560
:10F3500001009385A5F20145EFC02006A28463F366
:10F360008900CE84C2040D6A83D7218303D74183E9
:10F37000C180938A0183130A0A8063F9E704A68691
:10F380004A86B38547012D459720FF1FE780A09946
:10F3900083D72A00A6972399F182213683D6418309
:10F3A00003D6218397F50100938585EE2545EFC0AF
:10F3B000C000F240624426854249D244B249224A02
:10F3C000924A0561828015673A94A5BF15671D8F23
:10F3D000B385470163D5E400A6864A866DB7956973
:10F3E000B389F9406D743E94C20993D909012694FA
:10F3F000CE864A8642042D459720FF1FE780A092C3
:10F400004180A28633063901D2852D452399018298
:10F410009720FF1FE780209183D72A003E942399ED
:10F420008182A5BF130680078145138501F017234C
:10F43000FF1F670063C9397126DA4AD84ED652D405
:10F4400056D25AD006DE22DC62CE66CC2A89EFB0D4
:10F4500061329374F50F8149254BE54A17FA010093
:10F46000130A4AF491ECF25062544E85D254425938
:10F47000B259225A925A025B724CE24C216182804C
:10F4800003470900930707FD93F7F70F637CFB0021
:10F490009307F7F993F7F70F63E2FA06930797FAE2
:10F4A00093F7F70F139487016184FD1423008900FB
:10F4B0002685EF90C1412A86AE8603250A00832562
:10F4C0004A0093F4F40F0509EF10210E2AC4228597
:10F4D0002EC6EF90C13F2246B246EF80E16F2A8CE4
:10F4E0004E85AE8CEF90C1452A86AE866285E68554
:10F4F000EF707103EF90E137AA89ADB79306F7FB80
:10F5000093F6F60F8147E3EFDAF8930797FC49BFCC
:10F51000411122C406C6830795022A8499C71305A0
:10F520009502EFA0414B2389A1F28307D41291CB1E
:10F530001305D412EFA0C149EFA0812B938701F0EE
:10F54000C8D3B24022444101828041114AC013090C
:10F55000150022C497F50100938545EC2A844A855D
:10F5600026C206C6EFB0B075854419E997F50100CB
:10F57000938505EB4A85EFB09074630105108944CB
:10F580008307D4036386070E13059402EFA0A144FA
:10F590008947638AF4108D476380F41E8547639919
:10F5A000F40C1305D403EFA00143A38AA1F283C78F
:10F5B000818399EB79468145138571F5238C91827E
:10F5C000A38C0182EFE03FD10307D4089307000327
:10F5D0006301F7021305D408EFA0E13F03C791834D
:10F5E00093071700A38CF182938701F0BA97A38B3E
:10F5F000A7040307D40D930700036301F702130563
:10F60000D40DEFA0413D03C7918393071700A38C4E
:10F61000F182938701F0BA97A38BA7040307D41252
:10F62000930700036301F7021305D412EFA0A13A78
:10F6300003C7918393071700A38CF182938701F08E
:10F64000BA97A38BA7040307D4179307000363019A
:10F65000F7021305D417EFA0013803C7918393076E
:10F660001700A38CF182938701F0BA97A38BA704AC
:10F67000B2402244924402494101828097F5010040
:10F68000938545DA4A85EFB09063E31A05EE97F566
:10F690000100938565D94A85EFB070628144E3012A
:10F6A00005EE8D44F1BD1305D403EFA0C132238BC9
:10F6B000A1F283C7718381EF854779468145138520
:10F6C00091F3A38BF182238B0182EFE0DFC003076C
:10F6D000D408930700036301F7021305D408EFA0D1
:10F6E000812F03C7618393071700238BF1829387D0
:10F6F00001F0BA97A38CA7020307D40D9307000368
:10F700006301F7021305D40DEFA0E12C03C7618359
:10F7100093071700238BF182938701F0BA97A38C8C
:10F72000A7020307D412930700036301F70213052E
:10F73000D412EFA0412A03C7618393071700238BDC
:10F74000F182938701F0BA97A38CA7020307D4171D
:10F7500093070003E30EF7F01305D417EFA0A127DA
:10F7600003C7618393071700238BF182938701F00E
:10F77000BA97A38CA702EDBD1305D403EFA0A12572
:10F78000A38BA1F2F5B5411122C406C683079507E4
:10F790002A8499C713059507EFA0E123A389A1F255
:10F7A0008307D40899C71305D408EFA0C122238A80
:10F7B000A1F28307540B91CB1305540BEFA0412109
:10F7C000EFA00103938701F088D7B24022444101A2
:10F7D0008280011126CA8146B284014652C456C2B3
:10F7E00006CE22CC4AC84EC62A8AAE8AEF80E121D4
:10F7F00041CD9307E0046386F400930730056395D9
:10F80000F40897F90100938969BF03A6090083A64C
:10F8100049005285D685EF80213C37949800EF90BF
:10F820004105130404682A8933758502EF9041115C
:10F8300003A6090083A64900EF70F14197F7010084
:10F84000938747BC9043D443EF70F1402A8A3355E5
:10F850008902AE8AEF90C10E2A86AE865285D68581
:10F86000EF70614C13073005AE876395E400B7076E
:10F870000080AD8FF2406244D2444249B249224AEC
:10F88000924ABE850561828001458147E5B7011135
:10F8900026CA8146B284014652C456C206CE22CC44
:10F8A0004AC84EC62A8AAE8AEF80211641CD9307F8
:10F8B00050046386F400930770056395F40897F984
:10F8C00001009389A9B303A6090083A649005285C4
:10F8D000D685EF80613037949800EF8091791304DA
:10F8E00004682A8933758502EF90810503A6090013
:10F8F00083A64900EF70313697F70100938787B0F0
:10F900009043D443EF7031352A8A33558902AE8A49
:10F91000EF9001032A86AE865285D685EF70A1400E
:10F9200013077005AE876395E400B7070080AD8FBD
:10F93000F2406244D2444249B249224A924ABE85C8
:10F940000561828001458147E5B7135785009357CC
:10F95000050113D885009376F50F01111377F70F82
:10F9600093F7F70F618593F5F50F1378F80F99C2A8
:10F9700011C3B9E3230CD100A30CE100230DF10066
:10F98000A30DA10003459101834781010347A10114
:10F990002205A30E01014207C98F230EB1000345C2
:10F9A000B101D98F0347D1018345C1016205220707
:10F9B0005D8DD98D0561828032951375F50F131316
:10F9C0008501135383415D4663576608614633637F
:10F9D000C30285071376D70F114593F7F70F630519
:10F9E000A6002545631AA6007946637FF60205073F
:10F9F0001377F70F85470DA809466312C7041386CE
:10FA0000067D93084006B36816036385080013F566
:10FA1000360011C5130500193366A60219EE7546A6
:10FA20006374F60085470D47230CD100A30CE10059
:10FA3000230DF100A30D6100B1B77146D5B77D4626
:10FA4000E374F6FEB147E314F7FA850693F6F60F72
:10FA500085470547D1BFE35903FC6105FD17131323
:10FA6000850193F7F70F13538341DDFF7D1713775C
:10FA7000F70F1146F947E309C7FA1946E306C7FA33
:10FA80002546E303C7FA2D46E300C7FA8947631604
:10FA9000F7021386067D93074006B367F60291C707
:10FAA00093F83600F547E38108F893070019B36728
:10FAB000F60293B71700F10785BFFD4735F7FD162E
:10FAC00093F6F60F31478DB78347150003470500BE
:10FAD0000111A2075D8F83472500834635008345CA
:10FAE0004500C207D98F0347550022CC1744FF1F9A
:10FAF0001304043303067424E206220733E5F600F8
:10FB0000D98D06CE9935135885001356050193D724
:10FB1000850013F7F50F93F7F70F935685011376CA
:10FB2000F60F9375F80F1375F50FEF80A0409757F8
:10FB3000FF1F938727309C4337074000D98F175703
:10FB4000FF1F2329F72E83471400054793F7B70FAC
:10FB50006397E7006244F24005616F80204DF240F8
:10FB6000624405618280497181451306C0124810C4
:10FB700023248116232611162322911623202117D0
:10FB8000232E3115138401F0EFE0EFF483076400B6
:10FB900097F501009385858FB9C383073403054723
:10FBA00097F501009385058A638BE702094797F56E
:10FBB00001009385E5896384E702114797F5010009
:10FBC0009385058A638DE700154797F501009385B6
:10FBD000E5896386E70097F501009385A5894810BC
:10FBE000EFA031384810EFA0F138830734004410FB
:10FBF00083C851F003C841F003C721F083C611F058
:10FC000003C601F097F50100938505892695EFA0BD
:10FC1000F1304810EFA0113618485C480306040381
:10FC20003AC03EC2030814035C441844541097F5CC
:10FC30000100938565883695EFA0512E4810EFA0FE
:10FC400071335C103E958307640017E601001306CC
:10FC5000667E89E717E601001306467E97F50100E8
:10FC60009385C54DEFA0912B4810EFA0B130544CB7
:10FC7000104C5C1097F50100938505853E95EFA02B
:10FC8000F1294810EFA0112F030634035C103E95B4
:10FC900097F5010093850584EFA051284810EFA047
:10FCA000712D03072403AA8448503ACE138401F02F
:10FCB000EF90512972475C10AE862A8697F50100B5
:10FCC0009385458233859700EFA051254810EFA01A
:10FCD000712A5C1003C641F397F5010093850582F4
:10FCE0003E95EFA0B1234810EFA0D1285C1097F506
:10FCF00001009385A5813E95EFA0B1261389E1F11E
:10FD0000A28497F901009389696703C6740519CA2B
:10FD1000481032CEEFA0112672465C10CE853E957B
:10FD2000EFA0D11F8504E31299FE4810EFA09124A3
:10FD30005C1097E501009385E57D3E95EFA071226B
:10FD400097F40100938484630346940319CA48100E
:10FD500032CEEFA0312272465C10A6853E95EFA010
:10FD6000F11B0504E31289FE4C102545EFB0A04EAF
:10FD70008320C1160324811683244116032901160A
:10FD80008329C11575618280411122C406C626C22D
:10FD9000830755012A84B9C7A946938707FDB3870E
:10FDA000D70203476501130707FDBA97A381F1F056
:10FDB0000307750183478501130707FD3307D70242
:10FDC000938707FD3E972382E1F083079501034760
:10FDD000A501938707FDB387D702130707FDBA97DD
:10FDE000A382F1F08307940281CB13071004639977
:10FDF000E71485472383F1F08307D403938401F04C
:10FE000099C71305D403EF90B13C88C4CCC4030652
:10FE1000140509CA8844CC442388C1F2EFF07F9BC3
:10FE200088C4CCC48307540699C713055406EF90C1
:10FE3000313A88C8CCC80306940709CA8848CC4818
:10FE4000A388C1F2EFF0BFA488C8CCC88307D40848
:10FE500099CF1305D408EF90B13797E70100938746
:10FE6000E75C9043D443EF70315788CCCCCC830708
:10FE7000140A99C71305140AEF90F1352390A1F2E3
:10FE80008307540BB9C7A946938707FDB387D702E9
:10FE90000347640B130707FDBA972381F1F00307AB
:10FEA000740B8347840B130707FD3307D70293872F
:10FEB00007FD3E97A380E1F08307940B0347A40B53
:10FEC000938707FDB387D702130707FDBA972380EF
:10FED000F1F083853400856703C641F0938707E11D
:10FEE0001307C0033307E60283C651F01754FF1F00
:10FEF000130444F4B387F502BA97B69723A6F1F238
:10FF0000184093778700A5E3038564008547631C49
:10FF1000F50483873403A1CB83C7A183850793F7B7
:10FF2000F70F238DF18203C521F011ED8844CC44F5
:10FF300001468146EF70712D0DED238301F0A1A8DC
:10FF4000238301F055BDFDD175D2EDD29146E3FF7B
:10FF5000F6FC13678700138501F09757FF1F23AB4B
:10FF6000E7ECEFF07FB6238D018283876400DDFF2D
:10FF7000E9B78848CC4801468146EF70112955DD24
:10FF800083C721F0DDDB13068007938501F013851D
:10FF900081E8EF90112703C581B39D4705053365BF
:10FFA000F50213068007938501F0238CA1B2930715
:10FFB00080073305F502938701B43E95EF907124D5
:10FFC000EFF07FBA5C58130680078145138501F076
:10FFD0001757FF1F232EF7E8EFE0EFAFB2402244A0
:10FFE000238C0182A38B01829244410182800171A2
:10FFF000232C811E232A911E1306101E2A84AE84F0
:020000021000EC
:1000000068008145232E111E2328211FEFE0AFAC8D
:1000100081458147014701465148CD485D436340D2
:10002000960899C12306F1001306A002A685228531
:10003000EFB020478347C10051473386A440B387C0
:10004000E7029305150078007D16A2958507330514
:10005000F700EF90111B1306A002A6852285034925
:100060001400EFB00044894763C3A7080345C100EB
:10007000D1473305F5027C0005053E95EFF0AFBB97
:10008000631CA904194697E50100938525381305DB
:10009000D100EFB0804E25C56800FD3135A8B3060C
:1000A000C40003C50600930665FD93F6D60F91EADA
:1000B000850793F7F70F6361F3028545014705064E
:1000C000B9BFB3860703130E011FF296BA96A38E2B
:1000D000A6E00507E3D5E8FE8320C11F0324811FA6
:1000E0008324411F0329011F13010120828033074C
:1000F000F4000347070085073349E900B5B71946FF
:1001000097E501009385C5301305D100EFB0E046B7
:1001100021E5194697E501009385C52F1305D10008
:10012000EFB0A04519ED194697E501009385C52E5E
:100130001305D100EFB0604445D16800EFF0EFC087
:1001400061BF13063006A285138501ADEFA061667D
:100150006800EFF04FE349B76800EFF06FBBADBF49
:10016000757122C526C34AC1CEDED2DCD6DADAD812
:1001700006C7AA892E89814401448147130A400297
:10018000854A354B139704014183636C2701BA40BC
:100190002A449A440A49F659665AD65A465B496136
:1001A0008280338799000347070063004703639CFD
:1001B0005701631D67019C18A297A2856800238ED2
:1001C00007F835358147850475BF01449C18A2970F
:1001D00005041374F40F238EE7F893373406E5B75C
:1001E000411106C6138581B38347050013078007B5
:1001F0008145B387E70213068007A1073E95EFE02C
:100200008F8DB2408145114541016FB0D03F1385BC
:1002100081B38347050013078007B387E702A1076F
:100220003E958280138581E88280138501AD8280AE
:100230009757FF1F938707C0985B89476305F700AF
:1002400023AE018282809387C1839C43850723AEBE
:10025000F1821747FF1F035727E163E3E72083C7B6
:1002600081B3130780073387E702938781B3BA9777
:100270000387E7006306071E317122DD52D556D38E
:1002800006DF26DB4AD94ED75AD15ECF62CD66CB88
:100290006AC96EC703C741F903AA070183AA4701C8
:1002A000884FCC4F138481F731EF984708C84CC86A
:1002B00023ACE1F603D7C700DC5B5286239EE1F650
:1002C00023A8F1F88547238AF1F82A87AE87D686D6
:1002D00097E5010093850510254523244401232635
:1002E0005401EFB0800DFA506A54DA544A59BA59A1
:1002F0002A5A9A5A0A5BFA4B6A4CDA4C4A4DBA4D62
:100300002961828017E901001309490A03260900BF
:100310008326490097E401009384C40997E901000A
:100320009389C909EF70510B9040D440EF70A1122E
:100330002A8BAE8B032609008326490008484C48C7
:10034000EF7091099040D440EF70E1102A8CAE8C90
:100350002A86AE865A85DE85EF70915303A6090082
:1003600083A64900EF705107EFF0707D2A8DAE8DA6
:100370005A85DE85EFF090732A8BAE8B6285E68519
:10038000EFF0D072104454442A8CAE8C5285D6853E
:10039000EF7011500326090083264900EF70D10346
:1003A0009040D440EF70210B03A6090083A64900BA
:1003B000EF709102EFF0B0782A84AE846286E68610
:1003C0005A85DE85EF7051012286A686EF70D10036
:1003D0002286A686EF7051002A84AE846A86EE8655
:1003E0006A85EE85EF70417F2A86AE862285A685D6
:1003F000EF607113EF00C14DEFF0B07D2AC42EC63F
:1004000025456C08EFA030652246B2463285B68598
:10041000EF60711197E701009387C7FA9043D443C7
:10042000EF70817B97E70100938747FA9043D443AD
:10043000EF70817A2A841745FF1F034565A8AE84B3
:10044000EF80E1482A86AE862285A685EF7081621C
:10045000E35BA0E80545EFB0102223AE018261B551
:100460008280914763E3C70A17E701001307470B30
:100470000A063A961C42411122C406C6BA972A843B
:100480008287970502009385A5A41145EFA0B05C73
:10049000A2851145EFA0305C2244B24097250200AE
:1004A00093854511114541016FA0F05AB9CA97478C
:1004B000FF1F83C7A7BE81C79042EF50C07522447B
:1004C000B2400146975500009385657B3D4541014B
:1004D0006F3050749DC62244C8C2B24003C5A60006
:1004E0002394B6003686954541016F90602B2244D7
:1004F000B24041016FF010522244B24041016F30CE
:100500001032B2402244410182808280411106C6ED
:1005100083C7418421476396E7021747FF1FA3055E
:10052000F7A69737FF1FA3880770EF60C055EF60ED
:10053000805AEF90D040EF90D007B24041016F90C9
:10054000707C25476397E7001747FF1FA30EF7A2AC
:10055000E9BF9747FF1FA38907A2C1BF05456F7079
:10056000106E55715810930631021306210293053F
:100570001102930751021305610286C7EF707015CF
:100580009757FF1F9387078B9C43BD9B1757FF1FF0
:100590002322F78AEFF0BFC7030305039305E004A6
:1005A0008356610203471102834721020348310247
:1005B00083484102034E5102170602001306C61972
:1005C0006316B30017D601001306067F830E1503CA
:1005D00013035004032F8500832FC50097D5010016
:1005E0009385857D63866E00970502009385C51609
:1005F00003230501832345017AC41ACC1ECE7EC68F
:1006000072C02EC832C297F50100938565881736EF
:10061000FF1F1306A6602810EFA04110EF90804C3A
:100620002810EFA0211593870184904393150501AD
:10063000938681F92810C1812D35BE406961828081
:10064000411106C623A0B18401C61C4223ACF1F8B7
:100650009737FF1F83C7377D85EF0545EFC0E0491A
:1006600097E50100938505FB2545EFA0D03E974710
:10067000FF1F9387277C9C4393E707011747FF1FC2
:10068000232AF77AEF904045B24041016F40504035
:1006900005470545639CE700EFC020460545EFB0E0
:1006A000807D97E50100938525F87DBFEFC0E0448C
:1006B0000545EFB0407C97E50100938565F86DB77F
:1006C000411122C42A848307D40306C626C22E857C
:1006D00089C71307F0036398E7021737FF1F130753
:1006E000F77A9736FF1F938656771736FF1F130644
:1006F000B67397E501009385E5FF2244B24092442A
:1007000041016FA0A1019737FF1FA38F0770973793
:10071000FF1FA38407749737FF1FA389077603473A
:1007200004008547AE8463FAE7009305D4031735C8
:10073000FF1F1305756FEFA0C1028307940791CFC8
:1007400003470400894763FAE700930594071735C8
:10075000FF1F13059570EFA0C1008307540B91CFC5
:10076000034704008D4763FAE7009305540B1735E0
:10077000FF1F1305B571EF90D17E0146974500002C
:100780009385E56A1305C012EF30D048EF60A02FC3
:100790001737FF1F1307976F9736FF1F9386F66B68
:1007A0001736FF1F1306566897E501009385C5F6B7
:1007B0002685A1B7411126C206C622C403470500FB
:1007C0008947AE8463F7E7029305D5032A841306AD
:1007D00020031735FF1F1305255EEF90917D13054C
:1007E0009407EF90411F9737FF1F2399A762EF608F
:1007F0000024EF60C0279736FF1F83D62662173686
:10080000FF1F1306665B97E501009385655F2685EC
:10081000EF90D17085479735FF1F93852540173599
:10082000FF1F130525581737FF1FA301F74EEF9041
:1008300051739735FF1F9385355F1735FF1F1305DC
:10084000054DEF9011729735FF1F93851561173590
:10085000FF1F1305E54EEF90D1709735FF1F93856D
:10086000F5621735FF1F1305C550EF90916F97D5AF
:1008700001009385A5501735FF1F13050557EF900D
:10088000516EEF60C01A0146974500009385C55927
:100890007945EF3030382244B24092440146978582
:1008A00000009385A5B71305600941016F309036AC
:1008B000411122C426C24AC006C68307D503AE84AE
:1008C00017E90100130909171744FF1F1304845681
:1008D00089C71307F0036391E7041735FF1F03452A
:1008E000155EEF70D17E0326090083264900EF6074
:1008F0009136EF80F16F28C8EF80D164AE862A86EA
:1009000097E50100938585132244B240024926856C
:10091000924441016F9091601305D503EF90A10BB4
:100920009737FF1FA38DA7581375F50FEF70317A16
:100930000326090083264900EF60F131EF80516BF7
:1009400028C8EF6040142848EF80D15FAE862A8621
:1009500097E501009385851045BFAA870387D703D4
:100960002E8509C79306F0036315D7029737FF1F3B
:1009700083C7574B17E601001306860989E717F668
:1009800001001306263897E501009385E5096F906D
:10099000F15841111385D70306C622C42E84EF9067
:1009A00081039737FF1FA38FA746EF60C00D9737CE
:1009B000FF1F83C7374797E501009385E50589E762
:1009C00097E501009385C50522852244B240410187
:1009D0006F903159411126C206C6AA8422C483876A
:1009E000D4032E8589C71307F0036396E70497376E
:1009F000FF1F83C7574305476385E70289CB094734
:100A00006386E702B240224492444101828097E526
:100A10000100938565142244B240924441016F90D5
:100A2000515497E501009385A515F5B797E50100A9
:100A30009385C517CDB79384D4032E84268597E577
:100A400001009385A519EF9011591DC189471737EA
:100A5000FF1FA30AF73C97E501009385651C2285DB
:100A6000EF9031502244B240924441016F60A001A6
:100A70002685EF8051761375F50F9737FF1FA384F6
:100A8000A73A854797E5010093858517E309F5FCAB
:100A900097E501009385051579D18947E30DF5FAAE
:100AA0001737FF1FA301F73897E5010093858519D4
:100AB0007DB741112E8597E501009385251C06C65B
:100AC000EF90314A0146974500009385E535794519
:100AD000EF305014B240014697850000938505948D
:100AE0001305600941016F30F012411122C426C282
:100AF00006C68307D503AE841734FF1F13044432A0
:100B000089C71307F003639BE7028306742417E683
:100B100001001306E63263D6060017D6010013065D
:100B2000A629268597E501009385C531EF90113FF1
:100B30002244B240924441016FA0504E1305D503A8
:100B4000EF8071699737FF1FA38FA750EFA0104D5B
:100B50000306742497E50100938585302545EFA0B1
:100B6000D005834774246147B10793F7F70F637784
:100B7000F700A1471737FF1FA307F74EEF50B070DC
:100B80008306742417E601001306862B63D606003D
:100B900017D60100130646222244B240268592440D
:100BA00097E501009385452C41016F9031377971AC
:100BB00022D49307D1012E8478089306B10113063D
:100BC000A101930591011305E10106D626D24AD071
:100BD000EF7020308348D1010348C1018347B10140
:100BE0000347A101834691010356E10197E5010006
:100BF000938505CC2285EF9071322285EF90913755
:100C00009744FF1F93840423CC5803A8C4030566AC
:100C1000130606E133F3C5029306C0032295B378A9
:100C2000C802B377D80233F7D5023EC09C58B3D878
:100C3000D8023358C802B356D30233D6C50297E55B
:100C40000100938525C9EF90712D2285EF90913297
:100C50003309A400EFA0001717E60100130606C52C
:100C600009C517E60100130626C497E50100938520
:100C700065CA4A85EF90912A2285EF90B12FB71768
:100C8000004003A6470C9736FF1F83C6664897E5CA
:100C90000100938525C95D82058A2295EF90112870
:100CA0002285EF90312D90409746FF1F83D6C618BE
:100CB00097E50100938585C82D82058A2295EF90DE
:100CC000F1252285EF90112B0396640297E5010030
:100CD000938505C82295EF9071242285EF90912984
:100CE00022951746FF1F0346861597E50100938559
:100CF000E5C6EF90B122B250225492540259456198
:100D00008280AA870387D7032E8509C79306F0033D
:100D10006311D7029737FF1F83C7071197E50100BB
:100D20009385C59389E797E50100938525966F9094
:100D3000512341111385D70322C406C62E84EF80A8
:100D400091491375F50F9737FF1F238FA70C17379E
:100D5000FF1F0347F70C89476316F7000DE911459C
:100D6000EFB060119737FF1F83C7070C97E50100AD
:100D70009385459389E797E501009385E59522855D
:100D8000EF90311E2244B24041016F50D04F1145C7
:100D9000EFB04011C1BFAA870387D7032E8509C7CB
:100DA0009306F003631ED7029737FF1F83C7A70779
:100DB0000547638DE70089C70947638EE700828096
:100DC00097E50100938505986F90B11997E50100AB
:100DD0009385859BD5BF97E501009385A5A0EDB7C9
:100DE00041111385D70322C406C62E84EF80B13E7D
:100DF0001375F50F9737FF1F2387A702854797E5E0
:100E00000100938565986306F50297E501009385D7
:100E1000659305C1894797E501009385A59C630A01
:100E2000F5001737FF1F2300F70097E501009385B2
:100E300025A12285EF90F1122244B24041016F506A
:100E40009044AA870387D7032E8509C79306F0032A
:100E5000631CD7001736FF1F0346860697E501007F
:100E6000938585B56F90910B41111385D70306C605
:100E700022C42E84EF80B1369737FF1F2382A70448
:100E8000EF50704022852244B2401736FF1F0346C0
:100E9000260397E50100938565B44101E1B741114F
:100EA00022C4130550042E84814506C6EF30B05F7E
:100EB000EF5070332A8622852244B24097E5010024
:100EC000938545B441016F907105411122C413050A
:100ED000D5032E8497E50100938505A906C6EFA0EA
:100EE000005E11CD0145EF50904497E501009385D8
:100EF00065A822852244B24041016F9091060545C4
:100F0000EF50F04297E50100938585A8DDB74111C8
:100F100022C42A848307D40306C626C22E8589C725
:100F20001307F003639CE7029737FF1F9387B7020D
:100F30001737FF1F130717FF9736FF1F83D6E613D8
:100F40001736FF1F1306F6FA97E50100938545D57E
:100F50002244B240924441016F90417CAE841735E7
:100F6000FF1F130515F99305D403EF90817F173503
:100F7000FF1F130515F8EF90E17F93150501C1815F
:100F80001735FF1F1305F5F6EFA0500A83079407E6
:100F900089CB13059407EF8011249737FF1F239EF9
:100FA000A70C8307540B85CB9305540B1735FF1FF4
:100FB000130555F7EF90E17A1735FF1F130595F6E6
:100FC000EF90417B93150501C1811735FF1F130574
:100FD00075F5EFA0B0058307140F85CB9305140FAB
:100FE0001735FF1F130535F7EF90A1771735FF1F52
:100FF000130575F6EF90017893150501C18117353A
:10100000FF1F130555F5EFA07002EF50D02797375B
:10101000FF1F938757F41737FF1F1307B7F0973653
:10102000FF1F83D686051736FF1F130696EC97E53C
:101030000100938525C8268521BFAA870387D7038A
:101040002E8509C79306F003631CD7001736FF1FD0
:101050000356860197E50100938505D86F90016CD2
:1010600041111385D70306C622C42E84EF80B11622
:10107000131605019737FF1F2398A7FE418297E5B6
:1010800001009385A5D62285EF9041699737FF1F10
:1010900083C717D909476388E700ED1793F7F70F60
:1010A0000547636AF7009737FF1F83D7E7FB89EB94
:1010B0000945EFA0305F2244B24041016F50B01C9F
:1010C000EFA0904C75D51737FF1F0357E7F993072B
:1010D0009005E3EFE7FC0945EFA0F059E9BFAA87C7
:1010E0000387D7032E8509C79306F0036313D7063A
:1010F0009737FF1F83C7E7F905476389E70289CF61
:101100000947638EE7020D476380E70497E5010016
:10111000938585C56F90E16417E60100130686BBD1
:1011200097E50100938585BC6F90415F17E601004C
:10113000130686BC97E50100938505BDF5B717E654
:1011400001001306E6BEFDB717E60100130686BFD1
:10115000D5B741111385D70322C426C206C62E84F3
:10116000EF8071071375F50F9737FF1F2383A7F2E1
:101170008544630295041DC18947630AF5048D47C0
:10118000630CF50497E50100938505C22285EF9075
:10119000415D9737FF1F238E97EE01A897E5010069
:1011A000938505BD2285EF90C15B2244B2409244F5
:1011B00041016F50500D17E601001306E6B397E5A5
:1011C0000100938525BC2285EF904155F9BF17E6B4
:1011D00001001306E6B5E5B717E60100130686B66B
:1011E000F9BF1971A2DCA6DA2A84AE841306500670
:1011F0008145280086DEEFD00F8E8307D40389C790
:101200001307F0036396E7069737FF1F83C757E876
:10121000A9C79738FF1F9388F8E11738FF1F1308F5
:1012200038E09737FF1F938787EB1737FF1F1307A8
:10123000E7E79736FF1F83D6C6E41736FF1F13066E
:1012400016DB97E501009385A5852685EF90014D76
:10125000F6506654D654096182806654F65026854D
:10126000D65497E501009385658809616F90614FB9
:101270001305D403EF802176630205189747FF1FFB
:10128000938747BB9C5B99C3EF9000570545EF9050
:10129000704585471737FF1FA30CF7DE83079407B8
:1012A00095C71306200381451735FF1F130535D455
:1012B0009700FF1FE78040E1130620039305940782
:1012C0001735FF1F1305B5D2EF90A14E8307540BBE
:1012D00089CB1305540BEF8001709737FF1F2392C2
:1012E000A7DA8307140FA9C3130620038145173516
:1012F000FF1F1305A5DB9700FF1FE780E0DC130647
:10130000200381451735FF1F1305D5D29700FF1F16
:10131000E78080DB130620039305140F1735FF1FAA
:101320001305C5D8EF90E1488307D41295C713067B
:10133000200381451735FF1F130565DA9700FF1F4E
:10134000E78080D8130620039305D4121735FF1FBA
:101350001305E5D8EF90E1458307941685C75146FC
:1013600081451735FF1F1305B5CB9700FF1FE78099
:10137000A0D55146930594161735FF1F130555CA7E
:10138000EF9021439736FF1F938666D51736FF1FD0
:101390001306C6D197D501009385C5DC2800EF90D0
:1013A000E1372800EF90013DAA851736FF1F13068D
:1013B00076C82800EFD0302F9738FF1F938898C742
:1013C0001738FF1F1308D8C59737FF1F938727D1FA
:1013D0001737FF1F130787CD9736FF1F83D666CABF
:1013E0001736FF1F1306B6C097D5010093854571C8
:1013F0002685EF90A132EF50006999BD97D5010085
:101400009385857426859737FF1FA38307C8EF90C0
:101410004135EF906040C5B7130101B923229146D1
:10142000B2842E86AA85E80023261146232481460D
:1014300023202147232E31453689232C4145232A59
:1014400051452328614523267145232481452322C4
:1014500091452320A145232EB143EFA0E02C130595
:10146000D104EF90213193150501C1811305D104F9
:1014700097E90100938949A7EFA0803701444E8A7C
:10148000930A200303A549009305D104EF90307B14
:101490000DC90E0452948317040013970701230803
:1014A000012241839306100363F4E6006F1010409D
:1014B00017D70100130707088A07BA979C43BA9702
:1014C00082870504A109E31F54FBFD57F9B702D237
:1014D00002D402D602D802DA9737FF1F83C7D7AAF1
:1014E0002547639AE70C21464C101725FF1F13056B
:1014F0002574EFA0E011081C230A0102001CEF90E4
:1015000061279738FF1F9388F8C41738FF1F130807
:10151000E8C39737FF1F83D787C41737FF1F130709
:1015200037BF9726FF1F9386666F501097E501001F
:10153000938505BB2295EF90611E081CEF908123D7
:101540001C1C1736FF1F1306368E3E9597E50100CB
:10155000938585BEEF90811C081CEF90A1211C1C77
:101560003E959737FF1F9387A78B8386772417E6CF
:1015700001001306E68C63D6060017D60100130699
:10158000A68397E501009385A5BBEF902119173439
:10159000FF1F0344F4889307F4FF93F7F70F1547F1
:1015A0006369F71417D70100130747058A07BA972D
:1015B0009C43BA97828721476395E7044C101946EC
:1015C0001735FF1F1305F5B7EFA08004081C23088B
:1015D0000102001CEF90011A9737FF1F83D707AA5B
:1015E0001737FF1F1307979D9726FF1F93860663E4
:1015F000501097E50100938565B12295EF90011297
:101600002DBF081CEF9001171C1C1737FF1F035735
:1016100027A79736FF1F9386B68A1726FF1F130644
:10162000E65F97E50100938525B03E95EF90010FA9
:1016300029B7081CEF9001141C1C3E95854797E5BF
:1016400001009385A5B06306F40097E5010093853A
:1016500065B0C169EF90E1101724FF1F1304447CAB
:10166000172BFF1F130B6B7CFD19930AC00397EB1D
:101670000100938BABAE035AA424630E3A01081CFD
:10168000EF90410FB3765A031C1CDE853E9533560E
:101690005A03EF90A1080904E31F8BFC081CEF908C
:1016A000610D1726FF1F0346D67797E50100938546
:1016B000A5AB1C1C3E95BDA81736FF1F0356C69A46
:1016C0009736FF1F83D6069B081C32CE36CCEF9090
:1016D000610A72461C1C3E95E24621C297E5010054
:1016E000938585A9A1CA97E501009385A5A9EF90E7
:1016F000E102081CEF9001081C1C9726FF1F83D6EF
:10170000E6561726FF1F0356865697E50100938578
:10171000E5B03E95EF908100E1A381EA97E50100F5
:10172000938545A7EF90E103E9B7368697E5010079
:10173000938545A7EF80917E6DBF081CEF908103D4
:101740001736FF1F0356069397E50100938545A6BC
:101750008DB7081CEF9001021736FF1F03568691C4
:1017600097E50100938505A6A9B7081CEF908100B5
:101770001C1C3E95C1671734FF1F03540492FD17CC
:101780006303F4021307C003B356E402E1471146B2
:1017900097E50100938545A43377E402B3F6F6029A
:1017A000EF80D177B9B7114697E50100938505A57C
:1017B00051B7EF40E0411734FF1F1304A467EF60F7
:1017C00070372844EF7011782A86AE86081C97E59A
:1017D0000100938525A6EF8071749737FF1F83C79B
:1017E0002766638B071CEFE09FA2AA89081CEF8085
:1017F00071781C1C3E958387690017E6010013066B
:10180000A68789E717D60100130646C397E50100AE
:10181000938545A3EF809170081CEF80B1752A8AEB
:1018200003A54902EF7011721C1C2A86AE8633850F
:10183000470197E50100938565A1EF80316E03862E
:1018400039038947631DF612081CEF80B1721C1C16
:10185000094697E50100938525A03E95EF80116C20
:10186000081CEF8031711C1CB389A700EFA0C05188
:1018700017F601001306861109E517F60100130695
:10188000E60F97E501009385A5A34E85EF801169CA
:10189000081CEF80316EAA89EF50C0131C1C2A86E9
:1018A00097E50100938545A233853701EF801167E5
:1018B000081CEF80316C1C1CB389A700EFA0E0501E
:1018C00017D601001306C67B09E517D601001306DB
:1018D000E67B97E501009385E59F4E85EF801164D7
:1018E000081CEF8031691C1CB389A700EF90E0460B
:1018F00017D60100130646FB09E517D601001306AB
:10190000E6FA97E501009385A59D4E85EF8011616C
:10191000081CEF8031661C1CB389A700EF90604D56
:1019200017D60100130646F809E517D6010013067D
:10193000E6F797E501009385659B4E85EF80115E84
:10194000081CEF80316370501C1C3E9597E5010028
:101950009385859AEF80915C081CEF80B161AA891C
:101960006854EF70315E1C1C2A86AE8633853701C1
:1019700097E5010093850599EF80515A95A6081CBB
:1019800032CCEF80315F62461C1C3E959147631854
:10199000F600114697E501009385C58DC1B59547C1
:1019A00097E501009385858FE31AF6EA154697E5DA
:1019B00001009385658D5DB5081CEF80B15B1C1C33
:1019C00097E501009385058F3E95EF80915949BDBC
:1019D00017E701001307C79397E601009386069463
:1019E00017C601001306863997E501009385C59354
:1019F000081CF1AC8307910889C71307F003639FA4
:101A0000E7069727FF1F83C737582547639AE702E2
:101A10009727FF1F938717741727FF1F1307077355
:101A20009726FF1F83D6A6731726FF1F1306566E31
:101A300097E5010093850591081CEF80314E4DA478
:101A400021476390E7029726FF1F83D62663172658
:101A5000FF1F1306B65697E5010093852591081CD4
:101A600055B99726FF1F83D6A6611726FF1F1306B9
:101A7000364597E501009385A590D5B78307510CAE
:101A80006380071A83071110638C071813059108E8
:101A9000EF7071741375F50F2382A184A14763124F
:101AA000F506130620039305510C1725FF1F130598
:101AB000F550EF8011501725FF1F13053550EF80AB
:101AC000714B93150501C1811725FF1F1305154F94
